:020000040000fa
:080000000002040000000000f2
:020000040000fa
:040008009c04000054
:020000040000fa
:04000c00b404000038
:020000040000fa
:04001000d204000016
:020000040000fa
:04001400a60400003e
:020000040000fa
:04001800be04000022
:020000040000fa
:04001c00c804000014
:020000040000fa
:04002000dc040000fc
:020000040000fa
:040024007206000060
:020000040000fa
:04002800720600005c
:020000040000fa
:04002c007206000058
:020000040000fa
:040030007206000054
:020000040000fa
:040034005a06000068
:020000040000fa
:04003800720600004c
:020000040000fa
:04003c007206000048
:020000040000fa
:040040007206000044
:020000040000fa
:04004400e8050000cb
:020000040000fa
:04004800720600003c
:020000040000fa
:04004c007206000038
:020000040000fa
:040050007206000034
:020000040000fa
:04005400640500003f
:020000040000fa
:04005800020500009d
:020000040000fa
:04005c007206000028
:020000040000fa
:040060007206000024
:020000040000fa
:040064007206000020
:020000040000fa
:04006800720600001c
:020000040000fa
:04006c007206000018
:020000040000fa
:040070007206000014
:020000040000fa
:040074007206000010
:020000040000fa
:04007800720600000c
:020000040000fa
:04007c007206000008
:020000040000fa
:040080007206000004
:020000040000fa
:040084007206000000
:020000040000fa
:0400880072060000fc
:020000040000fa
:04008c0072060000f8
:020000040000fa
:0400900072060000f4
:020000040000fa
:0400940072060000f0
:020000040000fa
:0400980072060000ec
:020000040000fa
:04009c0072060000e8
:020000040000fa
:0400a00072060000e4
:020000040000fa
:0400a40072060000e0
:020000040000fa
:0400a80072060000dc
:020000040000fa
:0400ac0072060000d8
:020000040000fa
:0400b00072060000d4
:020000040000fa
:0400b40072060000d0
:020000040000fa
:0400b80072060000cc
:020000040000fa
:0400bc0072060000c8
:020000040000fa
:0400c00072060000c4
:020000040000fa
:0400c40072060000c0
:020000040000fa
:0400c80072060000bc
:020000040000fa
:0400cc0072060000b8
:020000040000fa
:0400d00072060000b4
:020000040000fa
:0400d40072060000b0
:020000040000fa
:0400d80072060000ac
:020000040000fa
:0400dc0072060000a8
:020000040000fa
:0400e00072060000a4
:020000040000fa
:0400e40072060000a0
:020000040000fa
:0400e800720600009c
:020000040000fa
:0400ec003c060000ce
:020000040000fa
:0400f0001e060000e8
:020000040000fa
:0400f4007206000090
:020000040000fa
:0400f800720600008c
:020000040000fa
:0400fc007206000088
:020000040000fa
:040100007206000083
:020000040000fa
:04010400720600007f
:020000040000fa
:04010800720600007b
:020000040000fa
:04010c007206000077
:020000040000fa
:040110007206000073
:020000040000fa
:04011400720600006f
:020000040000fa
:04011800720600006b
:020000040000fa
:04011c007206000067
:020000040000fa
:040120007206000063
:020000040000fa
:04012400720600005f
:020000040000fa
:04012800720600005b
:020000040000fa
:04012c00d2050000f8
:020000040000fa
:040130007206000053
:020000040000fa
:04013400720600004f
:020000040000fa
:04013800720600004b
:020000040000fa
:04013c007206000047
:020000040000fa
:040140007206000043
:020000040000fa
:04014400720600003f
:020000040000fa
:04014800720600003b
:020000040000fa
:04014c007206000037
:020000040000fa
:040150007206000033
:020000040000fa
:04015400720600002f
:020000040000fa
:04015800720600002b
:020000040000fa
:04015c007206000027
:020000040000fa
:040160007206000023
:020000040000fa
:04016400720600001f
:020000040000fa
:04016800720600001b
:020000040000fa
:04016c008604000005
:020000040000fa
:04017000180400006f
:020000040000fa
:04017400b6030000ce
:020000040000fa
:04017800720600000b
:020000040000fa
:04017c007206000007
:020000040000fa
:040180007206000003
:020000040000fa
:0401840072060000ff
:020000040000fa
:0401880072060000fb
:020000040000fa
:04018c0072060000f7
:020000040000fa
:0401900072060000f3
:020000040000fa
:0401940072060000ef
:020000040000fa
:0401980072060000eb
:020000040000fa
:04019c0072060000e7
:020000040000fa
:0401a00072060000e3
:020000040000fa
:0401a40072060000df
:020000040000fa
:0401a80072060000db
:020000040000fa
:0401ac0072060000d7
:020000040000fa
:0401b00072060000d3
:020000040000fa
:0401b40072060000cf
:020000040000fa
:0401b80072060000cb
:020000040000fa
:0401bc0072060000c7
:020000040000fa
:0401c00072060000c3
:020000040000fa
:0401c40072060000bf
:020000040000fa
:0401c80072060000bb
:020000040000fa
:0401cc0072060000b7
:020000040000fa
:0401d00072060000b3
:020000040000fa
:0401d40072060000af
:020000040000fa
:0401d80072060000ab
:020000040000fa
:0401dc0072060000a7
:020000040000fa
:0401e00072060000a3
:020000040000fa
:0401e400720600009f
:020000040000fa
:0401e800720600009b
:020000040000fa
:0401ec007206000097
:020000040000fa
:0401f0007206000093
:020000040000fa
:0401f400720600008f
:020000040000fa
:0401f800720600008b
:020000040000fa
:0401fc007206000087
:020000040000fa
:040200007206000082
:020000040000fa
:04020400720600007e
:020000040000fa
:04020800720600007a
:020000040000fa
:04020c007206000076
:020000040000fa
:040210007206000072
:020000040000fa
:04021400720600006e
:020000040000fa
:04021800720600006a
:020000040000fa
:04021c007206000066
:020000040000fa
:040220007206000062
:020000040000fa
:04022400720600005e
:020000040000fa
:04022800720600005a
:020000040000fa
:04022c007206000056
:020000040000fa
:040230007206000052
:020000040000fa
:04023400720600004e
:020000040000fa
:04023800720600004a
:020000040000fa
:04023c007206000046
:020000040000fa
:040240007206000042
:020000040000fa
:04024400720600003e
:020000040000fa
:04024800720600003a
:020000040000fa
:04024c007206000036
:020000040000fa
:040250007206000032
:020000040000fa
:04025400720600002e
:020000040000fa
:04025800720600002a
:020000040000fa
:04025c007206000026
:020000040000fa
:040260007206000022
:020000040000fa
:04026400720600001e
:020000040000fa
:10040000efbf27000eff27000e018800000000004c
:10041000000020000000e000020032000001200087
:100420002002880014000700810207000000e0009d
:1004300003003a00c0752e000100200002003700c2
:100440000000200001002000810f70000100320038
:100450000f000700000020000000e0000200320052
:100460000000020000000000b2f6020000000000e0
:100470000040da000000fe00001a20000000e0004a
:1004800002003200002020009001880000000600d9
:10049000a1028800800478000000eb001f003700f4
:1004a000e284440054a0b4009905ba00e2844400f8
:1004b00054a0b4009906ba00e284440054a0b400e9
:1004c0000006eb00476fde00fd07b200ae018800ba
:1004d000636ce10003003a000ad801000000eb0061
:1004e0000e003700606ce10008003a00004deb00a0
:1004f0000a05e800020039003420ec000af0a000f0
:100500008b05e900f9ff3e00040037006168e10057
:10051000010032000086eb000b00070019c7ba008b
:100520000e04e0001905ba0003003a000a00e000da
:10053000dbff3a0000000600fe07b200ae028800b2
:100540008a047800f5ff37000cd0a300e20f4d00bd
:100550001c00390089027800354dba000a05e80010
:10056000020039003420ec000af0a0008b05e900fd
:100570000f003200254dba000a05e80002003900dc
:100580003420ec000af0a0008b05e90008003200de
:100590000c00e0000600320015cdba000a05e800a4
:1005a000020039003420ec000af0a0008b05e900bd
:1005b0008984e80054a0b4000b00e000e2ff3a0098
:1005c000000006009902ba00055d78008b05e9007d
:1005d000f7ff3200c82ade00055d78008b05e900d0
:1005e000f3ff32000c00e000f1ff320019ddba0029
:1005f000eeff370072d00400000000007cd0040041
:100600000000000068d00400000000003cd004009e
:1006100000000000acce040000000000eece04009c
:10062000000000000ccf0400000000007ccf04009c
:1006300000000000cccf04000000000024cf040024
:10064000000000000ed0040000000000bece040038
:1006500000000000cace040000000000d6ce040056
:1006600000000000e2ce04000000000036cf0400cd
:100670000000000042cf0400000000004ecf040044
:100680000000000096ce0400000000005acf0400d5
:100690000000000006e30400000000007cf90400f4
:1006a0000000000096e30400000000000ee40400d7
:1006b000000000006ce4040000000000c6e4040038
:1006c00000000000eed70400000000000cd8040079
:1006d0000000000006db04000000000024db040032
:1006e00000000000a0f504000000000092d104000a
:1006f00000000000c6d1040000000000acd10400de
:1007000000000000bed2040000000000c2d30400bc
:100710000000000046af040000000000f297040053
:10072000000000000ee1040000000000f683040059
:1007300000000000a26d040000000000eabe0400fa
:10074000000000000051040000000000b8ef0400a9
:1007500000000000fa0c0400000000000017040074
:100760000000000000000400000000003600f80057
:10077000809fbe00829fbe00849fbe00869fbe00f9
:100780000000fa00b09583000000e0000200320093
:10079000b095830000000100e1858300d0858300cf
:1007a000808f500002003a002a68a9001900370023
:1007b0000a68a90010003700e085830090407800a7
:1007c0008180fb00a11288000000e800e0858b001a
:1007d000e1858300a01b2700808f500002003a00b3
:1007e000f00b2700e0858b00e1858300d085830036
:1007f000808f5000060032009112800000202000ff
:10080000008060000000e000ebff320001003700d4
:10081000000000000080fa004f03be004f02be003f
:100820004f01be004f00be003600f9000040060038
:100830003600f800809fbe00829fbe00849fbe00ed
:10084000869fbe000000fa00c09583000000e00013
:1008500002003200c0958300000001000a48a90090
:100860001f003700b0858300b112800081407800fe
:1008700001487800b1858300402b2700808f50000d
:1008800009003200b08583008000e800c085830045
:10089000808f500004003200b08583000000e80023
:1008a000b0858b000e003700b1858300402b2700f8
:1008b000808f500007003a00c1858300a01b2700ed
:1008c000808f500003003200a01b2700b0858b00f2
:1008d00003003700e00b270011c0b3000148780087
:1008e00090128000610060000000e000ddff3a002f
:1008f0000080fa004f03be004f02be004f01be0051
:100900004f00be003600f90000400600801f78004e
:100910000000fa0090128000620060000000e00019
:10092000010032005222a9000a28a9000080fa0022
:100930004f007800004006003600f800c028a900eb
:100940000000eb00d2f90200000000003600f800c1
:10095000daf9020000000000c048a90010002000e1
:10096000d2f90200000000003600f800c068a900bb
:1009700020002000d2f90200000000003600f8003c
:10098000c088a90030002000d2f902000000000059
:100990003600f800c0a8a90040002000d2f90200eb
:1009a000000000003600f800c608a9007000200012
:1009b000d2f90200000000003600f8002146800055
:1009c00000022000008060000000e000040032000f
:1009d000c4a8a90090002000d2f902000000000085
:1009e00020468000700060000000e000040032003b
:1009f000c488a900a0002000d2f902000000000075
:100a0000ffff37003600f800809fbe00829fbe00c7
:100a1000849fbe00869fbe000000fa00d0a5830020
:100a20000000e00002003200d0a5830000000100b9
:100a300001968300f0958300808f500002003a00f9
:100a40002188a900190037000188a900100037008b
:100a500000968300904078008180fb00211188007f
:100a60000000e80000968b0001968300e03b270021
:100a7000808f500002003a00302c270000968b0037
:100a800001968300f0958300808f500006003200ad
:100a90001111800000202000008060000000e000b4
:100aa000ebff320001003700000000000080fa0078
:100ab0004f03be004f02be004f01be004f00be00fc
:100ac0003600f900004006003600f800809fbe00a6
:100ad000829fbe00849fbe00869fbe000000fa0079
:100ae000e0a583000000e00002003200e0a58300e2
:100af000000001000168a9001f003700d0958300a5
:100b0000311180008140780001487800d195830040
:100b1000804b2700808f500009003200d095830061
:100b20008000e800e0958300808f500004003200d0
:100b3000d09583000000e800d0958b000e003700b0
:100b4000d1958300804b2700808f500007003a002a
:100b5000e1958300e03b2700808f500003003200c6
:100b6000e03b2700d0958b0003003700202c2700a6
:100b700011c0b300014878001011800061006000ce
:100b80000000e000ddff3a000080fa004f03be00e5
:100b90004f02be004f01be004f00be003600f900fc
:100ba00000400600801f78000000fa00101180004d
:100bb000620060000000e000010032002222a90073
:100bc0000828a9000080fa004f00780000400600c5
:100bd0003600f800809fbe00829fbe00849fbe004a
:100be000869fbe000000fa0020de83000000e000c7
:100bf0000200320020de83000000010070bc2700ec
:100c0000104078008040e80070bc27000148780060
:100c100060bc270011c0b3000148780000e8a900bb
:100c20000080fa004f03be004f02be004f01be001d
:100c30004f00be003600f900004006003600f80004
:100c4000809fbe00829fbe00849fbe00869fbe0024
:100c50000000fa00a0dd8300000001000080fa001f
:100c60004f03be004f02be004f01be004f00be004a
:100c70003600f900004006003600f800809fbe00f4
:100c8000829fbe00849fbe00869fbe000000fa00c7
:100c9000b0dd8300000001000080fa004f03be00b9
:100ca0004f02be004f01be004f00be003600f900eb
:100cb00000400600809fbe000000fa0050dd830067
:100cc00061dd830061004000e080480050dd8b0062
:100cd00061dd8b000068a9000080fa004f00be00b3
:100ce000004006000040da000000fe000a00fa00a2
:100cf00011002000b1bf9f00c0bf9f006a80570055
:100d0000310907004fb897000080fa000000060084
:100d10000a00fa0051002000b1bf9f00c0bf9f0031
:100d20006a8057002a0907005fb897000080fa0020
:100d300000000600889fbe0080047800e0df83008a
:100d40000000e00004003a000e0007000084eb0001
:100d50000000e00008003500e8df83000900e00043
:100d60000500320009004400060007000000e00012
:100d700001003d000084eb00080078004f04be0035
:100d800000000600800078000100e00003003a0047
:100d900000002000e0df8b00000005000080eb0079
:100da00002002000828f500002003e00e1df8b0035
:100db0000000eb00000006000a00fa00200798007f
:100dc0003107980042079800be0090001107980074
:100dd0000000eb00000f78000e003700000000005c
:100de0007ed80200000000000004a2000004e00021
:100df000fbff3a001e009000104078009e0090001b
:100e00008100e800110798003ed8020000000000b1
:100e10001e0fe8004e0090009e007800808f50006a
:100e2000eeff39004e0090000080fa00000006003e
:100e30000000050003f0a200889fbe008a9fbe004c
:100e40008c1f780000010700070133006450e100a7
:100e50004f0032006420e1005200320003826c0037
:100e600007003b000905d0000306d000820f5400a4
:100e70000c065d0002003900020032008901780092
:100e8000030678008582550004003d000003fd0044
:100e90008103fd008502ea008b854200840f720009
:100ea00002003b0060001000e08018006011b800f4
:100eb0000005eb007a28e1000a00390006007800fe
:100ec000c75ddd00f707b200878075002d00370091
:100ed000828171000a017800610560008180d10083
:100ee0000080d3008502e900f9ff3b0006044000c2
:100ef0008784480002003b0060041400e0841c006a
:100f00000988a300070032008a8171008281710084
:100f1000610164008904d1000884d3008b05e800d6
:100f2000170037000978a30013003a000b00e00017
:100f3000130034008b05e9000804440089844c0048
:100f40000a4474000978a3000d003a000b00e00089
:100f5000070034008b05e9000804440089844c0034
:100f600001003a000b0020000978a300f7ff3200cf
:100f70000001eb0002003700828171000a01780055
:100f8000760007000cf0a70001f0a000bf003700ba
:100f90006420e10002003a00838f6c00bf00330040
:100fa0000801be000200be00b8003700889fbe00e6
:100fb0008a9fbe008c1f7800a3000700aa003300a0
:100fc00003866c006450e1002e0032006420e100d2
:100fd000330032006150e1002f0032006120e10057
:100fe0003100320085855500eb07b0000900200074
:100ff00008042000050037000804440089844c00e0
:101000000a0031000603430087834b0000015300b0
:1010100081815b00f8ff33000203be000800a000de
:101020000804440089844c00f6ff3900c639dd000d
:101030008301730001003200130020008904d100f5
:101040000884d3000998a300050032000800a70017
:101050000300a0008904d1000884d3008b05e800b8
:101060008904d1000884d3000001eb000281d20082
:101070003a00070001f0a1000cf0a70001f0a00069
:10108000820037006420e100840032000801be00c5
:101090000200be00f7ff37006120e1007f00320050
:1010a0006000b800f3ff37000000200001f82700bf
:1010b000f0ff370014002000c3013700f4ff2f00b9
:1010c000c10137000001be004a0007000470a700fc
:1010d00003f0a1006509b100160032000d003500d3
:1010e0006828e10006003500f0ff2f00f1ff27001f
:1010f0000300e00013003b00010028000000050091
:1011000000004000818048008502e900fcff3a00b1
:1011100008003700f88f420002003c008000eb001e
:10112000000005008100d1000080d3008502e800a6
:10113000fcff3a000300e00002003b0060001000ea
:10114000e0801800000006004f89de008201780070
:10115000b80137006011b800c601370081002000d7
:10116000618055000b003d000b00200061fe2f0048
:101170000100e1001d003400828171006101640002
:101180008904d1000884d3000000e800faff3a0087
:101190007100200061006400030070000200600024
:1011a0000900320061044400e0844c000988a50075
:1011b000050032008b05e8006808e10002003a00f3
:1011c0008904d1000884d300f20f20000258e10006
:1011d00005003d00c75ddd00f907b200898075009c
:1011e00008007800000006000bf827008b0078004c
:1011f00000000500c70ade00f107b200f50fb200db
:1012000008003200e1cf4200020032000170a0006d
:1012100024000500810f7000010032000408050061
:1012200044000500810f700002003a001400050020
:101230008502e9000000400081c04800fcff3b003f
:101240000170a000240005000004be00e9ff0700b3
:101250000003be000405be000200be00e5ff07005b
:10126000844f7500000006000200be006450e100db
:10127000050036006420e100020036000968a30082
:1012800001003a000800be000160a0004f0678008f
:101290004f05be004f04be0000000600f0ff2f0007
:1012a000f1ff2700f9ff3700889fbe008a9fbe002c
:1012b0008c1f7800e4ff0700ebff330003866c000f
:1012c0006450e100240032006420e1002700320075
:1012d0006150e100220032006120e1002100320073
:1012e0008b854200eb07b1000134b800003ab8002a
:1012f0000804420089844a00013ab8000030b8006e
:101300008880400009014a000400330000004000ca
:1013100081804800020149008b05e900c909dd0010
:10132000830170000100320013002000c814de00a9
:101330004814dd004709de001200b200c808de00d4
:101340000884700085ff070001f0a1000cf0a700e1
:1013500001f0a000cdff37006120e100cfff320097
:101360000801be000200be00f7ff37006150e10037
:10137000fcff3a00c9ff37006022b80006022000d7
:101380000000d0008180d2000482d2008582d20089
:101390000000a0000202520083825a0003003100c4
:1013a0000202420083824a000000a1000603e90015
:1013b000f3ff3a0000000600889fbe008a9fbe002f
:1013c00030044200b0844a0030054b0090854b0049
:1013d0006000b1000898be000a90be000440e10021
:1013e00005c8e10006d0e10007d8e10002003100a5
:1013f000680040001008e8004f05be004f04be0022
:1014000000000600889fbe008a9fbe00100478007e
:101410009004900020059000b0059000041854003e
:1014200005985c0006185d0007985d00110020001b
:101430000440e10005c8e10006d0e10007d8e10062
:10144000010039008000eb00108810004f05be003d
:101450004f04be00000006001200fa00889fbe0084
:101460008a9fbe008c9fbe00e0b79f00f1b79f002f
:1014700082bf9f0093bf9f000605be000404be000c
:101480000000eb00d0b79f00c0b79f00b0b79f002f
:10149000a0b79f0090b79f000006eb005fb19700d8
:1014a000cfb09700820141003fb097000200e000fa
:1014b00004003d00370007007e805700beff070094
:1014c00003003700330007007e805700cdff070080
:1014d000dfb697000d00e0000c0035006fb29700fa
:1014e000ffb297000fbb97009fbb97001000200032
:1014f000010020006011b8000002720081827200b9
:1015000002037300838373001b0007000c06e800ce
:1015100001042000810f5600e0ff3a000d00e000ba
:1015200004003d000802be000a03be007e80570092
:10153000a1ff07005fa897000000e00005003a0047
:101540001fb29700afb297003fb39700cfb3970099
:10155000090007006fb09700ffb097000fb9970020
:101560009fb997004f06be004f05be004f04be0056
:101570000080fa00000006000100070000000600dd
:10158000a4b79f00b5b79f00c6b79f00d7b79f000d
:10159000000006004f09de0082817100b3b79f0092
:1015a0004f01de008180400082807000a1b79f0063
:1015b0008fb097004f09de0000004000020070006d
:1015c00090b79f007fa897004f01de008180400008
:1015d0008280700081b79f000d0007004f3ade0047
:1015e0000000400004007000f0af9f0008000700fa
:1015f0000402420085824a0006034b0087834b00a9
:10160000dfff07000802be000a03be00000006005c
:101610002fb29700bfb297004fb39700dfb3970088
:1016200000000600881f780018002000881f78003e
:1016300089ff07008f87e9004f047800000006004b
:10164000801feb0084ff07008f87e9000000060081
:10165000889fbe008a9fbe00e00f5000e08f5800b8
:10166000e00f5900e08f59000c003d006044b800c5
:101670006055b8000000540081805c0002015d00ec
:1016800083815d00180020001500070008003d0060
:10169000180007000004eb00050037000004eb0011
:1016a0000f00070002003d00120007001800200094
:1016b000dcff07000800e000060032006022b800ee
:1016c0006033b8000000520081805a0002015b00c4
:1016d00083815b004f05be004f04be000000060082
:1016e000e00f5200e08f5a00e00f5b00e08f5b00dc
:1016f000000006006044b8006055b80004025400c1
:1017000085825c0006035d0087835d0000000600a3
:10171000889fbe008a9fbe008c1f7800e00f50009b
:10172000e08f5800e00f5900e08f59000d003d0098
:101730006044b8006055b8000000540081805c002f
:1017400002015d0083815d001c0020000820e10093
:1017500009a8e1000ab0e1000bb8e1000d003d006e
:10176000080037000006eb00e00f5200e08f5a003f
:10177000e00f5b00e08f5b0006003d006044b800b6
:101780006055b8000402540085825c0006035d00c9
:1017900087835d00aaff07000c00e000060032000e
:1017a0006022b8006033b8000000520081805a0007
:1017b00002015b0083815b004f0678004f05be008d
:1017c0004f04be0000000600889fbe008a9fbe0036
:1017d000841f78009cfe07004f0078001100330042
:1017e000f0ff2f00838f6c0006003b0004056500ae
:1017f0000a00a7000800370009f0a600100020002a
:1018000008003700820f5400838f5c00030039000a
:101810001000200001003e000000200009f0a70099
:101820000000ea004f05be004f04be000000e000cb
:1018300000000600881f7800030478000300e00021
:1018400007003d0060001000e080180060011900f2
:10185000e081190002003b0001f02d000300370079
:101860000400070008f0a70001f0a0004f04780072
:1018700000000600889fbe008a9fbe0000827000a4
:101880000402710004827100260032000004be00d0
:101890000200be006011b8006b0920009502200014
:1018a0000182cf000a0039000541b1000082cf005b
:1018b000070039000541b1000982cf00040039005a
:1018c0000541b1000882cf00010039000541b10097
:1018d00005425200120032000a003b008281710072
:1018e000610164008100d1000080d3008984d300ad
:1018f0000884d3008b05e8000442e800f7ff3a00b3
:10190000070037000804440089844c0000004800a8
:10191000818048008b05e9000442e900f9ff3a00a4
:101920000efe07004f05be004f04be00000006007b
:101930000900370030427800b1417800834f5200ef
:101940000400320010002000060031000080eb008f
:10195000000006000201e9000200e000f5ff3a0085
:101960000000eb0000000600800178000200370054
:10197000b15978000201e9000200e000fcff3a00e2
:1019800000000600800178000200370081597800cd
:101990000201e9000200e000fcff3a00000006003e
:1019a00080007800010178003104e000fdff3a007a
:1019b000000051000000060080017800020037009e
:1019c000845978000201e9000200e00006003200bc
:1019d000314278000404e000f9ff3a0002003700c9
:1019e0008059eb000201e9000200e000fcff3a0030
:1019f00000000600889fbe00000478000100780007
:101a00008204780088017800090178001100200024
:101a1000fc010700890f5000010032000004eb00b8
:101a2000080078004f04be00000006000000fa0025
:101a3000e88157004fb99700a1972700a0cf200059
:101a4000020007000080fa00000006006200fa00b1
:101a5000889fbe008a1f7800000578008104780006
:101a6000020478008300780080f92f000f00400006
:101a70008e0407009a979f00a9979f000000eb0033
:101a8000b09f9f001885fb008a04fb000a05ea004e
:101a90004f55de0050022000808f54000d003200b0
:101aa000e10f55000b003a000a0178008800780029
:101ab0002f9097009f91970003000100a0979f002f
:101ac0000000e0008e0032003f9897000000e80020
:101ad000b09f9f000a04440050022000808f5400f1
:101ae000040032000900e000e6ff3a003f9897004a
:101af000840037000000eb00909f9f00809f9f00b4
:101b0000f0979f00e0979f00d0979f00c0979f009d
:101b100007003700e1b52700010050000000400039
:101b200021b52700808040005f9897001100700069
:101b3000d09f9f0088047800090478003845780019
:101b40008a00fb00e0b527000c0207000000e0005f
:101b5000f0ff3a00a1c2b300814f55000e003a00d9
:101b6000cf8897000180e900c08f9f0010007800a7
:101b7000c09f9f000000e00005003d000000ea005b
:101b8000c09f9f005f9897000020a000d09f9f00fb
:101b90000904e8000f003700c09f9f000000eb0021
:101ba00005003700f2ff2700820f500002003200cc
:101bb000ea00b90000804000090478008804780039
:101bc000b900fb000103b100e98f5000f5ff3600ba
:101bd000c09f9f00e0c2b300984f10000200320087
:101be0000080eb0019003700a0c2b300d84f1000ee
:101bf00007003a00cf8897000180e900c08f9f005e
:101c000010007800a09f9f000804e8001000370033
:101c10000000eb00a09f9f008800780005003700bf
:101c2000f3ff2700830f500002003200ea00b900e2
:101c30000000410001047800880078003101fb00b9
:101c40000203b100e90f5100f5ff3600a09f9f008d
:101c5000984478008900fb00a0b42700c701070062
:101c60000000e000020032000804e8000100370034
:101c70008044eb00c97f9f0080c6b30080cf540032
:101c800004003a0098cf14000a003a006640500061
:101c900006003700c0c6b30080cf540005003a00ec
:101ca00098cf140003003a0065404000c07f9f00b9
:101cb0000804e8001801fb00e3fb2f008f814100be
:101cc00081f92f008f804000a0f92f000f00400005
:101cd000100007000000e00009003a00e1fb2f00bf
:101ce0008f804000a0f92f000f0040003303070051
:101cf0000000e000020035000804e80061ff370042
:101d00000080eb004f0578004f04be000080fa0011
:101d100000000600889fbe008a1f7800000478003b
:101d2000e0c6b300804f5100d200320015003c00e5
:101d30006b405000804f5100240032000a003c00ec
:101d400070405000804f51000b0132006540400050
:101d5000804f51007200320050c2b300804f5100da
:101d60001c013a001801370040c6b300804f5100f3
:101d70001c00320065404000804f510015013a00c0
:101d80001800370030c7b300804f5100fa0032000e
:101d900007003c0064405000804f5100600032005a
:101da0000040e800804f51000a013a00e40037008b
:101db00050c7b300804f51005900320063404000cb
:101dc000804f510003013a00550037001181e900ae
:101dd0008208780078009000808141009249780064
:101de0000201370028609000c4c6b300844f500041
:101df00008003a0011027800640052008008780060
:101e000010027800900290004fabde00860378004d
:101e10001300370014c7b300844f50000300320092
:101e2000a4c6b300844f500008003a0011027800a5
:101e3000680052008008780010027800900290003c
:101e400020039000b0039000050037001180e900e6
:101e50008008780010027800cfa2de00612bb90064
:101e6000049cbe000694be002860900081c6b300aa
:101e7000814f50000d00320021c6b300814f500049
:101e800004003a000402fb00cfa2de00612bb9007f
:101e90000800370041c7b300814f500003003200f3
:101ea000e6c04000814f500004003a00cfa2de009f
:101eb000612bb900049cbe000694be001802780095
:101ec0009802900028039000b803900078009000da
:101ed000e00f5200e08f5a00e00f5b00e08f5b00e4
:101ee00003003d0080804100d4c2b3000a003700e7
:101ef000881090000118a300030032008080410088
:101f0000b4c2b300040037000108a300540032003b
:101f10008080410004c2b300844878004e0037003e
:101f200028609000c4c6b300844f500007003a00f8
:101f300011027800640052008008780010027800d6
:101f4000900290006033b8001300370014c7b3004c
:101f5000844f500003003200a4c6b300844f5000e9
:101f600008003a00110278006800520080087800ea
:101f7000100278009002900020039000b0039000bf
:101f8000050037001180e900800878001002780011
:101f90008002eb006033b800049cbe000694be00d3
:101fa0002860900081c6b300814f50000d003200c0
:101fb00021c6b300814f500004003a000482fb00a8
:101fc0008002eb006033b8000800370041c7b3005f
:101fd000814f500003003200e6c04000814f5000a6
:101fe00004003a008002eb006033b800049cbe009d
:101ff0000694be00081090000038a30018003200bc
:10200000180278009802900028039000b80390000e
:10201000e00f5200e08f5a00e00f5b00e08f5b00a2
:102020000f00320080c7b300804f51000300320020
:1020300080c5b300804f510009003a00780090003d
:102040008080410004c3b300844878000000e800a9
:1020500080804100824878000000e8007004980009
:1020600078009000808141006304980082407800ed
:102070003e00370028619000c3c6b3001180e9001c
:10208000834f5100220032000a003c00e4c151009d
:10209000834f51002500320083c1e800834f510077
:1020a00013003200e8c15100834f51001e003a0076
:1020b0000a00370043c7b300834f51001b003200b2
:1020c000e6c14100834f510018003200e9c15100c0
:1020d000834f510014003a00050037008008780053
:1020e00010007800485c90000848780041003700f4
:1020f0008008780010007800680a9000cfa2de0007
:10210000612bb9000498be000690be00390037006c
:10211000800878001000780068099000cf91de00f8
:102120000288be00330037001180e9008008780083
:1021300010007800680c9000080878002d00370027
:102140001180e9008008780010027800cfa2de003c
:10215000612bb900049cbe000694be00780090007c
:10216000808141006304980081c7b30008007800b3
:10217000d50007001f0037001180e90080087800b3
:10218000100578006a049800d80c90000900e0005f
:1021900004003d000a00780001fe0700800478007a
:1021a00007003700090178008000eb000a00780082
:1021b000680007000000e000010032008a045000bf
:1021c000190c98000b0037007800900080814100c6
:1021d0000500370078009000808141000204e00093
:1021e00001003a0052c2b300824978000000e800c2
:1021f000700498000000eb004f0578004f04be000b
:1022000000000600889fbe008a9fbe008c9fbe0013
:102210008e1f780000067800010478000200780024
:10222000830478008881b900020778000e00e0007e
:10223000420032000800e000410032008e057800c4
:10224000c900900069009000808f500004003900a0
:1022500009007800550007000000e0002900350063
:1022600000402000190060000a0032000b017800d5
:10227000a10020000c0078003600070080067800de
:102280000d00e00006003200610516000a854600d8
:10229000040037000b0578008006eb0001003700d2
:1022a0000b05780049009000e90090008080500004
:1022b0008a8f500002003100010578008006eb0093
:1022c0000a0178008c007800a7fd07008a85550078
:1022d000490090000a004000c00498000d00e00092
:1022e0000400320009007800d60207000000e00078
:1022f00004003a000b00e000020032000a0646002b
:10230000cfff37000080200019006000020032007b
:1023100009007800cb02070000c02000190060000f
:102320000200320049009000e00498008b0557003d
:10233000110009008885d800010037000000eb007b
:102340004f0778004f06be004f05be004f04be0089
:102350000000060003003700b0cf10000500320077
:102360000201e900800178000200e000faff3a0073
:10237000000005000300780000000600020037009e
:102380000304e0000600320000017800020078003b
:10239000b041780081cf5100f9ff3a0001003700c9
:1023a0000001eb000200780000000600889fbe00dc
:1023b0008a1f780000047800c8009000680190002f
:1023c0000000eb00828f50003c00390018007800bc
:1023d0002200290002016000e20f510007003200d4
:1023e000012024000000e00001003d000120200049
:1023f000008c70000080eb003000370002002600e7
:1024000002006000820f500009003a00380090007e
:10241000808f50000600390008007800890207000c
:10242000800078000080eb000100e00023003a000b
:102430001805780000c020000000650018003a0070
:10244000a80490006002200008004000808f540023
:1024500013003a0000202000270307002004980002
:102460000000e00005003a002904980049049800a3
:102470008904e80039049800080037000a60a000c9
:102480000a0c780040049800012020008080400061
:1024900031049800400c9800500c98000702070087
:1024a00028009000500498003800900060049800c4
:1024b00000002600180c70000000eb004f057800ab
:1024c0004f04be0000000600fc874700889fbe0046
:1024d0008a9fbe008c9fbe008e1f78000006780089
:1024e00080c5b30080cf50000a0032007740400022
:1024f00080cf50000a0032006940400080cf500079
:102500000b00320010ac270080bf9f00ae002000ff
:102510000a00370002ab270082bf9f000600370089
:1025200013ac270083bf9f008e00200003003700fc
:1025300014ac270084bf9f000e0120001c0278000d
:102540009c0290002c039000bc0390000605be0086
:102550000404be0040c6b30080cf50000300320028
:102560006540400080cf50000b003a00e00f520061
:10257000e08f5a00e00f5b00e08f5b0006003d003b
:102580006000b8006011b800040450008584580051
:102590000605590087855900e80f570004003200ee
:1025a00040002000f00f57003c003a0001003700c7
:1025b00030002000e00f5400e08f5c00e00f5d0071
:1025c000e08f5d0004003a00dc0890008d012000df
:1025d0000100e000070032008e00e9008880600002
:1025e0008fba97008180420091407800f1ef9f0000
:1025f0007d012000800078008100e90005003300a3
:102600008b05d1000a85d3008984d3000884d300c8
:10261000f9ff3700089ebe000a96be00130037007f
:102620008d06e9008e00e900848060000fb99700f4
:10263000810041001141780083fd2f008d81410010
:1026400082f77900800178008301e90005003300fa
:102650008783d1000683d3008582d3000482d30010
:10266000f9ff3700049ebe000696be001c027800eb
:102670009c0290002c039000bc039000e00f5200dd
:10268000e08f5a00e00f5b00e08f5b0093003400a6
:102690000d00e000e2ff3c00900037002c6090004d
:1026a00081c6b300814f50000b00320006003c0091
:1026b0000004e00008003200e6c05000814f5000e6
:1026c00052003a0004003700c1c6b300814f5000e9
:1026d0004e003a00230037000800e00004003a00f2
:1026e0005c0890008d0120000000e000070032002f
:1026f000110009000e84d8000fba970001004200b3
:1027000010407800f0ef9f007d01200011000900cb
:102710000e84d8000b003700110009000e04d80009
:102720008d06e9008e81b900020454008fb897002d
:10273000088440009841780082fd2f000d0141007f
:1027400083777900000478000800e000020032007e
:102750000d00e000f0ff3c00cfc4de00614db90089
:1027600027003700e00f5400e08f5c0004003a00bf
:102770005c0890008d0120000000e000080032009d
:102780006171b9000800be00a20207000fba9700ed
:102790008000420091407800f1ef9f007d01200011
:1027a0006171b9000800be00f3fa07000c003700a1
:1027b0006171b9000800be00870207008d06e900bc
:1027c00080f1b900020454008fba970008844200d7
:1027d0009841780082fd2f000d0141008377790038
:1027e0000004be00e00f5000e08f580002003200ed
:1027f0000d00e000eeff3c004fcdde008a057800c2
:10280000089ebe000a96be0034003700e00f540058
:10281000e08f5c00e00f5d00e08f5d0004003a0097
:102820005c0890008d0120000000e0000a003200ea
:102830006172b900612bb9000800be000a01be0038
:102840007ffb07000fba970080004200914078009c
:10285000f1ef9f007d0120006172b900612bb9008a
:102860000800be000a01be006efb07000e00370024
:102870006172b900612bb9000800be000a01be00f8
:1028800073fb07008d06e90080f2b90004045400d0
:102890008fba9700088442009842780084fd2f0088
:1028a0000d02420085777a00009ebe000296be00af
:1028b0001c0478009c0490002c059000bc0590003e
:1028c000e00f5400e08f5c00e00f5d00e08f5d00e2
:1028d000020034000d00e000e5ff3c00e80f570067
:1028e00010003a000c1090000038a3000d003200d8
:1028f000f78f560006003e0080fd2f000d004000bf
:10290000ef40780000c3b30080cf500005003200d4
:1029100002c3b30071fd2f008d8040008d06e900d9
:1029200082f7780078811600120e98006c009000f3
:1029300083fd2f008f8141008d8041000afc07003c
:102940001c089000dc089000810f500006003d003c
:1029500000805000000e98000c1090000040a10074
:10296000001698000f0037000100e0000d003d0048
:102970008c109000f4806000f08f500009003a0045
:102980007c099000fc009000810051000c0990002f
:1029900082805000008050004240a90001003400b5
:1029a000000e98004f0778004f06be004f05be008e
:1029b0004f04be00cf01b100000006000400fa0081
:1029c000889fbe008a9fbe008c1f7800000478009c
:1029d00001067800f80d9000780090008085550081
:1029e00008089000808555001808900080855500e3
:1029f0002808900080855500380890008085550093
:102a000048089000808555000002220090bf9f007a
:102a100000032300a0bf9f00081090000028a3001f
:102a200015003a000b00e000130034000b0578009d
:102a30008a047800e20f55000100360029002000ca
:102a4000c801900009017800ee80570058009000fe
:102a500003000100500498000000e0008c003200e8
:102a60006808900009004000600c980009055500b6
:102a70004240a900eeff3c00780190000200e00017
:102a80000c003400c80190008c00780058009000c1
:102a900003000100500498008080eb000000e0007b
:102aa0007c003200e8089000780090000080400030
:102ab000600c9800880c90000900e00011003400c0
:102ac00009057800e28f5400010036002a0020003a
:102ad000c80190000a017800ec805700580090006f
:102ae00003000100500498000000e000680032007c
:102af000680890000a004000600c98008a84540026
:102b0000edff3700180990000200e0000c003400cf
:102b1000c8019000e80090005800900003000100f8
:102b2000500498008080eb000000e0005900320063
:102b3000e80890001808900000804000600c9800a1
:102b4000a80c90000900e00011003400090578008d
:102b5000e28f5400010036002a002000c8019000d6
:102b60000a017800ec805700580090000300010033
:102b7000500498000000e000450032006808900012
:102b80000a004000600c98008a845400edff370072
:102b9000380990000200e0000e003400e8009000c8
:102ba0001808900080804000c801900058009000f4
:102bb00003000100500498008080eb000000e0005a
:102bc00034003200e808900038089000008040008f
:102bd000600c9800c80c90000900e000110034005f
:102be00009057800e28f5400010036002a00200019
:102bf000c80190000a017800ec805700580090004e
:102c000003000100500498000000e00020003200a2
:102c1000680890000a004000600c98008a84540004
:102c2000edff3700081090008000eb000028a300a3
:102c3000180032000b00e000160034008b0478000e
:102c400009057800e28f5400010036002a002000b8
:102c5000c80190000a017800ee80570058009000eb
:102c600003000100500498000000e000080032005a
:102c7000680890000a004000600c98008a845400a4
:102c80004240a900eeff3c008000eb00010037004d
:102c90008080eb00010078004f0678004f05be00f1
:102ca0004f04be000080fa00000006000108780012
:102cb00000000600007021009d003700881f78008a
:102cc00088bf27001804e00003003a00f9ff07005e
:102cd00020c0b300004c78004f04780000000600cc
:102ce000889fbe00000478000800780055000700a7
:102cf0008004780000042000180060000200320008
:102d000028009000970007000000eb0020049800c6
:102d1000384090000004e000050035000000fb0092
:102d2000f2f707000000e000010032008084eb00b1
:102d3000181090000000e00008003200f4f70700cf
:102d40000000e000010032008084eb0018109000c9
:102d5000840007000000eb00101498000008200019
:102d600018006000150032000001eb006000b800a0
:102d70000202d000a39c270003024200940f14001b
:102d800005003a00000040008180480000804100ba
:102d90000008eb000600370061004000e0804800ba
:102da0000201e800e80f5000e08f5800f0ff3a0001
:102db000080078006b0007000e003700000c780058
:102dc00000c0eb0030449800600220000800400082
:102dd000200498004004980050049800400c98008b
:102de00060049800500c980070049800760044002d
:102df000000c9800090078004f04be000000060097
:102e0000881f78000004eb006140b800e2ff2f004b
:102e1000f3ff2f0002010700829d27008000410080
:102e2000110078000000e00001003200acff070054
:102e30000804e800e80f5400f3ff3a004f0478005c
:102e400000000600889fbe00000478000800e00033
:102e50000f003a008004eb008800d000a09c2700ff
:102e600000804000100078000000e0000400320004
:102e7000f4ff07000000e00001003d008084eb004b
:102e80000804e800e80f5400f3ff3a00250037007b
:102e900000002200180060008004eb0021003200d6
:102ea000a80490000f00370009015100384090003d
:102eb0000000fb0089007800bff707000000e00079
:102ec00007003c002800900040049800600498002f
:102ed000500c98001890a0008084eb00110037007f
:102ee0008084440048019000828f5400eeff390036
:102ef00028009000400498009800780002c020004c
:102f00000281600001003a003800900001e8a3004f
:102f1000020032006004980001003700500c980055
:102f20008004eb00090078004f04be00000006009a
:102f3000010020000100e0000900320001008000d3
:102f40000100e000060032008100e9000100880075
:102f50008100d0000200800082804000800878005c
:102f6000000006000000e0002f003200c0017800e1
:102f7000e38f51002c0036000308a3002a003a001a
:102f8000f1de83000100e00002003200810f5000fa
:102f90000400310011009800f0de8b0016003700ad
:102fa00082007800110190000200e000020032006f
:102fb000800f5100faff390011027800848240002e
:102fc000850f500018003900808f520003003a002e
:102fd0008308420001007800070037000200e0008b
:102fe0000300320083014000830f51000e003900be
:102ff0001200980090009800900090000100e000fe
:103000000900320010014000828f500006003a0093
:10301000c2bd27000009eb00100178001108410033
:10302000910090001100980000000600889fbe00eb
:1030300000047800e1de83000100e00002003200bd
:10304000010078000d003700f1de8300e0bd2700ad
:1030500004003700910f5400250036000180e8007d
:10306000910090000100e000faff3a0010003700e4
:10307000920f54001e0036000280e8001001780014
:103080000200e000faff3a0011017800f1de83004f
:10309000e0bd270004003700910f540014003600f3
:1030a0000180e80091009000828f5000faff3a0002
:1030b000d9df8300888f5400010031008804780034
:1030c00009007800360007000000e00004003a0024
:1030d000888f5400050032008904d100f5ff3700c5
:1030e000091878009fff0700d2ff37000000eb00af
:1030f0004f04be0000000600881f780063044000f3
:103100000800a1008000eb00800f54002100360071
:10311000e30f540001003e00480020000800780042
:10312000c2ff07008000eb000000e0001900320041
:10313000900078009101780064815100880f51005f
:1031400003003100110190000208780007003700e9
:103150000881400002087800910190001301980056
:103160001001780011091400880878001001780017
:103170000000eb000200e000040032009201900029
:103180000300e000010032000280e800e0de8b0076
:103190008180e800010078004f04780000000600fc
:1031a000800078000000eb000100e0000500340022
:1031b00001007800dff60700e10f400001003a004f
:1031c0000000eb000000060000c0da00000006006e
:1031d00000c0da0000000600839f68000100e000e4
:1031e00002003d0060001000e08018000300e000d5
:1031f00002003d0060011100e08119005ef8070047
:103200004f00e00002003b0060001000e08018006a
:103210000000060058f807000400be000000060089
:10322000020ab900001bb9000200b8008100420088
:083230008100430000000600cc
:020000040000fa
:103238000d490000276d0000204900004e54000091
:103248004552000046410000434500000d000000c3
:10325800505200004f4a000045430000542000002f
:10326800303400002e3200000d00000044650000dc
:10327800766500006c6f0000706d0000656e0000e0
:1032880074200000627900002053000045530000bc
:103298002d54000065630000680d00000048000020
:1032a8006172000064770000617200006520000010
:1032b8007665000072730000696f00006e3a0000c6
:1032c800203000002e300000322e00003230000086
:1032d800323000003038000031300000200d00008e
:1032e80000460000697200006d77000061720000fe
:1032f800652000007665000072730000696f0000a9
:103308006e3a0000203400002e3200002d490000e3
:103318002d3400002e3100002e3200000d00000078
:103328004d79000020490000503a00002025000097
:10333800642e0000256400002e250000642e000085
:10334800256400000d0000004e7500006d6f000040
:10335800664d000065740000657200003a200000a8
:10336800256400000d00000054590000504500007d
:10337800204d000065740000657200005b250000a8
:10338800645d00003a250000730d00000000000095
:1033980030000000534500004c450000435f00002a
:1033a8004d4600004d330000383400000053000043
:1033b800454c0000454300005f4500004d330000c8
:1033c800363800004300000053430000484e000018
:1033d8004549000044450000525f0000504d000080
:1033e800323100003230000000530000454c00002c
:1033f800454300005f4d0000464d00003337000094
:1034080034000000544500004e530000455f0000a2
:10341800454d000030370000004d0000494b0000ca
:10342800524f00005f440000504d00003338000048
:10343800305f0000343100003541000044000000d6
:103448004d49000054530000555f00004d450000f1
:103458003936000053530000524100005f4d000010
:1034680042000000546900006d650000206f0000f4
:10347800757400002100000025730000002500007d
:10348800730d00000043000068650000636b0000d6
:10349800737500006d20000045720000726f000017
:1034a8007221000000000000acce0000eece00004b
:1034b8000ccf00007ccf0000cccf000024cf000050
:1034c8000ed00000bece0000cace0000d6ce00004e
:1034d800e2ce000036cf000042cf00004ecf000001
:1034e80096ce00005acf00000d0a000044480000a4
:1034f800435000002f5000006f77000065720000f5
:1035080020650000766500006e740000206f0000e2
:1035180063630000757200007265000064000000bb
:10352800496e000074650000726600006163000067
:103538006500000001020000030400000506000009
:103548000f1000000102000003040000050600003f
:103558000f1000002e6c00006f630000616c00000b
:10356800000000000c000000f4010000f40100005d
:020000040000fa
:103578000200fa00004f780000bf270010407800d2
:103588009e4f50001f00320000bf270010407800f7
:10359800e24f40000b00320000bf270010407800c7
:1035a8000080fb00fe00b90080007800608a2700d8
:1035b80000804000e201200081922700b40c020044
:1035c8000000000000bf27001e4878001e40780059
:1035d800e24f40000d0032001e80fb00fe00b900e3
:1035e80080007800608a270000804000e201200007
:1035f8008000780080922700b40c020000000000d0
:103608000300370000000000010037000000000040
:103618000080fa00000006000000fa0010bf270032
:103628009040780000bf27001040780080cf5000fd
:103638002900320010bf270010407800e24f4000f8
:1036480015003200428c270010bf27001040780078
:103658000080fb00fe00b900fc004000608a2700e3
:10366800008040009040780010bf2700104078008c
:103678000080fb00fe00b90080017800608a270006
:1036880000804100100078008002b1008402200010
:1036980013c0b3002610070000bf27009040780031
:1036a80010bf270001487800409427001041780097
:1036b80040c9830081fd2f0080804000408c270096
:1036c80084022000824178000101780011c0b30013
:1036d8001710070001003700000000000080fa0002
:1036e800000006000c00fa00d04c210010079800da
:1036f800c20320008000eb00c08e2700c20c02002d
:10370800000000000040eb00004f78004a0037003e
:103718001e40780096ff07001e80fb00e600b900f7
:103728008000780060ab2900008040009040900045
:10373800414798001e80fb00e600b9008080e80041
:1037480060ab2900008040009000780031079800a5
:103758001e80fb00e600b900e400400060ab2900d1
:103768000080400090007800410798004e4090008b
:103778000080fb000000e000010032002d0037004f
:103788009e00900051079800be0090004e009000e7
:10379800808040001e00900000804000a002b00021
:1037a800100798009e009000c0ff2100808f5000f5
:1037b800fcff3e0040942700ce409000014878006e
:1037c8005e0090008002b00040c98b0041c98300b0
:1037d8003e009000008040000000e80050c98b00c7
:1037e80051c983004e0090000080400060c98b00e2
:1037f800d0002000f0c98b0000ca83000030a1006f
:1038080000ca8b0084ff07001e80fb00e600b90099
:103818008000780060ab290000804000904078006c
:10382800b08e270001487800f00907001e4fe80015
:1038380001003700ffff37001e4078000004e00059
:10384800b3ff32000080fa00000006000c00fa0006
:1038580010079800210798006247980043079800ce
:10386800244f98000040eb00004f780021003700fb
:103878001e4078003eff0700f0c98300ed0f50009e
:1038880018003a0064ff0700b08e270090407800c7
:103898002e48900080cf500014003a00802120006c
:1038a80040c78b006e4090000004e0000b003a0017
:1038b800ce009000a1c68b0000ca83000030a00093
:1038c80000ca8b0040002000f0c98b00ce00900099
:1038d80011ca8b001e4078000a003700e0cfb30001
:1038e8000800370000000000010037000000000059
:1038f8001e4fe8001e4078000004e000dcff3200a4
:10390800e0cfb3000080fa00000006000200fa00d1
:10391800004f78001e4078000004e00002003200ea
:1039280010c0b3000d0037001e40780010ff0700dc
:1039380001ca830000002100008060000000e00050
:103948000500320000ca830000c0a10000ca8b0035
:1039580010c0b300010037000040eb000080fa00ff
:10396800000006000200fa00004f78001e407800b0
:103978000004e000020032000040eb0009003700bc
:103988001e407800fafe0700f0c98300670068004f
:1039980000f0a7000000ea000000e9004f00de0088
:1039a800004078000080fa00000006000200fa00db
:1039b800004f78001e4078000004e00042003a0002
:1039c8001e407800eafe070090c98300a0c98b005a
:1039d800f0c98300e50f500012003200e50f5000d7
:1039e80006003e000000e0000e0032000080e90002
:1039f800e10f50002e003e000a003700eb0f500088
:103a080019003200eb0f500003003e00e70f500092
:103a180027003e0005003700ee0f5000210032005d
:103a280023003700710907002800370011c0b300d0
:103a380010c1b30022060700b0c683000000e000f2
:103a48000500320071c9830080c68300808f500052
:103a5800f6ff3a0001003700000000008000200057
:103a6800f0c98b001900370011c0b30010c1b300b2
:103a780013060700b0c683000000e000050032000e
:103a880071c9830080c68300808f5000f6ff3a001a
:103a98000100370000000000c0002000f0c98b00c2
:103aa8000a003700d0002000f0c98b00070037005b
:103ab8008040eb0040c1b300010607004b09070036
:103ac8000000000001003700000000000080fa003c
:103ad800000006000200fa00004f78001e4078003f
:103ae8000004e00008003a001e407800a0fe07002d
:103af80000ca83000030a10000ca8b001e40780075
:103b0800aaff070001003700000000000080fa004b
:103b1800000006000200fa00004f78001e407800fe
:103b28000004e000020032000000eb000b00370048
:103b38001e4078008efe0700b7fe0700a200200096
:103b4800a18d270060942700b40c0200000000003b
:103b580090c6830080ca8b00609427000080fa001a
:103b6800000006000200fa00004f78001e407800ae
:103b78000004e0000b003a001e4078007cfe0700bd
:103b8800a5fe070071c9830080c68300808f50009e
:103b98000500320011c0b30000c1b300c80507001a
:103ba80001003700000000000080fa000000060055
:103bb8000400fa00204798002e4090000004e0001e
:103bc800020032000000eb001d0037002e4090007c
:103bd80067fe0700f0c98300004f78001e40780098
:103be800e74f5000050032001e407800eb4f5000b0
:103bf800020032000000eb001100370071c9830099
:103c080080c98300808f50000900390051c98300a2
:103c180040c983008080500082c9830070c9830036
:103c280000005100008040000000e9000400370057
:103c380081c9830070c98300008050000000e9003a
:103c48000080fa00000006000400fa0020479800ef
:103c5800314798002e4090000004e0000200320036
:103c68000040eb00430037002e40900040fe070064
:103c78002e409000ceff0700000f78001e0078004d
:103c88000000e00002003a000040eb003900370075
:103c98001e007800e10f500002003a002e4090000c
:103ca800b0ff070001ca83000010200000806000f8
:103cb8000000e0000b003a0051c9830040c98300ae
:103cc800008050000000d1009e0f50000500390010
:103cd8002e409000a3ff070000ca83000080a000c8
:103ce80000ca8b0063014700409427009040780089
:103cf80070c983001400200013c0b3008c0e0700a5
:103d080070c983000000e80070c98b0071c9830086
:103d180050c98300808f50000200390040c98300d9
:103d280070c98b001e007800e10f500003003a00b4
:103d38002e4090008bff07000d00370001ca83005a
:103d480000022000008060000000e00008003a0047
:103d580000ca83000050a00000ca8b008cf002004b
:103d6800000000000000780079004000d0c98b00f6
:103d780010c0b3000080fa00000006000c00fa0032
:103d88006047980041079800520798000000eb0030
:103d9800100798006e4090000004e0000200320016
:103da8000000eb005d0037006e409000f0fd07005a
:103db8006e4090007eff0700200798002e009000bc
:103dc8000000e00004003a006e40900065ff070024
:103dd8000000eb0051003700ae009000010f7800a2
:103de800ae0090005e009000808f50000200360008
:103df800de009000010f780001ca83000010200047
:103e0800008060000000e0000c003a0051c9830007
:103e180040c98300008050008000d1002e0090002f
:103e2800808f5000050039006e4090004dff07005c
:103e380000ca83000080a00000ca8b0070c98300fc
:103e48009e00400050c98300808f50001300390045
:103e580051c9830070c98300008050001007980082
:103e68004e019000409427009040780070c983006c
:103e78001e02900013c0b3002d0e0700ce00900064
:103e88001e00900000804000400798001e0090002f
:103e98001e0f100040c9830070c98b004e019000ae
:103ea800409427009040780070c983001e02780073
:103eb80013c0b3001e0e070070c983001e00400027
:103ec80070c98b00ae0090005e009000808f50009b
:103ed80003003e006e40900022ff07000d003700ef
:103ee80001ca830000022000008060000000e0009a
:103ef80008003a0000ca83000050a00000ca8b00e6
:103f08008cf00200000000000000780079004000fa
:103f1800d0c98b001e0090001e0040000080fa00ef
:103f2800000006000400fa00004f7800110798000e
:103f38001e009000d00c0200000000000001780074
:103f48009e0090001e4078008cff07009e009000a5
:103f5800008040000080fa00000006000600fa0019
:103f6800404798004e4090000004e00002003200f4
:103f78000000eb000b0037004e4090007cfd07006e
:103f880051c9830040c9830000805000000fe90038
:103f98004e40900006ff0700100798001e00900092
:103fa8001e0010000080fa00000006000200fa005f
:103fb800004f78001e4078000b0007000000e0006a
:103fc800070032001e40780069fd070090c9830091
:103fd800a0c98b0011c0b30000c1b300b80407002a
:103fe8000080fa00000006000200fa00004f780086
:103ff8001e4078000004e000020032000000eb00e0
:10400800120037001e40780059fd070091c983004f
:10401800a0c98300808f50000400390091c9830033
:10402800a0c98300008050000800370061c98300e0
:10403800a0c983008080500092c9830050c98300c2
:1040480000005100008040000000e8000080fa00f5
:10405800000006000600fa00204798002107980093
:104068002e409000e0ff0700000f78001e00780047
:104078000000e00002003a000040eb002c0037008e
:104088002e4090003afd07002e0090000000e0004e
:10409800090032004094270010417800a1c983002c
:1040a8002e00900014002000824178000101780061
:1040b80011c0b3009e0d0700a0c983000000e800ee
:1040c800a0c98b00a1c9830060c98300808f5000fc
:1040d8000200360050c98300a0c98b001e0078007a
:1040e800e10f500004003a0000ca830000a0a000bd
:1040f80000ca8b000d00370001ca830000022000af
:10410800008060000000e00008003a0000ca830058
:104118000050a00000ca8b008cf0020000000000d4
:10412800000078001008b000d0c98b0010c0b300a0
:104138000080fa00000006000a00fa0040479800d4
:1041480031079800420798000000eb00000f780044
:104158004e409000a4ff0700100798001e00900032
:104168000000e00002003a000000eb0051003700b8
:104178004e409000fefc0700ce0090001e0090000c
:10418800808f5000020036009e0090004107980082
:10419800a1c983004e0090008080400060c9830060
:1041a800808f50001800360061c98300a0c98300c1
:1041b80000805000000fe8003e0090000000e00082
:1041c8000c0032004094270010417800a1c98300f8
:1041d8003e0090001e0278008241780001017800bc
:1041e80011c0b300520d07003e0090001e004000b1
:1041f800300798004e0090001e00500040079800bd
:1042080050c98300a0c98b003e0090000000e00068
:10421800090032004094270010417800a1c98300aa
:104228003e0090004e029000824178000101780023
:1042380011c0b3003e0d0700a1c983004e009000d5
:1042480000804000a0c98b004e0090001e00400076
:10425800400798009e0090004e009000808050001b
:104268004e009000808f500004003e0000ca83007a
:1042780000a0a00000ca8b000d00370001ca83000f
:1042880000022000008060000000e00008003a0002
:1042980000ca83000050a00000ca8b008cf0020006
:1042a80000000000000078001008b000d0c98b00a2
:1042b8004e0090000080fa00000006000600fa0098
:1042c800404798004e4090000004e0000200320091
:1042d8000000eb000a0037004e409000a4fc0700e5
:1042e80061c9830050c98300008f50004e40900080
:1042f8003dff0700100798001e0090001e001000e8
:104308000080fa00000006000e00fa0060479800de
:104318004107980052079800630798006e40900084
:104328000004e00003003a005e0090000000e00096
:1043380002003a000000eb00420037006e40900097
:104348008bfc07006e40900027ff070010079800bd
:10435800ee0090005e009000808040001e009000fb
:10436800808f5000040036009e0090006e00900080
:104378000080500050079800a1c983006e0090008b
:10438800008f400060c983009e0f50000500310077
:1043980061c9830050c98300008050000080ea0092
:1043a8001e0f400060c983001e0050000000e80096
:1043b80020079800de0090002e009000808f5000ab
:1043c80009003e0040942700904078004e0090007d
:1043d8005e029000814178001e01780011c0b30090
:1043e800d30c07001600370040942700904078004f
:1043f8004e0090002e029000814178001e01780046
:1044080011c0b300ca0c0700de0090002e00900017
:1044180080815000409427001041780051c98300e2
:104428004e0290002e009000000042000302780027
:10443800824178000101780011c0b300bc0c07006c
:104448005e0090000080fa00000006000600fa00f6
:104458002047980021079800ae0190001200200024
:104468008e0078002e409000a7ff07001e407800bd
:104478000080fa00000006003c00fa00007798006f
:10448800111f9800221f9800331f9800441f98009e
:10449800257f98000e7090000004e00002003200b2
:1044a8000080eb002a0137002e1890000000e00081
:1044b80002003a000000eb00250137000e70900062
:1044c8002bfc07000e709000c7fe0700be18900076
:1044d80001005000100798009e0090002e189000d0
:1044e800808f5000020031000080eb001801370077
:1044f8004e1890000000e000060032009e00900078
:104508004e189000808f500002003600ce189000a0
:1045180011079800a1c983003e1890000080400050
:104528003007980061c983003e009000808f5000da
:104538000700310061c9830050c983000080500022
:104548000080ea00be00900000804000300798001c
:10455800be009000010f780061c983003e00900002
:10456800008050000000e80020079800be18900066
:1045780031079800ae189000610798009e189000c7
:10458800710798001e18900090407800114f98000d
:104598001e1890000000e800101f98000040eb0073
:1045a800304f98002e7890000004e0000c00320094
:1045b8009e48900000c6b30080cf50000800360027
:1045c8009e489000a0c7b30080cf500004003e0072
:1045d8009e48900000ceb30000c04000104f9800e5
:1045e80000c2b300204f98002e4890008080fb0046
:1045f8002e009000808f5000020036002e009000a0
:10460800204f98002e4890008080fb001e009000ec
:10461800808f5000020036001e009000204f980046
:104628002e4890000081fb004094270090407800bd
:104638007000470002027800814178001e0178006e
:1046480011c0b3003a0c07002e4890000080fb0010
:104658001e0f40002e4890000080fb00ae00900026
:1046680000805000200798002e0090000000e00015
:1046780004003a0051c98300010f78000080eb0064
:10468800200798002e7890000004e00068003200af
:104698000040eb00004f9800600037000e48900083
:1046a8000080fb0070004000ee40780000c6b300b8
:1046b80080cf5000110036000e4890000080fb00ab
:1046c80070004000ee407800a0c7b30080cf5000d3
:1046d8000a003e000e4890000080fb008e489000c3
:1046e8008180fb00f08040006ec1780001ceb300ed
:1046f8008140410070004000017778000e4890002a
:104708000080fb0070004000ee4078001e489000da
:1047180080cf500023003a002e1890000000e900d6
:10472800201f98002e1890000000e00008003a00b2
:10473800be0090006e009000808050000e489000ef
:104748000080fb00008040000000e8008000370087
:104758001e18900090407800114f98001e18900085
:104768000000e800101f980010c0b300304f9800f8
:104778009e48900000c6b30080cf50002400360049
:104788009e489000a0c7b30080cf500020003e0094
:104798009e48900000ceb30000c04000104f980023
:1047a8001b003700ee009000211f98003e48900043
:1047b8000004e00016003200fe009000111f98006f
:1047c8001e18900090407800114f98001e18900015
:1047d8000000e800101f98009e48900000c6b30033
:1047e80080cf5000080036009e489000a0c7b30054
:1047f80080cf500004003e009e48900000ceb300d9
:1048080000c04000104f98000040eb00304f980067
:104818000e4890000040e800004f98008e48900035
:104828002e48900080cf50009cff39003700370099
:104838000040eb00004f9800300037000e48900011
:104848000080fb0070004000ee4078001e48900099
:1048580080cf500017003a002e1890000000e900a1
:10486800201f98002e1890000000e00008003a0071
:10487800be0090006e009000808050000e489000ae
:104888000080fb00008040000000e8003000370096
:104898001e18900090407800114f98001e18900044
:1048a8000000e800101f980010c0b300304f9800b7
:1048b8000f003700ee009000211f98003e4890003e
:1048c8000004e0000a003200fe009000111f98006a
:1048d8001e18900090407800114f98001e18900004
:1048e8000000e800101f98000040eb00304f9800cf
:1048f8000e4890000040e800004f98008e48900055
:104908002e48900080cf5000ccff39002e489000f0
:104918000080fb009e009000008050001007980067
:104928009e0090002e189000808f500002003100e9
:104938000080eb00060037002e4890000080fb0046
:10494800be009000008040003007980024ff370028
:104958000080fa00000006000800fa00004f780006
:104968001147980012079800230798006447980099
:104978000e00e800ee4290002e0290009e0190008a
:1049880012002000800078001e407800bafe070060
:104998000080fa00000006000600fa00881f780070
:1049a8000040eb00004f7800ad0137001e40780052
:1049b800effa07000040eb00304798000040eb009a
:1049c800104798000040eb002047980001ca830078
:1049d80000202000008060000000e00005003a0090
:1049e80001ca830000402000008060000000e00051
:1049f8000f0032003a610200000000000004e000ed
:104a08000b00320000c1b3003047980000ca830091
:104a18004a00de00614060000080fb0000f0a70053
:104a28000000ea000000ea004f00de00104798008e
:104a380001ca830000022000008060000000e0003e
:104a480009003200d8c983008cf002000000000081
:104a580000007800000054000000e00002003c0064
:104a680000c1b3003047980001ca83000004200049
:104a7800008060000000e00009003200e8c98300ff
:104a88008cf00200000000000000780000005400d4
:104a98000000e00002003c0000c1b300304798006d
:104aa800f0c98300eb0f50000b003a00e8c98300ff
:104ab8008cf00200000000000000780000005400a4
:104ac8000000e00004003c0010c1b300304798002b
:104ad800c0002000f0c98b00f0c98300e40f50002b
:104ae8005e003a000000eb002007980056003700ef
:104af8002e009000f400b900f0004000c08e27009e
:104b080000804000100078000000e00052003200f1
:104b18002e009000f400b900f0004000c08e27007d
:104b2800008040009000780010ca8300808f5000f9
:104b380042003a00b8fa07002e009000f400b900cd
:104b480080007800c08e270000804000a20020006e
:104b580080007800a08d2700b40c0200000000003f
:104b68002e009000f400b900ea004000c08e270033
:104b7800008040001000780090c68b002e00900046
:104b8800f400b900ec004000c08e2700008040000f
:104b9800900090001000780061004000e08048001c
:104ba80060c68b0071c68b00e1c68300d0c6830047
:104bb8008080400090c6830080804000a0c68300ab
:104bc8000080680010ca8b0020c1b30030479800ed
:104bd80060002000f0c98b00ae009000c0fe2f00de
:104be8008088b90082022000000141002e00900058
:104bf8000000e800f400b90080007800c08e2700ab
:104c080000804000800078002e009000f400b90079
:104c180080017800c08e27000080410002027800e1
:104c280013c0b3000101780011c0b300c00a070027
:104c38000000eb0020c98b00080037002e00900010
:104c48000000e800200798002e009000e20f5000b6
:104c5800a7ff360001003700000000003e4090002a
:104c68000004e000090032001e4090000004e0004b
:104c7800020032000040eb000100370010c0b30012
:104c8800804078003e4090008d01070000ca8300f4
:104c9800700060000000e0002d003a00f0c98300b9
:104ca800e70f5000e6003a005af00200000000004a
:104cb8000001be00b0c98300c1c9830000005100d3
:104cc80081805900e00f5000e08f5800de00350069
:104cd80000ca830067006000e60f50000e003a002b
:104ce80000ca83004300de0061406000304798003e
:104cf8001e4078002dfb07001e4078002bfb0700a4
:104d08003e4090000004e000d1003a00e00020009e
:104d1800f0c98b00d10037003ffa070021c0b3006b
:104d280000c1b300660107005af00200000000004d
:104d38000001be00a02424009101200002004000d0
:104d480083804800b0c98b00c1c98b00c3003700fd
:104d58005af00200000000000001be00b0c9830044
:104d6800c1c983000000510081805900e00f500044
:104d7800e08f5800b800350027fa0700f0c9830013
:104d8800e80f500045003200e80f500007003e00d1
:104d9800e60f50001e003200e60f500031003e00c2
:104da800e50f50000a0032006c003700ea0f50008f
:104db8004d003200ea0f500046003900eb0f50005a
:104dc80028003200ec0f5000550032006300370015
:104dd80020c0b3003047980010c0b30010479800b7
:104de800a08e270010407800e34f50005a0036008c
:104df800a08e270041c0b3000148780000a126001a
:104e08008102200020c68b0031c68b00530037007a
:104e1800a08e270010407800e14f500005003e00aa
:104e280020c1b3003047980010c0b3001047980065
:104e38004a00370000ca8300680060000000e000f4
:104e48000500320040c1b3003047980010c0b300dd
:104e5800204798004100370020c0b3003047980031
:104e68003e003700a08e270010407800e44f500025
:104e780005003e0000c1b3003047980010c0b300e1
:104e8800104798003500370080002000f0c98b00db
:104e980010c1b3003047980030003700a08e2700bb
:104ea80010407800e44f500005003e0010c1b300e8
:104eb8003047980010c0b30010479800270037000b
:104ec80040c1b3003047980010c0b3002047980095
:104ed8002200370040c1b3003047980010c0b3002b
:104ee800204798001d003700a08e2700104078004a
:104ef800e44f500005003e0000c1b3003047980061
:104f080010c0b300104798001400370040c1b30028
:104f18003047980010c0b300204798000f003700b2
:104f2800a08e270010407800e44f500005003e0096
:104f380010c1b3003047980010c0b3001047980064
:104f48000600370040c1b3003047980010c0b300d6
:104f58002047980001003700000000003e40900004
:104f68000004e000310032001e4090000004e00020
:104f78002b003200a08e2700104078008040e80007
:104f8800a08e27000148780020c6830031c6830020
:104f9800000040008180480020c68b0031c68b008d
:104fa80081c6830080c983000080500020079800d4
:104fb80081c6830080c98300808f500006003100bd
:104fc80051c9830040c9830000805000ae009000a2
:104fd800008040002007980042c6830053c6830023
:104fe8002e0090008000eb000000510081805900e5
:104ff80040c68b0051c68b00b1c683002e009000be
:1050080000804000b0c68b0080c9830080c68b003a
:105018008040eb003e409000a900070003003700e5
:1050280011c0b3003e409000a50007002e4090003c
:105038000004e00009003200ec0307000700370015
:1050480000000000050037000000000003003700e2
:105058000000000001003700000000001e4fe800bb
:105068001e4078000004e00050fe32000000eb0013
:1050780020079800330037002e009000f400b90094
:10508800f0004000c08e270000804000100078002b
:105098000000e0002f0032008cf002000000000049
:1050a800800078002e009000f400b90072014000e2
:1050b800c08e27000000410010007800808050005a
:1050c80060bc2400808f50001b003600ae009000aa
:1050d800c0fe2f008088b900820220000001410034
:1050e8002e0090000000e800f400b900800078006d
:1050f800c08e270000804000800078002e009000bd
:10510800f400b90080017800c08e270000804100bb
:105118000202780013c0b3000101780011c0b30087
:10512800830907000000eb0020c98b002e009000c7
:105138000000e900200798002e0090000000e80019
:10514800200798002e009000e20f5000caff36009a
:1051580001003700000000004f0478000080fa00ca
:10516800000006002c00fa0030179800411798003c
:10517800521798003e1190009281fb001242900055
:105188000482fb004822dd0084817100030078005e
:10519800a24190008381fb00324190000281fb0014
:1051a8004811dd000281710082007800300f9800fc
:1051b800410f98004e109000100178009001900067
:1051c800520f9800630f98000040eb00605f980052
:1051d80060c0b300705f9800de119000031798005c
:1051e8000e109000e4a402000000000000179800d0
:1051f80076004700c10020005ea502000000000004
:105208000080ea00101798005e1090004e650200ba
:1052180000000000201798009e1090002e109000ab
:10522800808f50000400320052610200000000002c
:1052380010c0b300200037000000eb00a6ea02000f
:10524800000000000e80e800410120003a680200da
:10525800000000000e80e800320307007e00900086
:105268004400de006f40600080407800200020008d
:105278000008dd00744f50001e80fb00de10900017
:105288000080500074005000501798000e80e8000d
:10529800be1090000a0207000004e000030032007c
:1052a8000e80e800de1090000f0407005261020033
:1052b8000000000010c0b3000080fa0000000600e3
:1052c8002a00fa00006f9800116f9800d2f80700c2
:1052d8000e6890000080fb006100600000407800cc
:1052e8000004e0000600320000ca830000b0a000fd
:1052f80000ca8b000e6890000004a100006f98009f
:1053080000ca83000050a10000ca8b0000ca8300b5
:105318000060a10000ca8b0000ca83000070a100d1
:1053280000ca8b0000ca83000090a10000ca8b004d
:1053380000ca830000a0a10000ca8b0000ca830035
:105348000080a10000ca8b00000000003a61020042
:10535800000000000004a2000004e000fbff3a0087
:105368000e6890000080fb00660060000000e0000e
:10537800030032000000eb00000f78007c003700cb
:1053880071c9830080c68300808f500003003a00f3
:105398000000eb00000f78006700370071c9830038
:1053a80080c68300808f50001d00360071c98300bd
:1053b80080c68300008f5000b0c683009e0f500047
:1053c80002003100b1c68300010f780040c7830096
:1053d8009e0f50000500310042c78300020f78007d
:1053e80000ca830000a0a00000ca8b0040942700d8
:1053f8009040780080c683001e02780081417800c2
:10540800000178008040eb0020f12000c808070068
:1054180080c683001e00400080c68b00460037000f
:1054280051c9830080c6830000805000301798005f
:10543800be10900070c983008080400040c983007e
:10544800008f5000b0c683009e0f5000020031004c
:10545800b3c68300030f780040c783009e0f500037
:105468000500310041c78300010f780000ca83009e
:1054780000a0a00000ca8b003e1090009e0f5000b4
:10548800020036001e017800321798003e11900085
:10549800409427009040780080c68300020278007c
:1054a80081417800000178008040eb0020f1200065
:1054b8009f0807003e1090001e001000301798004b
:1054c8003e1090000000e0000e003200be11900077
:1054d800409427001041780041c9830054c98300d3
:1054e80080c683000002520020f120000000420024
:1054f8000302780082417800010178008040eb00c7
:105508008b08070080c683001e00400080c68b0001
:1055180081c6830050c98300808f5000060039007f
:1055280081c6830042c9830050c98300000051002e
:105538000080400080c68b0001ca830000802000e4
:10554800008060000000e00009003200b0c683005f
:105558009e0f50000600320040c783009e0f500087
:10556800030032000e6890000004a000006f98004d
:105578001e0078000000e00005003a000e68900068
:105588000080fb00630060000000e00023003200a0
:10559800b0c683001e005000b0c68b001e00780005
:1055a8000000e000030032000e6890000034a00004
:1055b800006f98001e6890000080fb00610060008a
:1055c800004078000004e00007003200a08e2700a9
:1055d8008040eb0001487800106a28002100200074
:1055e80020c68b0031c68b005af002000000000074
:1055f8000001be0020c6830031c6830002004000bf
:1056080083804800b0c98b00c1c98b0000ca8300e1
:105618000040a00000ca8b003a0037001e689000c6
:105628000080fb00620060000000e000140032000f
:1056380000ca8300674060000040e80067406000df
:105648000080fb006700600002ca830081ff2f0012
:10565800810061000100700000ca8b0040c6830011
:1056680051c6830061005000e080580040c68b009e
:1056780051c68b0010002000000f78002100370071
:1056880000ca8300700060000000e0001d003200c6
:105698001e6890000080fb00610060000000e000d0
:1056a8000f003a00a08e2700104078000004e000a8
:1056b8000b003200a08e2700104078008040e900df
:1056c800a08e27000148780020c6830031c68300d9
:1056d8008100d1000080d30020c68b0031c68b002a
:1056e8005af00200000000000001be0020c683003e
