:020000040000fa
:080000000002040000000000f2
:020000040000fa
:040008009c04000054
:020000040000fa
:04000c00b404000038
:020000040000fa
:04001000d204000016
:020000040000fa
:04001400a60400003e
:020000040000fa
:04001800be04000022
:020000040000fa
:04001c00c804000014
:020000040000fa
:04002000dc040000fc
:020000040000fa
:040024007206000060
:020000040000fa
:04002800720600005c
:020000040000fa
:04002c007206000058
:020000040000fa
:040030007206000054
:020000040000fa
:040034005a06000068
:020000040000fa
:04003800720600004c
:020000040000fa
:04003c007206000048
:020000040000fa
:040040007206000044
:020000040000fa
:04004400e8050000cb
:020000040000fa
:04004800720600003c
:020000040000fa
:04004c007206000038
:020000040000fa
:040050007206000034
:020000040000fa
:04005400640500003f
:020000040000fa
:04005800020500009d
:020000040000fa
:04005c007206000028
:020000040000fa
:040060007206000024
:020000040000fa
:040064007206000020
:020000040000fa
:04006800720600001c
:020000040000fa
:04006c007206000018
:020000040000fa
:040070007206000014
:020000040000fa
:040074007206000010
:020000040000fa
:04007800720600000c
:020000040000fa
:04007c007206000008
:020000040000fa
:040080007206000004
:020000040000fa
:040084007206000000
:020000040000fa
:0400880072060000fc
:020000040000fa
:04008c0072060000f8
:020000040000fa
:0400900072060000f4
:020000040000fa
:0400940072060000f0
:020000040000fa
:0400980072060000ec
:020000040000fa
:04009c0072060000e8
:020000040000fa
:0400a00072060000e4
:020000040000fa
:0400a40072060000e0
:020000040000fa
:0400a80072060000dc
:020000040000fa
:0400ac0072060000d8
:020000040000fa
:0400b00072060000d4
:020000040000fa
:0400b40072060000d0
:020000040000fa
:0400b80072060000cc
:020000040000fa
:0400bc0072060000c8
:020000040000fa
:0400c00072060000c4
:020000040000fa
:0400c40072060000c0
:020000040000fa
:0400c80072060000bc
:020000040000fa
:0400cc0072060000b8
:020000040000fa
:0400d00072060000b4
:020000040000fa
:0400d40072060000b0
:020000040000fa
:0400d80072060000ac
:020000040000fa
:0400dc0072060000a8
:020000040000fa
:0400e00072060000a4
:020000040000fa
:0400e40072060000a0
:020000040000fa
:0400e800720600009c
:020000040000fa
:0400ec003c060000ce
:020000040000fa
:0400f0001e060000e8
:020000040000fa
:0400f4007206000090
:020000040000fa
:0400f800720600008c
:020000040000fa
:0400fc007206000088
:020000040000fa
:040100007206000083
:020000040000fa
:04010400720600007f
:020000040000fa
:04010800720600007b
:020000040000fa
:04010c007206000077
:020000040000fa
:040110007206000073
:020000040000fa
:04011400720600006f
:020000040000fa
:04011800720600006b
:020000040000fa
:04011c007206000067
:020000040000fa
:040120007206000063
:020000040000fa
:04012400720600005f
:020000040000fa
:04012800720600005b
:020000040000fa
:04012c00d2050000f8
:020000040000fa
:040130007206000053
:020000040000fa
:04013400720600004f
:020000040000fa
:04013800720600004b
:020000040000fa
:04013c007206000047
:020000040000fa
:040140007206000043
:020000040000fa
:04014400720600003f
:020000040000fa
:04014800720600003b
:020000040000fa
:04014c007206000037
:020000040000fa
:040150007206000033
:020000040000fa
:04015400720600002f
:020000040000fa
:04015800720600002b
:020000040000fa
:04015c007206000027
:020000040000fa
:040160007206000023
:020000040000fa
:04016400720600001f
:020000040000fa
:04016800720600001b
:020000040000fa
:04016c008604000005
:020000040000fa
:04017000180400006f
:020000040000fa
:04017400b6030000ce
:020000040000fa
:04017800720600000b
:020000040000fa
:04017c007206000007
:020000040000fa
:040180007206000003
:020000040000fa
:0401840072060000ff
:020000040000fa
:0401880072060000fb
:020000040000fa
:04018c0072060000f7
:020000040000fa
:0401900072060000f3
:020000040000fa
:0401940072060000ef
:020000040000fa
:0401980072060000eb
:020000040000fa
:04019c0072060000e7
:020000040000fa
:0401a00072060000e3
:020000040000fa
:0401a40072060000df
:020000040000fa
:0401a80072060000db
:020000040000fa
:0401ac0072060000d7
:020000040000fa
:0401b00072060000d3
:020000040000fa
:0401b40072060000cf
:020000040000fa
:0401b80072060000cb
:020000040000fa
:0401bc0072060000c7
:020000040000fa
:0401c00072060000c3
:020000040000fa
:0401c40072060000bf
:020000040000fa
:0401c80072060000bb
:020000040000fa
:0401cc0072060000b7
:020000040000fa
:0401d00072060000b3
:020000040000fa
:0401d40072060000af
:020000040000fa
:0401d80072060000ab
:020000040000fa
:0401dc0072060000a7
:020000040000fa
:0401e00072060000a3
:020000040000fa
:0401e400720600009f
:020000040000fa
:0401e800720600009b
:020000040000fa
:0401ec007206000097
:020000040000fa
:0401f0007206000093
:020000040000fa
:0401f400720600008f
:020000040000fa
:0401f800720600008b
:020000040000fa
:0401fc007206000087
:020000040000fa
:040200007206000082
:020000040000fa
:04020400720600007e
:020000040000fa
:04020800720600007a
:020000040000fa
:04020c007206000076
:020000040000fa
:040210007206000072
:020000040000fa
:04021400720600006e
:020000040000fa
:04021800720600006a
:020000040000fa
:04021c007206000066
:020000040000fa
:040220007206000062
:020000040000fa
:04022400720600005e
:020000040000fa
:04022800720600005a
:020000040000fa
:04022c007206000056
:020000040000fa
:040230007206000052
:020000040000fa
:04023400720600004e
:020000040000fa
:04023800720600004a
:020000040000fa
:04023c007206000046
:020000040000fa
:040240007206000042
:020000040000fa
:04024400720600003e
:020000040000fa
:04024800720600003a
:020000040000fa
:04024c007206000036
:020000040000fa
:040250007206000032
:020000040000fa
:04025400720600002e
:020000040000fa
:04025800720600002a
:020000040000fa
:04025c007206000026
:020000040000fa
:040260007206000022
:020000040000fa
:04026400720600001e
:020000040000fa
:100400006f0727000eff27000e0188000000000084
:10041000000020000000e000020032000001200087
:100420002002880014000700810207000000e0009d
:1004300003003a00e0ab2200110020000200370068
:100440000000200001002000810f70000100320038
:100450000f000700000020000000e0000200320052
:1004600000000200000000003e3a0200010000000f
:100470000040da000000fe00001a20000000e0004a
:1004800002003200002020009001880000000600d9
:10049000a1028800800478000000eb001f003700f4
:1004a000e284440054a0b4009905ba00e2844400f8
:1004b00054a0b4009906ba00e284440054a0b400e9
:1004c0000006eb00476fde00fd07b200ae018800ba
:1004d000636ce10003003a000ad801000000eb0061
:1004e0000e003700606ce10008003a00004deb00a0
:1004f0000a05e800020039003420ec000af0a000f0
:100500008b05e900f9ff3e00040037006168e10057
:10051000010032000086eb000b00070019c7ba008b
:100520000e04e0001905ba0003003a000a00e000da
:10053000dbff3a0000000600fe07b200ae028800b2
:100540008a047800f5ff37000cd0a300e20f4d00bd
:100550001c00390089027800354dba000a05e80010
:10056000020039003420ec000af0a0008b05e900fd
:100570000f003200254dba000a05e80002003900dc
:100580003420ec000af0a0008b05e90008003200de
:100590000c00e0000600320015cdba000a05e800a4
:1005a000020039003420ec000af0a0008b05e900bd
:1005b0008984e80054a0b4000b00e000e2ff3a0098
:1005c000000006009902ba00055d78008b05e9007d
:1005d000f7ff3200c82ade00055d78008b05e900d0
:1005e000f3ff32000c00e000f1ff320019ddba0029
:1005f000eeff3700b811040001000000c211040032
:1006000001000000ae110400010000007e11040092
:1006100001000000da0f0400010000001c100400bb
:10062000010000003a10040001000000aa100400bc
:100630000100000004110400010000005210040039
:10064000010000005011040001000000ec0f040044
:1006500001000000f80f0400010000000410040075
:1006600001000000101004000100000064100400ec
:100670000100000070100400010000007c10040064
:1006800001000000c40f04000100000088100400f5
:10069000010000004426040001000000083d0400a1
:1006a00001000000dc2604000100000058270400bf
:1006b00001000000ba27040001000000182804000f
:1006c00001000000921d040001000000b01d0400a4
:1006d00001000000ac20040001000000ca2004005a
:1006e000010000002c390400010000000c17040078
:1006f0000100000044170400010000002817040056
:100700000100000040180400010000004c19040022
:1007100001000000b8d804000000000024a5040077
:1007200000000000480a0400010000009693040045
:1007300000000000c47e04000000000020e104006e
:1007400000000000e0630400000000003e330400ed
:1007500001000000440d040000000000bc1704006c
:100760000000000000000400000000003600f80057
:10077000809fbe00829fbe00849fbe00869fbe00f9
:100780000000fa00003983000000e000020032009f
:1007900000398300000001003129830020298300f3
:1007a000808f500002003a002a68a9001900370023
:1007b0000a68a900100037003029830090407800b3
:1007c0008180fb00a11288000000e80030298b0026
:1007d0003129830040622600808f500002003a00d9
:1007e0009052260030298b00312983002029830074
:1007f000808f5000060032009112800000202000ff
:10080000008060000000e000ebff320001003700d4
:10081000000000000080fa004f03be004f02be003f
:100820004f01be004f00be003600f9000040060038
:100830003600f800809fbe00829fbe00849fbe00ed
:10084000869fbe000000fa00103983000000e0001f
:100850000200320010398300000001000a48a9009c
:100860001f00370000298300b1128000814078000a
:100870000148780001298300e0712600808f500034
:1008800009003200002983008000e800102983005d
:10089000808f500004003200002983000000e8002f
:1008a00000298b000e00370001298300e07126002b
:1008b000808f500007003a00112983004062260013
:1008c000808f5000030032004062260000298b0018
:1008d000030037008052260011c0b30001487800a1
:1008e00090128000610060000000e000ddff3a002f
:1008f0000080fa004f03be004f02be004f01be0051
:100900004f00be003600f90000400600801f78004e
:100910000000fa0090128000620060000000e00019
:10092000010032005222a9000a28a9000080fa0022
:100930004f007800004006003600f800c028a900eb
:100940000000eb005e3d0200010000003600f800f0
:10095000663d020001000000c048a9001000200010
:100960005e3d0200010000003600f800c068a900ea
:10097000200020005e3d0200010000003600f8006b
:10098000c088a900300020005e3d02000100000088
:100990003600f800c0a8a900400020005e3d02001b
:1009a000010000003600f800c608a9007000200011
:1009b0005e3d0200010000003600f8002146800084
:1009c00000022000008060000000e000040032000f
:1009d000c4a8a900900020005e3d020001000000b4
:1009e00020468000700060000000e000040032003b
:1009f000c488a900a00020005e3d020001000000a4
:100a0000ffff37003600f800809fbe00829fbe00c7
:100a1000849fbe00869fbe000000fa00204983002c
:100a20000000e000020032002049830000000100c5
:100a30005139830040398300808f500002003a0012
:100a40002188a900190037000188a900100037008b
:100a500050398300904078008180fb00211188008c
:100a60000000e80050398b00513983008082260055
:100a7000808f500002003a00d072260050398b005f
:100a80005139830040398300808f500006003200c6
:100a90001111800000202000008060000000e000b4
:100aa000ebff320001003700000000000080fa0078
:100ab0004f03be004f02be004f01be004f00be00fc
:100ac0003600f900004006003600f800809fbe00a6
:100ad000829fbe00849fbe00869fbe000000fa0079
:100ae000304983000000e0000200320030498300fa
:100af000000001000168a9001f00370020398300b1
:100b0000311180008140780001487800213983004c
:100b100020922600808f5000090032002039830087
:100b20008000e80030398300808f500004003200dc
:100b3000203983000000e80020398b000e003700c8
:100b40002139830020922600808f500007003a0050
:100b50003139830080822600808f500003003200ec
:100b60008082260020398b0003003700c0722600e7
:100b700011c0b300014878001011800061006000ce
:100b80000000e000ddff3a000080fa004f03be00e5
:100b90004f02be004f01be004f00be003600f900fc
:100ba00000400600801f78000000fa00101180004d
:100bb000620060000000e000010032002222a90073
:100bc0000828a9000080fa004f00780000400600c5
:100bd0003600f800809fbe00829fbe00849fbe004a
:100be000869fbe000000fa00d08183000000e00074
:100bf00002003200d081830000000100d0032700f2
:100c0000104078008040e800d003270001487800b9
:100c1000c003270011c0b3000148780000e8a90014
:100c20000080fa004f03be004f02be004f01be001d
:100c30004f00be003600f900004006003600f80004
:100c4000809fbe00829fbe00849fbe00869fbe0024
:100c50000000fa0050818300000001000080fa00cb
:100c60004f03be004f02be004f01be004f00be004a
:100c70003600f900004006003600f800809fbe00f4
:100c8000829fbe00849fbe00869fbe000000fa00c7
:100c900060818300000001000080fa004f03be0065
:100ca0004f02be004f01be004f00be003600f900eb
:100cb00000400600809fbe000000fa000081830013
:100cc0001181830061004000e080480000818b00ba
:100cd00011818b000068a9000080fa004f00be005f
:100ce000004006000040da000000fe000a00fa00a2
:100cf00011002000b1bf9f00c0bf9f006a80570055
:100d0000a80907004fb897000080fa00000006000d
:100d10000a00fa0051002000b1bf9f00c0bf9f0031
:100d20006a805700a10907005fb897000080fa00a9
:100d300000000600889fbe0080047800a083830026
:100d40000000e00004003a000e0007000084eb0001
:100d50000000e00008003500a88383000900e000df
:100d60000500320009004400060007000000e00012
:100d700001003d000084eb00080078004f04be0035
:100d800000000600800078000100e00003003a0047
:100d900000002000a0838b00000005000080eb0015
:100da00002002000828f500002003e00a1838b00d1
:100db0000000eb00000006000a00fa00200798007f
:100dc0003107980042079800be0090001107980074
:100dd0000000eb00000f78000e003700000000005c
:100de000221e0200010000000004a2000004e00036
:100df000fbff3a001e009000104078009e0090001b
:100e00008100e80011079800e21d020001000000c7
:100e10001e0fe8004e0090009e007800808f50006a
:100e2000eeff39004e0090000080fa00000006003e
:100e30000000050003f0a200889fbe008a9fbe004c
:100e40008c1f780000010700070133006450e100a7
:100e50004f0032006420e1005200320003826c0037
:100e600007003b000905d0000306d000820f5400a4
:100e70000c065d0002003900020032008901780092
:100e8000030678008582550004003d000003fd0044
:100e90008103fd008502ea008b854200840f720009
:100ea00002003b0060001000e08018006011b800f4
:100eb0000005eb007a28e1000a00390006007800fe
:100ec000c75ddd00f707b200878075002d00370091
:100ed000828171000a017800610560008180d10083
:100ee0000080d3008502e900f9ff3b0006044000c2
:100ef0008784480002003b0060041400e0841c006a
:100f00000988a300070032008a8171008281710084
:100f1000610164008904d1000884d3008b05e800d6
:100f2000170037000978a30013003a000b00e00017
:100f3000130034008b05e9000804440089844c0048
:100f40000a4474000978a3000d003a000b00e00089
:100f5000070034008b05e9000804440089844c0034
:100f600001003a000b0020000978a300f7ff3200cf
:100f70000001eb0002003700828171000a01780055
:100f8000760007000cf0a70001f0a000bf003700ba
:100f90006420e10002003a00838f6c00bf00330040
:100fa0000801be000200be00b8003700889fbe00e6
:100fb0008a9fbe008c1f7800a3000700aa003300a0
:100fc00003866c006450e1002e0032006420e100d2
:100fd000330032006150e1002f0032006120e10057
:100fe0003100320085855500eb07b0000900200074
:100ff00008042000050037000804440089844c00e0
:101000000a0031000603430087834b0000015300b0
:1010100081815b00f8ff33000203be000800a000de
:101020000804440089844c00f6ff3900c639dd000d
:101030008301730001003200130020008904d100f5
:101040000884d3000998a300050032000800a70017
:101050000300a0008904d1000884d3008b05e800b8
:101060008904d1000884d3000001eb000281d20082
:101070003a00070001f0a1000cf0a70001f0a00069
:10108000820037006420e100840032000801be00c5
:101090000200be00f7ff37006120e1007f00320050
:1010a0006000b800f3ff37000000200001f82700bf
:1010b000f0ff370014002000c3013700f4ff2f00b9
:1010c000c10137000001be004a0007000470a700fc
:1010d00003f0a1006509b100160032000d003500d3
:1010e0006828e10006003500f0ff2f00f1ff27001f
:1010f0000300e00013003b00010028000000050091
:1011000000004000818048008502e900fcff3a00b1
:1011100008003700f88f420002003c008000eb001e
:10112000000005008100d1000080d3008502e800a6
:10113000fcff3a000300e00002003b0060001000ea
:10114000e0801800000006004f89de008201780070
:10115000b80137006011b800c601370081002000d7
:10116000618055000b003d000b00200061fe2f0048
:101170000100e1001d003400828171006101640002
:101180008904d1000884d3000000e800faff3a0087
:101190007100200061006400030070000200600024
:1011a0000900320061044400e0844c000988a50075
:1011b000050032008b05e8006808e10002003a00f3
:1011c0008904d1000884d300f20f20000258e10006
:1011d00005003d00c75ddd00f907b200898075009c
:1011e00008007800000006000bf827008b0078004c
:1011f00000000500c70ade00f107b200f50fb200db
:1012000008003200e1cf4200020032000170a0006d
:1012100024000500810f7000010032000408050061
:1012200044000500810f700002003a001400050020
:101230008502e9000000400081c04800fcff3b003f
:101240000170a000240005000004be00e9ff0700b3
:101250000003be000405be000200be00e5ff07005b
:10126000844f7500000006000200be006450e100db
:10127000050036006420e100020036000968a30082
:1012800001003a000800be000160a0004f0678008f
:101290004f05be004f04be0000000600f0ff2f0007
:1012a000f1ff2700f9ff3700889fbe008a9fbe002c
:1012b0008c1f7800e4ff0700ebff330003866c000f
:1012c0006450e100240032006420e1002700320075
:1012d0006150e100220032006120e1002100320073
:1012e0008b854200eb07b1000134b800003ab8002a
:1012f0000804420089844a00013ab8000030b8006e
:101300008880400009014a000400330000004000ca
:1013100081804800020149008b05e900c909dd0010
:10132000830170000100320013002000c814de00a9
:101330004814dd004709de001200b200c808de00d4
:101340000884700085ff070001f0a1000cf0a700e1
:1013500001f0a000cdff37006120e100cfff320097
:101360000801be000200be00f7ff37006150e10037
:10137000fcff3a00c9ff37006022b80006022000d7
:101380000000d0008180d2000482d2008582d20089
:101390000000a0000202520083825a0003003100c4
:1013a0000202420083824a000000a1000603e90015
:1013b000f3ff3a0000000600889fbe008a9fbe002f
:1013c00030044200b0844a0030054b0090854b0049
:1013d0006000b1000898be000a90be000440e10021
:1013e00005c8e10006d0e10007d8e10002003100a5
:1013f000680040001008e8004f05be004f04be0022
:1014000000000600889fbe008a9fbe00100478007e
:101410009004900020059000b0059000041854003e
:1014200005985c0006185d0007985d00110020001b
:101430000440e10005c8e10006d0e10007d8e10062
:10144000010039008000eb00108810004f05be003d
:101450004f04be00000006001200fa00889fbe0084
:101460008a9fbe008c9fbe00e0b79f00f1b79f002f
:1014700082bf9f0093bf9f000605be000404be000c
:101480000000eb00d0b79f00c0b79f00b0b79f002f
:10149000a0b79f0090b79f000006eb005fb19700d8
:1014a000cfb09700820141003fb097000200e000fa
:1014b00004003d00370007007e805700beff070094
:1014c00003003700330007007e805700cdff070080
:1014d000dfb697000d00e0000c0035006fb29700fa
:1014e000ffb297000fbb97009fbb97001000200032
:1014f000010020006011b8000002720081827200b9
:1015000002037300838373001b0007000c06e800ce
:1015100001042000810f5600e0ff3a000d00e000ba
:1015200004003d000802be000a03be007e80570092
:10153000a1ff07005fa897000000e00005003a0047
:101540001fb29700afb297003fb39700cfb3970099
:10155000090007006fb09700ffb097000fb9970020
:101560009fb997004f06be004f05be004f04be0056
:101570000080fa00000006000100070000000600dd
:10158000a4b79f00b5b79f00c6b79f00d7b79f000d
:10159000000006004f09de0082817100b3b79f0092
:1015a0004f01de008180400082807000a1b79f0063
:1015b0008fb097004f09de0000004000020070006d
:1015c00090b79f007fa897004f01de008180400008
:1015d0008280700081b79f000d0007004f3ade0047
:1015e0000000400004007000f0af9f0008000700fa
:1015f0000402420085824a0006034b0087834b00a9
:10160000dfff07000802be000a03be00000006005c
:101610002fb29700bfb297004fb39700dfb3970088
:1016200000000600881f780018002000881f78003e
:1016300089ff07008f87e9004f047800000006004b
:10164000801feb0084ff07008f87e9000000060081
:10165000889fbe008a9fbe00e00f5000e08f5800b8
:10166000e00f5900e08f59000c003d006044b800c5
:101670006055b8000000540081805c0002015d00ec
:1016800083815d00180020001500070008003d0060
:10169000180007000004eb00050037000004eb0011
:1016a0000f00070002003d00120007001800200094
:1016b000dcff07000800e000060032006022b800ee
:1016c0006033b8000000520081805a0002015b00c4
:1016d00083815b004f05be004f04be000000060082
:1016e000e00f5200e08f5a00e00f5b00e08f5b00dc
:1016f000000006006044b8006055b80004025400c1
:1017000085825c0006035d0087835d0000000600a3
:10171000889fbe008a9fbe008c1f7800e00f50009b
:10172000e08f5800e00f5900e08f59000d003d0098
:101730006044b8006055b8000000540081805c002f
:1017400002015d0083815d001c0020000820e10093
:1017500009a8e1000ab0e1000bb8e1000d003d006e
:10176000080037000006eb00e00f5200e08f5a003f
:10177000e00f5b00e08f5b0006003d006044b800b6
:101780006055b8000402540085825c0006035d00c9
:1017900087835d00aaff07000c00e000060032000e
:1017a0006022b8006033b8000000520081805a0007
:1017b00002015b0083815b004f0678004f05be008d
:1017c0004f04be0000000600889fbe008a9fbe0036
:1017d000841f78009cfe07004f0078001100330042
:1017e000f0ff2f00838f6c0006003b0004056500ae
:1017f0000a00a7000800370009f0a600100020002a
:1018000008003700820f5400838f5c00030039000a
:101810001000200001003e000000200009f0a70099
:101820000000ea004f05be004f04be000000e000cb
:1018300000000600881f7800030478000300e00021
:1018400007003d0060001000e080180060011900f2
:10185000e081190002003b0001f02d000300370079
:101860000400070008f0a70001f0a0004f04780072
:1018700000000600889fbe008a9fbe0000827000a4
:101880000402710004827100260032000004be00d0
:101890000200be006011b8006b0920009502200014
:1018a0000182cf000a0039000541b1000082cf005b
:1018b000070039000541b1000982cf00040039005a
:1018c0000541b1000882cf00010039000541b10097
:1018d00005425200120032000a003b008281710072
:1018e000610164008100d1000080d3008984d300ad
:1018f0000884d3008b05e8000442e800f7ff3a00b3
:10190000070037000804440089844c0000004800a8
:10191000818048008b05e9000442e900f9ff3a00a4
:101920000efe07004f05be004f04be00000006007b
:10193000889fbe000202be008001eb000e0037004f
:10194000611cb80008014000124378000884400080
:10195000184178008301e800824f530004003200f0
:1019600010002000080031000080eb000600370066
:1019700061025200e0825a00e00f5200e08f5a00ec
:10198000efff3a000000eb004f04be00000006002d
:101990000202be008001eb0007003700611bb800a7
:1019a000060140000683400016497800610252009b
:1019b000e0825a008301e800e00f5200e08f5a00f5
:1019c000f6ff3a00000006000202be008001eb00b4
:1019d0000500370003014000014978006102520010
:1019e000e0825a008301e800e00f5200e08f5a00c5
:1019f000f8ff3a0000000600800078000000eb00cd
:101a0000008140000000e8001204e000fcff3a0002
:101a100001005100cf80de00000006000002eb0054
:101a200004003700864a780061015100e0815900c6
:101a30000402e8006123b80086024000e00f510074
:101a4000e08f590002003a008000eb000a003700e6
:101a500006834000164378000604e000f1ff3a00d8
:101a6000f9ff370001824200004aeb00610151009a
:101a7000e08159008100e800e00f5100e08f59003b
:101a8000f8ff3a0000000600881f78008a9fbe0019
:101a900000047800010078000205be00880078008c
:101aa0000202be00120020000300200018020700fe
:101ab0008a0f50008b8f5800010032000004eb00a9
:101ac000080078004f05be004f04780000000600b3
:101ad0000000fa00e88157004fb9970041de260068
:101ae00040d42000020007000080fa000000060039
:101af0006200fa00889fbe008a9fbe000005780041
:101b000081047800020478008300780060f92f00d7
:101b10000f004000fc0107008a979f0099979f00e3
:101b20000000eb00a09f9f001885fb008a04fb00cb
:101b30000a05ea004f55de0050022000808f540055
:101b40000e003200e10f55000c003a001200200098
:101b500003002000880078001f9097000f929700e4
:101b60000400010090979f000000e0009700320001
:101b70002f9897000000e800a09f9f000a044400ef
:101b800050022000808f5400040032000900e00061
:101b9000e5ff3a002f9897008d0037000000eb001a
:101ba000809f9f00f0979f00e0979f00d0979f0035
:101bb000c0979f00b0979f00c09f9f000005eb005b
:101bc0000800370041fd2600810050008100d00050
:101bd00082fc2600828040004f9897001100700020
:101be000c09f9f008a044400994578008b00fb0049
:101bf00040fd2600b80107000a05e8000000e000eb
:101c0000f0ff3a00a1c2b30081cf55000e003a00a8
:101c1000bf8897000180e900b08f9f001000780016
:101c2000b09f9f000000e00005003d000000ea00ba
:101c3000b09f9f004f9897000020a000c09f9f007a
:101c40000904e8000f003700b09f9f006000b80053
:101c500006003700f3ff2700830f50000200320018
:101c6000ea00b900000041008100e800018444005e
:101c70001801fb000203b100e90f5100f5ff360027
:101c8000b09f9f00e0c2b300984f100003003200e5
:101c90000080eb00909f9f00200037000800780034
:101ca000a1c2b300d0cf100007003a003f899700cf
:101cb0008280e900b18f9f0091007800919f9f0082
:101cc0000004e800150037000000eb00909f9f0023
:101cd0008000eb0006003700f2ff2700820f500063
:101ce00002003200ea00b900000042008100e80072
:101cf0000801e8008001eb0002814000e08149001a
:101d0000124278000402fb000403b100e90f520004
:101d1000f1ff3600909f9f000204780098447800fd
:101d20008900fb0000fc26006b0107000000e000ba
:101d3000020032000804e800010037008044eb0094
:101d4000a97f9f0080c6b30080cf540004003a00f2
:101d500098cf14000a003a00664050000600370091
:101d6000c0c6b30080cf540005003a0098cf1400dd
:101d700003003a0065404000a07f9f000804e8008f
:101d80001801fb00c3fb2f008f81410061f92f0078
:101d90008f80400080f92f000f00400010000700e6
:101da0000000e00009003a00c1fb2f008f804000d6
:101db00080f92f000f004000630307000000e000df
:101dc000020035000804e80057ff37000080eb00f0
:101dd0004f05be004f04be000080fa000000060060
:101de000889fbe008a1f780000047800e0c6b30018
:101df000804f5100d400320015003c006b40500071
:101e0000804f5100240032000a003c007040500016
:101e1000804f51000d01320065404000804f51005d
:101e20007200320050c2b300804f51001e013a00d0
:101e30001a01370040c6b300804f51001c00320029
:101e400065404000804f510017013a0018003700ec
:101e500030c7b300804f5100fc00320007003c0047
:101e600064405000804f5100600032000040e800a4
:101e7000804f51000c013a00e600370050c7b30014
:101e8000804f51005900320063404000804f5100a4
:101e900005013a00550037001181e90082087800f9
:101ea0007800900080814100924978000401370059
:101eb00028609000c4c6b300844f500008003a0068
:101ec0001102780064005200800878001002780047
:101ed000900290004fabde008603780013003700bd
:101ee00014c7b300844f500003003200a4c6b300ef
:101ef000844f500008003a00110278006800520038
:101f00008008780010027800900290002003900072
:101f1000b0039000050037001180e90080087800c8
:101f200010027800cfa2de00612bb900049cbe0035
:101f30000694be002860900081c6b300814f500017
:101f40000d00320021c6b300814f500004003a005a
:101f50000402fb00cfa2de00612bb90008003700ad
:101f600041c7b300814f500003003200e6c040007b
:101f7000814f500004003a00cfa2de00612bb9006f
:101f8000049cbe000694be001802780098029000df
:101f900028039000b803900078009000e00f5200f2
:101fa000e08f5a00e00f5b00e08f5b0003003d0014
:101fb00080804100d4c2b3000a003700881090002e
:101fc0000118a3000300320080804100b4c2b300b6
:101fd000040037000108a300560032008080410051
:101fe00004c2b30084487800500037002860900095
:101ff000c4c6b300844f500007003a0011027800b5
:10200000640052008008780010027800900290006e
:102010006033b8001300370014c7b300844f50007a
:1020200003003200a4c6b300844f500008003a00f9
:1020300011027800680052008008780010027800d1
:102040009002900020039000b0039000050037003c
:102050001180e90080087800100278008002eb000f
:102060006033b800049cbe000694be002860900057
:1020700081c6b300814f500003003a008002eb009c
:102080006033b8000e00370021c6b300814f500006
:1020900004003a000482fb008002eb006033b800c9
:1020a0000700370041c7b300814f500003003200e2
:1020b000e6c04000814f500003003a006033b80092
:1020c000049cbe000694be00081090000038a300d7
:1020d000180032001802780098029000280390003f
:1020e000b8039000e00f5200e08f5a00e00f5b0051
:1020f000e08f5b000f00320080c7b300804f5100bb
:102100000300320080c5b300804f510009003a003f
:10211000780090008080410004c3b30084487800b8
:102120000000e80080804100824878000000e8005c
:10213000700498007800900080814100630498004a
:10214000824078003e00370028619000c3c6b3008b
:102150001180e900834f5100220032000a003c0048
:10216000e4c15100834f51002500320083c1e800d3
:10217000834f510013003200e8c15100834f5100da
:102180001e003a000a00370043c7b300834f5100d6
:102190001b003200e6c14100834f510011003200a4
:1021a000e9c15100834f510014003a000500370087
:1021b0008008780010007800485c9000084878009b
:1021c000410037008008780010007800680a90000d
:1021d000cfa2de00612bb9000498be000690be00bd
:1021e00039003700800878001000780068099000f6
:1021f000cf91de000288be00330037001180e90075
:102200008008780010007800680c900008087800ba
:102210002d0037001180e900800878001002780056
:10222000cfa2de00612bb900049cbe000694be0064
:1022300078009000808141006304980081c7b3005a
:1022400008007800f60007001f0037001180e90041
:1022500080087800100578006a049800d80c900077
:102260000900e00004003d000a007800e2fd0700dc
:1022700080047800070037006149b9008000eb0056
:102280000a0078008c0007000000e0000100320026
:102290008a045000190c98000b0037007800900059
:1022a0008081410005003700780090008081410066
:1022b0000204e00001003a0052c2b30082497800f3
:1022c0000000e800700498000000eb004f05780063
:1022d0004f04be0000000600020037000304e000c7
:1022e000060032000001780002007800b04178005a
:1022f00081cf5100f9ff3a00010037000001eb00e7
:1023000002007800000006000108780000000600c6
:10231000ea874700889fbe008a9fbe008c9fbe0050
:102320008e1f7800000678000204be000405be007f
:10233000010778000400be0030040700d0b79f00fa
:10234000e1b79f00e00f5000e08f580052003200cc
:10235000e00f5400e08f5c0050003200fcb79f009b
:102360000006be00ce0090006e009000808f5000ee
:10237000040039000e007800610007000000e00052
:1023800033003500004020001e0060000c003200c9
:102390000c01be00a10020007fb09700460007009e
:1023a000000278000400e00008003200ffb197004e
:1023b000618511000a054200cfd5de000400370018
:1023c0000c05be000002eb00010037000c05be004a
:1023d0004e0090006e01900000015100cf91de0090
:1023e0008a0f51008b8f5900020031000205be0098
:1023f0000002eb000a01be00ffb0970084bf9f00ff
:1024000063fd07000a0656008b865e004e009000b2
:102410000a004000400798000fba97000400e0004f
:10242000040032000e007800de0207000000e00029
:1024300007003a00e00f5600e08f5e000400320013
:102440007fb097000a004000f0b79f00c5ff37003b
:10245000008020001e006000020032000e007800a4
:10246000d002070000c020001e0060000200320001
:10247000ce009000610798005fb19700efb1970020
:102480000c0051008d8059000801be00bafb070006
:102490000005be00010037006055b8000a00be000c
:1024a0004f0778004f06be004f05be004f04be0028
:1024b000af00b100000006000202be008001eb0088
:1024c000050037008301e80092cf10000a003200b7
:1024d00061025200e0825a006103b80006834100a5
:1024e000e0834b0006017800e00f5200e08f5a00b5
:1024f000f4ff3a0000000500060078000000060026
:10250000889fbe008a1f780000047800c8009000f1
:10251000680190000000eb00828f50003d00390000
:10252000180078002200290002016000e20f51002b
:1025300007003200012024000000e00001003d00ff
:1025400001202000008c70000080eb00310037007b
:102550000200260002006000820f500009003a00cd
:1025600038009000808f5000060039000800780085
:102570008c020700800078000080eb000100e00082
:1025800024003a001805780000c020000000650013
:1025900019003a00a80490006002200008004000e2
:1025a000808f540014003a00002020000100200019
:1025b00039030700200498000000e00005003a00fd
:1025c00029049800490498008904e8003904980017
:1025d000080037000a60a0000a0c78004004980048
:1025e000012020008080400031049800400c9800b9
:1025f000500c980015020700280090005004980025
:10260000380090006004980000002600180c70004c
:102610000000eb004f0578004f04be0000000600ec
:10262000fc874700889fbe008a9fbe008c9fbe002b
:102630008e1f78000006780080c5b30080cf500060
:102640000a0032007740400080cf50000a0032007c
:102650006940400080cf50000b00320070f326002c
:1026600080bf9f00ae0020000a00370062f2260003
:1026700082bf9f000600370073f3260083bf9f00d0
:102680008e0020000300370074f3260084bf9f00f3
:102690000e0120001c0278009c0290002c03900088
:1026a000bc0390000605be000404be0040c6b30093
:1026b00080cf5000030032006540400080cf5000c2
:1026c0000b003a00e00f5200e08f5a00e00f5b0071
:1026d000e08f5b0006003d006000b8006011b800ac
:1026e0000404500085845800060559008785590068
:1026f000e80f57000400320040002000f00f5700a0
:1027000048003a000100370030002000e00f54007c
:10271000e08f5c00e00f5d00e08f5d0004003a0098
:10272000dc0890008d0120000100e0000d00320067
:102730000e01e900cf91de000802be0082006400b5
:102740000382620084027800010278000401be0066
:102750008fba97000281420012417800f2ef9f0089
:102760007d012000800078008100e9000500330031
:102770008b05d1000a85d3008984d3000884d30057
:10278000f9ff3700089ebe000a96be001900370008
:102790008d06e9000e01e900cf91de000404be00c1
:1027a00082006200038464008804780001047800d9
:1027b0000801be008fb89700028140009240780067
:1027c00083fd2f008d81410081f7790000017800a1
:1027d0000201e900050033008783d1000683d3009e
:1027e0008582d3000482d300f9ff3700049ebe0027
:1027f0000696be001c0278009c0290002c039000fc
:10280000bc039000e00f5200e08f5a00e00f5b0025
:10281000e08f5b00930034000d00e000dcff3c0023
:10282000900037002c60900081c6b300814f5000ab
:102830000b00320006003c000004e00008003200fb
:10284000e6c05000814f500052003a0004003700ab
:10285000c1c6b300814f50004e003a00230037003c
:102860000800e00004003a005c0890008d012000a0
:102870000000e00007003200110009000e84d800bb
:102880008fb997000180410010407800f0ef9f0061
:102890007d012000110009000e84d8000b003700d4
:1028a000110009000e04d8008d06e9008e81b900e0
:1028b000020454008fb897000884400098417800c3
:1028c00082fd2f000d01410083777900000478001c
:1028d0000800e000020032000d00e000f0ff3c00c4
:1028e000cfc4de00614db90027003700e00f54006f
:1028f000e08f5c0004003a005c0890008d0120002d
:102900000000e000080032006171b9000800be005c
:10291000b70207000fba970080004200914078008c
:10292000f1ef9f007d0120006171b9000800be0039
:1029300091fa07000c0037006171b9000800be0071
:102940009c0207008d06e90080f1b90002045400e2
:102950008fba9700088442009841780082fd2f00ca
:102960000d014100837779000004be00e00f5000a4
:10297000e08f5800020032000d00e000eeff3c0046
:102980004fcdde008a057800089ebe000a96be0084
:1029900034003700e00f5400e08f5c00e00f5d0072
:1029a000e08f5d0004003a005c0890008d0120007b
:1029b0000000e0000a0032006172b900612bb9002a
:1029c0000800be000a01be001dfb07000fba9700f9
:1029d0008000420091407800f1ef9f007d012000cf
:1029e0006172b900612bb9000800be000a01be0087
:1029f0000cfb07000e0037006172b900612bb900b3
:102a00000800be000a01be0011fb07008d06e900a8
:102a100080f2b900040454008fba97000884420081
:102a20009842780084fd2f000d02420085777a00dd
:102a3000009ebe000296be001c0478009c0490001c
:102a40002c059000bc059000e00f5400e08f5c0066
:102a5000e00f5d00e08f5d00020034000d00e0003b
:102a6000e5ff3c00e80f570010003a000c10900002
:102a70000038a3000d003200f78f560006003e001c
:102a800080fd2f000d004000ef40780000c3b30030
:102a900080cf50000500320002c3b30071fd2f004b
:102aa0008d8040008d06e90082f77800f8801600de
:102ab000110e98006c0090006109b90084fd2f0090
:102ac0000f0242008d004200b1fb07001c0890007d
:102ad000dc089000810f500006003d00008050008f
:102ae000000e98000c1090000040a1000016980005
:102af0000f0037000100e0000d003d008c10900039
:102b0000f4806000f08f500009003a007c099000ca
:102b1000fc009000810051000c0990008280500060
:102b2000008050004240a90001003400000e9800cf
:102b30004f0778004f06be004f05be004f04be0091
:102b4000cf01b100000006000400fa00889fbe001b
:102b50008a9fbe008c1f7800000478000106780070
:102b6000f80d9000780090008085550008089000ce
:102b70008085550018089000808555002808900031
:102b800080855500380890008085550048089000e1
:102b9000808555000002220090bf9f0000032300a3
:102ba000a0bf9f00081090000028a30015003a0065
:102bb0000b00e000130034000b0578008a04780055
:102bc000e20f550001003600290020006149b900dc
:102bd00048029000ee805700580090000400010069
:102be000500498000000e0008f0032006808900058
:102bf00009004000600c9800090555004240a900fa
:102c0000eeff3c00780090000000e0000d00340072
:102c10006101b900480290008c00780058009000d3
:102c200004000100500498008080eb000000e000e8
:102c30007e003200e808900078009000008040009c
:102c4000600c9800880c90000900e000110034002e
:102c500009057800e28f5400010036002a002000a8
:102c60006151b90048029000ec8057005800900074
:102c700004000100500498000000e0006a003200e7
:102c8000680890000a004000600c98008a84540094
:102c9000edff3700180890000000e0000d00340040
:102ca0006101b90048029000e800900058009000cf
:102cb00004000100500498008080eb000000e00058
:102cc0005a003200e8089000180890000080400088
:102cd000600c9800a80c90000900e000110034007e
:102ce00009057800e28f5400010036002a00200018
:102cf0006151b90048029000ec80570058009000e4
:102d000004000100500498000000e000460032007a
:102d1000680890000a004000600c98008a84540003
:102d2000edff3700380890000000e0000f0034008d
:102d30006101b90018089000e80090008080400010
:102d400048029000580090000400010050049800d0
:102d50008080eb000000e00034003200e8089000c2
:102d60003808900000804000600c9800c80c90006b
:102d70000900e0001100340009057800e28f5400da
:102d8000010036002a0020006151b900480290007d
:102d9000ec80570058009000040001005004980097
:102da0000000e00020003200680890000a004000a7
:102db000600c98008a845400edff370008109000e2
:102dc0008000eb000028a300180032000b00e00098
:102dd000160034008b04780009057800e28f540057
:102de000010036002a0020006151b900480290001d
:102df000ee80570058009000040001005004980035
:102e00000000e00008003200680890000a0040005e
:102e1000600c98008a8454004240a900eeff3c00f8
:102e20008000eb00010037008080eb00010078009b
:102e30004f0678004f05be004f04be000080fa0028
:102e400000000600c07b210091003700881f780039
:102e5000280727001804e00003003a00f9ff0700e4
:102e600020c0b300004c78004f047800000006003a
:102e7000889fbe0000047800080078004900070021
:102e80008004780000042000180060000200320076
:102e9000280090008b0007000000eb002004980041
:102ea000384090000004e000050035000000fb0001
:102eb0008ef707000000e000010032008084eb0084
:102ec000181090000000e0000800320090f70700a2
:102ed0000000e000010032008084eb001810900038
:102ee000780007000000eb00101498000008200094
:102ef000180060000f00320021e326000000eb0004
:102f0000d10f140005003a000000400041e3260004
:102f1000008040000008eb00030037000000e800dc
:102f2000e80f5000f6ff3a0008007800650007003f
:102f30000e003700000c780000c0eb003044980011
:102f4000600220000800400020049800400498001f
:102f500050049800400c980060049800500c9800b1
:102f60007004980076004400000c98000900780076
:102f70004f04be0000000600889fbe0048e4260003
:102f8000f0045400480078000000e0000100320026
:102f9000b7ff0700890f5400faff3a004f04be0044
:102fa00000000600889fbe008a1f78000004780099
:102fb0000800e0000d003a0028e3260070054400f8
:102fc0008004eb00580078000000e00004003200ac
:102fd000f4ff07000000e00001003d008084eb00ea
:102fe0008a0f5400f7ff3a00250037000000220046
:102ff000180060008004eb0021003200a80490005b
:103000000f00370009015100384090000000fb001c
:103010008900780068f707000000e00007003c0026
:10302000280090004004980060049800500c98001c
:103030001890a0008084eb001100370080844400c9
:1030400048019000828f5400eeff39002800900064
:10305000400498009800780002c0200002816000bf
:1030600001003a003800900001e8a300020032009d
:103070006004980001003700500c98008004eb00b9
:10308000090078004f0578004f04be0000000600dc
:10309000010020000100e000090032000100800072
:1030a0000100e000060032008100e9000100880014
:1030b000818040000200800081004100800878008b
:1030c000000006000000e0003600320064005000fe
:1030d0001002780090029000e50f5200e08f5a0035
:1030e000300036000408a3002e003a00c18283009d
:1030f0000100e00002003200810f500004003100a6
:1031000021009800c0828b001800370082007800f0
:10311000210190000200e00002003200800f510007
:10312000faff390011037800910390008681400076
:10313000830f50001b003900808f510004003a00bb
:103140008418430085904b00010078000700370089
:103150000200e0000300320004024000840f51002e
:103160001000390022009800a0009800a0009000f4
:103170000100e0000b00320010014000828f50007f
:1031800008003a00620527000009eb0010017800f2
:10319000900190003118410021904900a100900059
:1031a0002100980000000600889fbe008a9fbe0094
:1031b0000004be00b18283000100e0000200320082
:1031c000010078000f003700c182830080052700ce
:1031d00005003700b10f5400a18f5c002b003600b2
:1031e00064804000a10090000100e000f9ff3a0077
:1031f00012003700b20f5400a28f5c00230036008b
:1032000064004100100178000200e000f9ff3a007c
:1032100011017800c1828300800527000500370076
:10322000b10f5400a18f5c0018003600648040008c
:10323000a1009000828f5000f9ff3a009a8283002b
:10324000ab828300880f5500898f5d00010031003b
:103250000805be000a00be00460007000000e000ae
:1032600006003a00880f5500898f5d000600320085
:103270008b05d1000a85d300f2ff37000a98be0003
:1032800090ff0700cbff37000000eb004f05be00aa
:103290004f04be0000000600889fbe000002be0072
:1032a00065004000e0804800000378000600a100af
:1032b00081017800060178000204be008000eb0066
:1032c000840f5400858f5c0027003600e50f540002
:1032d000e08f5c0002003e00680020000900200032
:1032e0000800be00b0ff07008000eb000000e00017
:1032f0001d00320090007800a4ff2f00f5ff2f0082
:1033000031014200a1814a00880f5100898f590084
:1033100003003100a1029000050878000800370082
:103320000881400002087800a10190002301980064
:10333000100178003119140021911c008888be000a
:10334000100178000000eb000200e00004003200f1
:10335000a20190000300e00001003200640041007f
:10336000b0828b00e4804000010078004f04be0072
:10337000000006000001be008000eb000200e0003b
:1033800006003400020078006af60700800078002a
:10339000e18f400001003a008000eb00010078005e
:1033a0000000060000c0da000000060000c0da00dd
:1033b00000000600839f68000100e00002003d005d
:1033c00060001000e08018000300e00002003d00f3
:1033d00060011100e0811900e7f707004f00e000ed
:1033e00002003b0060001000e080180000000600b2
:1033f000e1f707000400be0000000600020ab90061
:10340000001bb9000200b8008100420081004300a7
:0434100000000600b2
:020000040000fa
:103414000d490000276d0000204900004e540000b3
:103424004552000046410000434500000d000000e5
:10343400505200004f4a0000454300005420000051
:10344400303400002e3200000d00000044650000fe
:10345400766500006c6f0000706d0000656e000002
:1034640074200000627900002053000045530000de
:103474002d54000065630000680d00000048000042
:103484006172000064770000617200006520000032
:103494007665000072730000696f00006e3a0000e8
:1034a400203000002e300000322e000032300000a8
:1034b400323000003038000031300000200d0000b0
:1034c40000460000697200006d7700006172000020
:1034d400652000007665000072730000696f0000cb
:1034e4006e3a0000203400002e3200002d49000006
:1034f4002d3400002e3100002e3200000d0000009b
:103504004d79000020490000503a000020250000b9
:10351400642e0000256400002e250000642e0000a7
:10352400256400000d0000004e7500006d6f000062
:10353400664d000065740000657200003a200000ca
:10354400256400000d00000054590000504500009f
:10355400204d000065740000657200005b250000ca
:10356400645d00003a250000730d000000000000b7
:1035740030000000534500004c450000435f00004c
:103584004d4600004d330000383400000053000065
:10359400454c0000454300005f4500004d330000ea
:1035a400363800004300000053430000484e00003a
:1035b4004549000044450000525f0000504d0000a2
:1035c400323100003230000000530000454c00004e
:1035d400454300005f4d0000464d000033370000b6
:1035e40034000000544500004e530000455f0000c5
:1035f400454d000030370000004d0000494b0000ed
:10360400524f00005f440000504d0000333800006a
:10361400305f0000343100003541000044000000f8
:103624004d49000054530000555f00004d45000013
:103634003936000053530000524100005f4d000032
:1036440042000000546900006d650000206f000016
:10365400757400002100000025730000002500009f
:10366400730d00000043000068650000636b0000f8
:10367400737500006d20000045720000726f000039
:1036840072210000000000000a0300000e03000085
:1036940012030000160300001a0300001e030000ba
:1036a40022030000260300002a0300002e0300006a
:1036b40032030000360300003a0300003e0300001a
:1036c40042030000460300000d0a000044480000c5
:1036d400435000002f5000006f7700006572000017
:1036e40020650000766500006e740000206f000005
:1036f40063630000757200007265000064000000de
:10370400496e000074650000726600006163000089
:10371400650000000102000003040000050600002b
:103724000f10000001020000030400000506000061
:103734000f1000002e6c00006f630000616c00002d
:10374400000000000c000000f4010000f40100007f
:020000040000fa
:103754000200fa00004f7800a0062700104078000d
:103764009e4f50002f003200a00627001040780022
:10377400e24f400013003200a006270010407800fa
:103784000080fb008000eb00fe09b900e002b900f4
:103794008401780003014100e30120000300b80024
:1037a400010141008200780002d12600020040009d
:1037b400e20120000300200021d92600c80c0200e9
:1037c40000000000a00627001e4878001e40780074
:1037d400e24f4000150032001e80fb008000eb0029
:1037e400fe09b900e002b900840178000301410038
:1037f400e30120000300b8000101410082007800c9
:1038040002d1260002004000e20120000300200053
:103814008000780020d92600c80c020000000000b7
:103824000300370000000000010037000000000022
:103834000080fa00000006000000fa00b00627002d
:1038440090407800a00627001040780080cf5000f8
:103854003b003200b006270010407800e24f4000e1
:1038640027003200e6d22600b00627001040780078
:103874000080fb00cf80de00fe09b900e002b90041
:103884008401780003014100e30120000300b80033
:1038940001014100820078007c004000e080480083
:1038a40002d126000200400090427800b0062700b2
:1038b400104078000080fb00cf80de00fe09b900d4
:1038c400e002b9008401780003014100e301200013
:1038d4000300b800010141008200780002d12600f3
:1038e40002004000100078008002b1008402200031
:1038f40013c0b30006017800854078000211070068
:10390400a006270090407800b00627000148780000
:10391400e0da260010417800906c830081fd2f00ce
:1039240080804000e0d2260084022000824178009a
:103934000101780011c0b300f31007000100370043
:10394400000000000080fa00000006000c00fa00ed
:10395400d04c210010079800c2032000030020006f
:103964008000eb0060d52600e40c0200000000009b
:103974000040eb00004f78006a0037001e407800da
:1039840073ff07001e80fb00cf80de00e609b9004c
:10399400e002b900840178000301410063002000c3
:1039a4000300b800010141008200780042ba2900f6
:1039b4000200400090409000414798001e80fb00a8
:1039c400cf80de00e609b900e002b9008401780086
:1039d40003014100630020000300b800010141001d
:1039e4008200780062004000e080480042ba29006a
:1039f4000200400090007800310798001e80fb0010
:103a0400cf80de00e609b900e002b9008401780045
:103a140003014100630020000300b80001014100dc
:103a24008200780064004000e080480042ba290027
:103a34000200400090007800410798004e4090003a
:103a44000080fb000000e000010032003400370079
:103a54001e02900054079800be0090004e00900093
:103a6400808040001e00900000804000a002b00052
:103a7400100798009e009000c0ff2100808f500026
:103a8400fcff3e00e0da2600ce40900001487800ba
:103a94005e0090008002b000906c8b00916c8300fb
:103aa4003e009000008040000000e800a06c8b0005
:103ab400a16c83004e00900000804000b06c8b002d
:103ac400d0002000406d8b00506d83000030a100b9
:103ad400506d8b0058ff07001e80fb00cf80de0076
:103ae400e609b900e002b90084017800030141004d
:103af400630020000300b800010141008200780047
:103b040042ba2900020040009040780050d52600b7
:103b140001487800ab0a07001e4fe8000100370097
:103b2400ffff37001e4078000004e00093ff3200de
:103b34000080fa00000006000c00fa00100798004c
:103b4400210798006247980043079800244f980083
:103b54000040eb00004f7800210037001e40780041
:103b6400fbfe0700406d8300ed0f500018003a0083
:103b740031ff070050d52600904078002e48900071
:103b840080cf500014003a0080212000906a8b00fe
:103b94006e4090000004e0000b003a00ce0090005c
:103ba400f1698b00506d83000030a000506d8b00d4
:103bb40040002000406d8b00ce009000616d8b00b2
:103bc4001e4078000a003700e0cfb3000800370039
:103bd4000000000001003700000000001e4fe80054
:103be4001e4078000004e000dcff3200e0cfb300a8
:103bf4000080fa00000006000200fa00004f78007e
:103c04001e4078000004e0000200320010c0b3003f
:103c14000d0037001e407800cdfe0700516d830073
:103c240000002100008060000000e0000500320078
:103c3400506d830000c0a100506d8b0010c0b30014
:103c4400010037000040eb000080fa00000006008d
:103c54000200fa00004f78001e4078000004e000e3
:103c6400020032000040eb00090037001e407800db
:103c7400b7fe0700406d83006700680000f0a700ee
:103c84000000ea000000e9004f00de000040780078
:103c94000080fa00000006000200fa00004f7800dd
:103ca4001e4078000004e00042003a001e40780004
:103cb400a7fe0700e06c8300f06c8b00406d83006e
:103cc400e50f500012003200e50f500006003e00e0
:103cd4000000e0000e0032000080e900e10f500017
:103ce4002e003e000a003700eb0f5000190032008e
:103cf400eb0f500003003e00e70f500027003e008a
:103d040005003700ee0f5000210032002300370079
:103d14002c0a07002800370011c0b30010c1b300fb
:103d240085060700006a83000000e00005003200f9
:103d3400c16c8300d0698300808f5000f6ff3a0085
:103d4400010037000000000080002000406d8b005f
:103d54001900370011c0b30010c1b3007606070084
:103d6400006a83000000e00005003200c16c83009b
:103d7400d0698300808f5000f6ff3a0001003700bd
:103d840000000000c0002000406d8b000a003700d6
:103d9400d0002000406d8b00070037008040eb000e
:103da40040c1b30064060700060a070000000000d3
:103db40001003700000000000080fa000000060047
:103dc4000200fa00004f78001e4078000004e00072
:103dd40008003a001e4078005dfe0700506d830025
:103de4000030a100506d8b001e407800aaff070030
:103df40001003700000000000080fa000000060007
:103e04000200fa00004f78001e4078000004e00031
:103e1400020032000000eb000c0037001e40780066
:103e24004bfe070084fe0700a200200003002000d0
:103e340041d4260000db2600c80c0200000000006c
:103e4400e0698300d06d8b0000db26000080fa005f
:103e5400000006000200fa00004f78001e407800bf
:103e64000004e0000b003a001e40780038fe070012
:103e740071fe0700c16c8300d0698300808f5000fd
:103e84000500320011c0b30000c1b3002a060700c8
:103e940001003700000000000080fa000000060066
:103ea4000400fa00204798002e4090000004e0002f
:103eb400020032000000eb001d0037002e4090008d
:103ec40023fe0700406d8300004f78001e407800f9
:103ed400e74f5000050032001e407800eb4f5000c1
:103ee400020032000000eb0011003700c16c8300b7
:103ef400d06c8300808f500009003900a16c8300ce
:103f0400906c830080805000d26c8300c06c83006e
:103f140000005100008040000000e9000400370068
:103f2400d16c8300c06c8300008050000000e90065
:103f34000080fa00000006000400fa002047980000
:103f4400314798002e4090000004e0000200320047
:103f54000040eb00430037002e409000fcfd0700ba
:103f64002e409000ceff0700000f78001e0078005e
:103f74000000e00002003a000040eb003900370086
:103f84001e007800e10f500002003a002e4090001d
:103f9400b0ff0700516d8300001020000080600016
:103fa4000000e0000b003a00a16c8300906c8300d9
:103fb400008050000000d1009e0f50000500390021
:103fc4002e409000a3ff0700506d83000080a000e6
:103fd400506d8b0063014700e0da260090407800c2
:103fe400c06c83001400200013c0b300460f070008
:103ff400c06c83000000e800c06c8b00c16c8300bf
:10400400a06c8300808f500002003900906c830004
:10401400c06c8b001e007800e10f500003003a00d2
:104024002e4090008bff07000d003700516d830078
:1040340000022000008060000000e00008003a0058
:10404400506d83000050a000506d8b0012340200ac
:10405400010000000000780079004000206d8b0012
:1040640010c0b3000080fa00000006000c00fa0043
:104074006047980041079800520798000000eb0041
:10408400100798006e4090000004e0000200320027
:104094000000eb005e0037006e409000acfd0700ae
:1040a4006e4090007eff0700200798002e009000cd
:1040b4000000e00004003a006e40900065ff070035
:1040c4000000eb0052003700ae009000010f7800b2
:1040d400ae0090005e009000808f50000200360019
:1040e400de009000010f7800516d83000010200065
:1040f400008060000000e0000c003a00a16c830026
:10410400906c8300008050008000d1002e0090004d
:10411400808f5000050039006e4090004dff07006d
:10412400506d83000080a000506d8b00c06c830034
:104134009e004000a06c8300808f50001400390062
:10414400a16c8300c06c83000080500010079800ad
:104154004e019000e0da260090407800c06c8300a5
:104164001e02900013c0b300e70e07001e0090006b
:104174008000eb004e0190000000410040079800d1
:104184001e0090001e0f1000906c8300c06c8b000a
:104194004e019000e0da260090407800c06c830065
:1041a4001e02780013c0b300d70e0700c06c830052
:1041b4001e004000c06c8b00ae0090005e009000ba
:1041c400808f500003003e006e40900021ff0700e6
:1041d4000d003700516d8300000220000080600054
:1041e4000000e00008003a00506d83000050a00079
:1041f400506d8b00123402000100000000007800b2
:1042040079004000206d8b001e0090001e004000cd
:104214000080fa00000006000400fa00004f780055
:10422400110798001e009000fc0c02000000000022
:1042340000007800000178009e0090001e40780085
:104244008aff07008000eb001e019000000041007f
:104254000080fa00000006000600fa0040479800bb
:104264004e4090000004e000020032000000eb0029
:104274000b0037004e40900035fd0700a16c830011
:10428400906c830000805000000fe9004e409000c5
:1042940003ff0700100798001e0090001e00100086
:1042a4000080fa00000006000200fa00004f7800c7
:1042b4001e4078000b0007000000e00007003200f9
:1042c4001e40780022fd0700e06c8300f06c8b0038
:1042d40011c0b30000c1b300170507000080fa0045
:1042e400000006000200fa00004f78001e4078002b
:1042f4000004e000020032000000eb00120037006e
:104304001e40780012fd0700e16c8300f06c83000e
:10431400808f500004003900e16c8300f06c83004e
:104324000080500008003700b16c8300f06c8300fb
:1043340080805000e26c8300a06c83000000510078
:10434400008040000000e8000080fa000000060041
:104354000600fa0020479800210798002e4090009c
:10436400e0ff0700000f78001e0078000000e00066
:1043740002003a000040eb002c0037002e40900071
:10438400f3fc07002e0090000000e000090032005a
:10439400e0da260010417800f16c83002e009000d2
:1043a40014002000824178000101780011c0b3009c
:1043b400550e0700f06c83000000e800f06c8b00e1
:1043c400f16c8300b06c8300808f500002003600d3
:1043d400a06c8300f06c8b001e007800e10f50008d
:1043e40004003a00506d830000a0a000506d8b00c3
:1043f4000d003700516d8300000220000080600032
:104404000000e00008003a00506d83000050a00056
:10441400506d8b001234020001000000000078008f
:104424001008b000206d8b0010c0b3000080fa00ab
:10443400000006000a00fa0040479800310798007f
:10444400420798000000eb00000f78004e409000f7
:10445400a4ff0700100798001e0090000000e00071
:1044640002003a000000eb00530037004e40900079
:10447400b7fc0700ce0090001e009000808f500013
:10448400020036009e00900041079800f16c830002
:104494004e00900080804000b06c8300808f5000fc
:1044a4001a003600b16c8300f06c83000080500069
:1044b400000fe8003e0090000000e0000e00320013
:1044c400e0da260010417800f16c83003e00900091
:1044d4001e027800824178000101780011c0b30007
:1044e400090e07001e0078008000eb003e019000da
:1044f40000004100300798004e0090001e0050005c
:1045040040079800a06c8300f06c8b003e00900084
:104514000000e00009003200e0da260010417800d3
:10452400f16c83003e0090004e02900082417800be
:104534000101780011c0b300f30d0700f16c830092
:104544004e00900000804000f06c8b004e00900004
:104554001e004000400798009e0090004e0090000e
:10456400808050004e009000808f500004003e0078
:10457400506d830000a0a000506d8b000d0037002b
:10458400516d830000022000008060000000e00004
:1045940008003a00506d83000050a000506d8b005d
:1045a4001234020001000000000078001008b0007e
:1045b400206d8b004e0090000080fa000000060081
:1045c4000600fa00404798004e4090000004e000c6
:1045d400020032000000eb000a0037004e40900059
:1045e4005bfc0700b16c8300a06c8300008f50005b
:1045f4004e4090003bff0700100798001e009000fb
:104604001e0010000080fa00000006000e00fa00f0
:104614006047980041079800520798006307980084
:104624006e4090000004e00003003a005e00900039
:104634000000e00002003a000000eb0042003700f6
:104644006e40900042fc07006e40900025ff07007a
:1046540010079800ee0090005e00900080804000fb
:104664001e009000808f5000040036009e009000d1
:104674006e0090000080500050079800f16c830099
:104684006e009000008f4000b06c83009e0f5000bd
:1046940005003100b16c8300a06c830000805000e1
:1046a4000080ea001e0f4000b06c83001e00500022
:1046b4000000e80020079800de0090002e00900023
:1046c400808f500009003e00e0da26009040780018
:1046d4004e0090005e029000814178001e01780037
:1046e40011c0b300880d070016003700e0da260079
:1046f400904078004e0090002e0290008141780096
:104704001e01780011c0b3007f0d0700de00900089
:104714002e00900080815000e0da260010417800dd
:10472400a16c83004e0290002e0090000000420015
:1047340003027800824178000101780011c0b300bf
:10474400710d07005e0090000080fa000000060072
:104754000600fa002047980021079800ae01900057
:10476400120020008e0078002e409000a7ff070062
:104774001e4078000080fa00000006003c00fa00a9
:1047840000779800111f9800221f9800331f98008b
:10479400441f9800257f98000e7090000004e000ec
:1047a400020032000080eb00300137002e18900028
:1047b4000000e00002003a000000eb002b0137008b
:1047c4000e709000e2fb07000e709000c5fe07001b
:1047d400be18900001005000100798009e00900041
:1047e4002e189000808f5000020031000080eb00f2
:1047f4001e0137004e1890000000e0000600320051
:104804009e0090004e189000808f500002003600e9
:10481400ce18900011079800f16c83003e189000a8
:104824000080400030079800b16c83003e00900087
:10483400808f500007003100b16c8300a06c8300ae
:10484400008050000080ea00be009000008040001c
:1048540030079800be009000010f7800b16c83000f
:104864003e009000008050000000e80020079800ff
:10487400be18900031079800ae18900061079800a8
:104884009e189000710798001e18900090407800c0
:10489400114f98001e1890000000e800101f9800a7
:1048a4000040eb00304f98002e7890000004e000a8
:1048b4000c0032009e48900000c6b30080cf500028
:1048c400080036009e489000a0c7b30080cf500077
:1048d40004003e009e48900000ceb30000c040009b
:1048e400104f980000c2b300204f98002e4890004b
:1048f4008080fb002e009000808f50000200360064
:104904002e009000204f98002e4890008080fb00dd
:104914001e009000808f5000020036001e009000a0
:10492400204f98002e4890000081fb00e0da26001a
:1049340090407800700047000202780081417800be
:104944001e01780011c0b300ef0c07002e48900040
:104954000080fb001e0f40002e4890000080fb00ea
:10496400ae00900000805000200798002e009000b8
:104974000000e00004003a00a16c8300010f7800fd
:104984000080eb00200798002e7890000004e000df
:104994006d0032000040eb00004f980065003700c6
:1049a4000e4890000080fb00cf80de0070004000c5
:1049b400ee40780000c6b30080cf500014003600eb
:1049c4000e4890000080fb00cf80de0070004000a5
:1049d400ee407800a0c7b30080cf50000c003e002a
:1049e4000e4890008081fb000e4890000080fb0080
:1049f400cf80de0070004000ee40780000ceb300af
:104a040000c140006118b9007000400002777800ce
:104a14000e4890000080fb00cf80de007000400054
:104a2400ee4078001e48900080cf500023003a00ea
:104a34002e1890000000e900201f98002e18900006
:104a44000000e00008003a00be0090006e009000f4
:104a5400808050000e4890000080fb0000804000e1
:104a64000000e800810037001e1890009040780094
:104a7400114f98001e1890000000e800101f9800c5
:104a840010c0b300304f98009e48900000c6b30099
:104a940080cf5000240036009e489000a0c7b30089
:104aa40080cf500020003e009e48900000ceb3000e
:104ab40000c04000104f98001b003700ee0090002b
:104ac400211f98003e4890000004e00016003200c8
:104ad400fe009000111f98001e189000904078006e
:104ae400114f98001e1890000000e800101f980055
:104af4009e48900000c6b30080cf500008003600e6
:104b04009e489000a0c7b30080cf500004003e0030
:104b14009e48900000ceb30000c04000104f9800a3
:104b24000040eb00304f98000e4890000040e80031
:104b3400004f98008e4890002e48900080cf50007f
:104b440097ff3900380037000040eb00004f980011
:104b5400310037000e4890000080fb00cf80de005b
:104b640070004000ee4078001e48900080cf500056
:104b740017003a002e1890000000e900201f98004a
:104b84002e1890000000e00008003a00be009000db
:104b94006e009000808050000e4890000080fb0062
:104ba400008040000000e800300037001e1890002c
:104bb40090407800114f98001e1890000000e80003
:104bc400101f980010c0b300304f98000f0037003a
:104bd400ee009000211f98003e4890000004e00081
:104be4000a003200fe009000111f98001e18900069
:104bf40090407800114f98001e1890000000e800c3
:104c0400101f98000040eb00304f98000e489000b1
:104c14000040e800004f98008e4890002e48900015
:104c240080cf5000cbff39002e4890000080fb005d
:104c34009e00900000805000100798009e00900095
:104c44002e189000808f5000020031000080eb008d
:104c5400060037002e4890000080fb00be00900044
:104c640000804000300798001eff37000080fa00e3
:104c7400000006000800fa00004f78001147980071
:104c84001207980023079800644798000e00e80074
:104c9400ee4290002e0290009e019000120020002f
:104ca400800078001e407800b4fe07000080fa00ff
:104cb400000006000600fa00881f78000040eb00a0
:104cc400004f7800e60137001e407800a0fa070084
:104cd4000040eb00304798000040eb00104798007c
:104ce4000040eb0020479800516d83000020200015
:104cf400008060000000e00005003a00516d830070
:104d040000402000008060000000e0000f0032003e
:104d14008ab40200000000000004e0000b0032002e
:104d240000c1b30030479800506d83004a00de0094
:104d3400614060000080fb0000f0a7000000ea0072
:104d44000000ea004f00de0010479800516d830018
:104d540000022000008060000000e0000900320032
:104d6400286d830012340200010000000000780066
:104d7400000054000000e00002003c0000c1b30049
:104d840030479800516d83000004200000806000cb
:104d94000000e00009003200386d83001234020084
:104da4000100000000007800000054000000e00052
:104db40002003c0000c1b30030479800406d8300fe
:104dc400eb0f50000b003a00386d830012340200e0
:104dd4000100000000007800000054000000e00022
:104de40004003c0010c1b30030479800c00020000c
:104df400406d8b00406d8300e40f500097003a0033
:104e04000000eb00200798008f0037002e00900070
:104e14008000eb00f409b900e002b90084017800d5
:104e240003014100430120000300b80001014100d7
:104e34008200780070004000e080480062d52600bf
:104e440002004000100078000000e0008200320000
:104e54002e0090008000eb00f409b900e002b900d4
:104e64008401780003014100430120000300b800dd
:104e7400010141008200780070004000e080480099
:104e840062d526000200400090007800606d830027
:104e9400808f500069003a0067fa07002e009000e6
:104ea4008000eb00f409b900e002b9008401780045
:104eb40003014100430120000300b8000101410047
:104ec4008200780062d5260002004000a200200083
:104ed400030020008000780040d42600c80c0200a3
:104ee400000000002e0090008000eb00f409b900df
:104ef400e002b9008401780003014100430120006d
:104f04000300b80001014100820078006a004000fb
:104f1400e080480062d526000200400010007800be
:104f2400e0698b002e0090008000eb00f409b900ca
:104f3400e002b9008401780003014100430120002c
:104f44000300b80001014100820078006c004000b9
:104f5400e080480062d526000200400090009000e6
:104f64001000780061004000e0804800b0698b00c8
:104f7400c1698b00316a8300206a8300808040000d
:104f8400e069830080804000f0698300008068004d
:104f9400606d8b0020c1b300304798006000200092
:104fa400406d8b00ae009000c0fe2f008088b900d9
:104fb40083022000808141002e0090008000eb00dd
:104fc40061004000e0804800f409b900e002b90043
:104fd40004014100440120000400b8000101410023
:104fe4008200780062d5260002004000800278002a
:104ff4002e0090008000eb00f409b900e002b90033
:1050040004014100440120000400b80001014100f2
:105014008200780062d52600020040000302780076
:1050240013c0b3000501780011c0b300360b0700ac
:105034000000eb00706c8b00080037002e0090001d
:105044000000e800200798002e009000e20f5000b6
:105054006eff360001003700000000003e40900063
:105064000004e000090032001e4090000004e0004b
:10507400020032000040eb000100370010c0b30012
:10508400804078003e409000ab010700506d8300e3
:10509400700060000000e0002d003a00406d8300c5
:1050a400e70f5000e6003a00e03302000100000080
:1050b4000001be00006d8300116d830000005100eb
:1050c40081805900e00f5000e08f5800de00350069
:1050d400506d830067006000e60f50000e003a0038
:1050e400506d83004300de0061406000304798004b
:1050f4001e407800e8fa07001e407800e6fa070030
:105104003e4090000004e000d1003a00e00020009e
:10511400406d8b00d1003700c7f9070021c0b300f0
:1051240000c1b30084010700e03302000100000065
:105134000001be00a02424009101200002004000d0
:1051440083804800006d8b00116d8b00c300370015
:10515400e0330200010000000001be00006d830086
:10516400116d83000000510081805900e00f500050
:10517400e08f5800b8003500aff90700406d830098
:10518400e80f500045003200e80f500007003e00d1
:10519400e60f50001e003200e60f500031003e00c2
:1051a400e50f50000a0032006c003700ea0f50008f
:1051b4004d003200ea0f500046003900eb0f50005a
:1051c40028003200ec0f5000550032006300370015
:1051d40020c0b3003047980010c0b30010479800b7
:1051e40040d5260010407800e34f50005a003600a6
:1051f40040d5260041c0b3000148780000a1260034
:105204008102200070698b0081698b005300370094
:1052140040d5260010407800e14f500005003e00c4
:1052240020c1b3003047980010c0b3001047980065
:105234004a003700506d8300680060000000e00001
:105244000500320040c1b3003047980010c0b300dd
:10525400204798004100370020c0b3003047980031
:105264003e00370040d5260010407800e44f50003f
:1052740005003e0000c1b3003047980010c0b300e1
:10528400104798003500370080002000406d8b00e7
:1052940010c1b300304798003000370040d52600d5
:1052a40010407800e44f500005003e0010c1b300e8
:1052b4003047980010c0b30010479800270037000b
:1052c40040c1b3003047980010c0b3002047980095
:1052d4002200370040c1b3003047980010c0b3002b
:1052e400204798001d00370040d526001040780064
:1052f400e44f500005003e0000c1b3003047980061
:1053040010c0b300104798001400370040c1b30028
:105314003047980010c0b300204798000f003700b2
:1053240040d5260010407800e44f500005003e00b0
:1053340010c1b3003047980010c0b3001047980064
:105344000600370040c1b3003047980010c0b300d6
:105354002047980001003700000000003e40900004
:105364000004e000310032001e4090000004e00020
:105374002b00320040d52600104078008040e80021
:1053840040d5260001487800706983008169830054
:10539400000040008180480070698b0081698b00a7
:1053a400d1698300d06c83000080500020079800ee
:1053b400d1698300d06c8300808f500006003100d7
:1053c400a16c8300906c830000805000ae009000bc
:1053d400008040002007980092698300a36983003d
:1053e4002e0090008000eb000000510081805900e5
:1053f40090698b00a1698b00016a83002e009000e4
:1054040000804000006a8b00d06c8300d0698b0060
:105414008040eb003e409000c700070003003700c7
:1054240011c0b3003e409000c30007002e4090001e
:105434000004e0000900320062040700070037009e
:1054440000000000050037000000000003003700e2
:105454000000000001003700000000001e4fe800bb
:105464001e4078000004e00017fe32000000eb004c
:1054740020079800510037002e0090008000eb00b8
:10548400f409b900e002b900840178000301410085
:10549400430120000300b8000101410082007800ac
:1054a40070004000e080480062d526000200400001
:1054b400100078000000e0004400320012340200c2
:1054c40001000000800178002e0090008000eb00b5
:1054d400f409b900e002b9000401410044012000cc
:1054e4000400b8000101410082007800720040000d
:1054f400e080480062d526000200400010007800d9
:105504008080510060bc2400808f50002800360049
:10551400ae009000c0fe2f008088b90083022000f6
:10552400808141002e0090008000eb00610040006b
:10553400e0804800f409b900e002b9000401410028
:10554400440120000400b8000101410082007800f9
:1055540062d5260002004000800278002e009000f0
:105564008000eb00f409b900e002b9000401410035
:10557400440120000400b8000101410082007800c9
:1055840062d52600020040000302780013c0b30075
:105594000501780011c0b300db0907000000eb002f
:1055a400706c8b002e0090000000e900200798002a
:1055b4002e0090000000e800200798002e009000c4
:1055c400e20f5000acff360001003700000000007d
:1055d4004f0478000080fa00000006002c00fa0056
:1055e4003017980041179800521798003e11900008
:1055f4009281fb00124290000482fb004822dd00ed
:105604008481710003007800a24190008381fb0033
:10561400324190000281fb004811dd0002817100db
:1056240082007800300f9800410f98004e109000cf
:105634001001780090019000520f9800630f9800b9
:105644000040eb00605f980060c0b300705f98009a
:10565400de119000031798000e1090004eef020028
:10566400000000000017980076004700c1002000e9
:10567400c8ef0200000000000080ea001017980044
:105684005e109000a0b802000000000020179800ef
:105694009e1090002e109000808f50000400320065
:1056a400a2b402000000000010c0b30020003700c4
:1056b4000000eb00bc2f0200010000000e80e80097
:1056c400410120008ebb0200000000000e80e800b3
:1056d4008a0307007e0090004400de006f406000f3
:1056e40080407800200020000008dd00744f500046
