:020000040000fa
:080000000002040000000000f2
:020000040000fa
:04000800740400007c
:020000040000fa
:04000c008c04000060
:020000040000fa
:04001000aa0400003e
:020000040000fa
:040014007e04000066
:020000040000fa
:04001800960400004a
:020000040000fa
:04001c00a00400003c
:020000040000fa
:04002000b404000024
:020000040000fa
:040024004a06000088
:020000040000fa
:040028004a06000084
:020000040000fa
:04002c004a06000080
:020000040000fa
:040030004a0600007c
:020000040000fa
:040034003206000090
:020000040000fa
:040038004a06000074
:020000040000fa
:04003c004a06000070
:020000040000fa
:040040004a0600006c
:020000040000fa
:04004400c0050000f3
:020000040000fa
:040048004a06000064
:020000040000fa
:04004c004a06000060
:020000040000fa
:040050004a0600005c
:020000040000fa
:040054003c05000067
:020000040000fa
:04005800da040000c6
:020000040000fa
:04005c004a06000050
:020000040000fa
:040060004a0600004c
:020000040000fa
:040064004a06000048
:020000040000fa
:040068004a06000044
:020000040000fa
:04006c004a06000040
:020000040000fa
:040070004a0600003c
:020000040000fa
:040074004a06000038
:020000040000fa
:040078004a06000034
:020000040000fa
:04007c004a06000030
:020000040000fa
:040080004a0600002c
:020000040000fa
:040084004a06000028
:020000040000fa
:040088004a06000024
:020000040000fa
:04008c004a06000020
:020000040000fa
:040090004a0600001c
:020000040000fa
:040094004a06000018
:020000040000fa
:040098004a06000014
:020000040000fa
:04009c004a06000010
:020000040000fa
:0400a0004a0600000c
:020000040000fa
:0400a4004a06000008
:020000040000fa
:0400a8004a06000004
:020000040000fa
:0400ac004a06000000
:020000040000fa
:0400b0004a060000fc
:020000040000fa
:0400b4004a060000f8
:020000040000fa
:0400b8004a060000f4
:020000040000fa
:0400bc004a060000f0
:020000040000fa
:0400c0004a060000ec
:020000040000fa
:0400c4004a060000e8
:020000040000fa
:0400c8004a060000e4
:020000040000fa
:0400cc004a060000e0
:020000040000fa
:0400d0004a060000dc
:020000040000fa
:0400d4004a060000d8
:020000040000fa
:0400d8004a060000d4
:020000040000fa
:0400dc004a060000d0
:020000040000fa
:0400e0004a060000cc
:020000040000fa
:0400e4004a060000c8
:020000040000fa
:0400e8004a060000c4
:020000040000fa
:0400ec0014060000f6
:020000040000fa
:0400f000f605000011
:020000040000fa
:0400f4004a060000b8
:020000040000fa
:0400f8004a060000b4
:020000040000fa
:0400fc004a060000b0
:020000040000fa
:040100004a060000ab
:020000040000fa
:040104004a060000a7
:020000040000fa
:040108004a060000a3
:020000040000fa
:04010c004a0600009f
:020000040000fa
:040110004a0600009b
:020000040000fa
:040114004a06000097
:020000040000fa
:040118004a06000093
:020000040000fa
:04011c004a0600008f
:020000040000fa
:040120004a0600008b
:020000040000fa
:040124004a06000087
:020000040000fa
:040128004a06000083
:020000040000fa
:04012c00aa05000020
:020000040000fa
:040130004a0600007b
:020000040000fa
:040134004a06000077
:020000040000fa
:040138004a06000073
:020000040000fa
:04013c004a0600006f
:020000040000fa
:040140004a0600006b
:020000040000fa
:040144004a06000067
:020000040000fa
:040148004a06000063
:020000040000fa
:04014c004a0600005f
:020000040000fa
:040150004a0600005b
:020000040000fa
:040154004a06000057
:020000040000fa
:040158004a06000053
:020000040000fa
:04015c004a0600004f
:020000040000fa
:040160004a0600004b
:020000040000fa
:040164004a06000047
:020000040000fa
:040168004a06000043
:020000040000fa
:04016c005e0400002d
:020000040000fa
:04017000f003000098
:020000040000fa
:040174008e030000f6
:020000040000fa
:040178004a06000033
:020000040000fa
:04017c004a0600002f
:020000040000fa
:040180004a0600002b
:020000040000fa
:040184004a06000027
:020000040000fa
:040188004a06000023
:020000040000fa
:04018c004a0600001f
:020000040000fa
:040190004a0600001b
:020000040000fa
:040194004a06000017
:020000040000fa
:040198004a06000013
:020000040000fa
:04019c004a0600000f
:020000040000fa
:0401a0004a0600000b
:020000040000fa
:0401a4004a06000007
:020000040000fa
:0401a8004a06000003
:020000040000fa
:0401ac004a060000ff
:020000040000fa
:0401b0004a060000fb
:020000040000fa
:0401b4004a060000f7
:020000040000fa
:0401b8004a060000f3
:020000040000fa
:0401bc004a060000ef
:020000040000fa
:0401c0004a060000eb
:020000040000fa
:0401c4004a060000e7
:020000040000fa
:0401c8004a060000e3
:020000040000fa
:0401cc004a060000df
:020000040000fa
:0401d0004a060000db
:020000040000fa
:0401d4004a060000d7
:020000040000fa
:0401d8004a060000d3
:020000040000fa
:0401dc004a060000cf
:020000040000fa
:0401e0004a060000cb
:020000040000fa
:0401e4004a060000c7
:020000040000fa
:0401e8004a060000c3
:020000040000fa
:0401ec004a060000bf
:020000040000fa
:0401f0004a060000bb
:020000040000fa
:0401f4004a060000b7
:020000040000fa
:0401f8004a060000b3
:020000040000fa
:0401fc004a060000af
:020000040000fa
:040200004a060000aa
:020000040000fa
:040204004a060000a6
:020000040000fa
:040208004a060000a2
:020000040000fa
:04020c004a0600009e
:020000040000fa
:040210004a0600009a
:020000040000fa
:040214004a06000096
:020000040000fa
:040218004a06000092
:020000040000fa
:04021c004a0600008e
:020000040000fa
:040220004a0600008a
:020000040000fa
:040224004a06000086
:020000040000fa
:040228004a06000082
:020000040000fa
:04022c004a0600007e
:020000040000fa
:040230004a0600007a
:020000040000fa
:040234004a06000076
:020000040000fa
:040238004a06000072
:020000040000fa
:04023c004a0600006e
:020000040000fa
:040240004a0600006a
:020000040000fa
:040244004a06000066
:020000040000fa
:040248004a06000062
:020000040000fa
:04024c004a0600005e
:020000040000fa
:040250004a0600005a
:020000040000fa
:040254004a06000056
:020000040000fa
:040258004a06000052
:020000040000fa
:04025c004a0600004e
:020000040000fa
:040260004a0600004a
:020000040000fa
:040264004a06000046
:020000040000fa
:10040000cf0122000eff27000e018800000000002f
:10041000000020000000e000020032000001200087
:1004200020028800140007003a0207000000e000e4
:1004300003003a002091280001002000020037004c
:100440000000200001002000810f70000100320038
:100450000f000700000020000000e0000200320052
:100460000000020000000000628c0200000000009a
:100470000040da000000fe00400620000000e0001e
:1004800002003200002020009001880000000600d9
:10049000a1028800800478000000eb001f003700f4
:1004a000e284440054a0b4009905ba00e2844400f8
:1004b00054a0b4009906ba00e284440054a0b400e9
:1004c0000006eb00476fde00fd07b200ae018800ba
:1004d000636ce10003003a000ad801000000eb0061
:1004e0000e003700606ce10008003a00004deb00a0
:1004f0000a05e800020039003420ec000af0a000f0
:100500008b05e900f9ff3e00040037006168e10057
:10051000010032000086eb000b00070019c7ba008b
:100520000e04e0001905ba0003003a000a00e000da
:10053000dbff3a0000000600fe07b200ae028800b2
:100540008a047800f5ff37000cd0a300e20f4d00bd
:100550001c00390089027800354dba000a05e80010
:10056000020039003420ec000af0a0008b05e900fd
:100570000f003200254dba000a05e80002003900dc
:100580003420ec000af0a0008b05e90008003200de
:100590000c00e0000600320015cdba000a05e800a4
:1005a000020039003420ec000af0a0008b05e900bd
:1005b0008984e80054a0b4000b00e000e2ff3a0098
:1005c000000006009902ba00055d78008b05e9007d
:1005d000f7ff3200c82ade00055d78008b05e900d0
:1005e000f3ff32000c00e000f1ff320019ddba0029
:1005f000eeff3700ec64040000000000f664040025
:1006000000000000e264040000000000b264040086
:10061000000000000e6304000000000050630400ae
:10062000000000006e63040000000000de630400b0
:10063000000000003864040000000000866304002d
:100640000000000084640400000000002063040037
:10065000000000002c630400000000003863040068
:1006600000000000446304000000000098630400e0
:1006700000000000a463040000000000b063040058
:1006800000000000f862040000000000bc630400e9
:10069000000000006c780400000000002c8e0400b4
:1006a00000000000047904000000000080790400cc
:1006b00000000000e279040000000000407a04001d
:1006c00000000000aa6c040000000000c86c0400d8
:1006d00000000000c46f040000000000e26f04008e
:1006e00000000000468a04000000000024660400a8
:1006f000000000005c66040000000000406604008a
:100700000000000058670400000000006468040056
:10071000000000007c830400000000003600f800a8
:10072000809fbe00829fbe00849fbe00869fbe0049
:100730000000fa00f0b980000000e0000200320082
:10074000f0b980000000010021aa800010aa8000fa
:10075000808f500002003a002a68a9001900370073
:100760000a68a9001000370020aa80009040780095
:100770008180fb00a11288000000e80020aa880008
:1007800021aa800020642100808f500002003a00de
:100790007054210020aa880021aa800010aa80009d
:1007a000808f50000600320091128000002020004f
:1007b000008060000000e000ebff32000100370025
:1007c000000000000080fa004f03be004f02be0090
:1007d0004f01be004f00be003600f9000040060089
:1007e0003600f800809fbe00829fbe00849fbe003e
:1007f000869fbe000000fa0000ba80000000e00002
:100800000200320000ba8000000001000a48a9007e
:100810001f003700f0a98000b112800081407800ed
:1008200001487800f1a98000c0732100808f50003a
:1008300009003200f0a980008000e80000aa8000d2
:10084000808f500004003200f0a980000000e80012
:10085000f0a988000e003700f1a98000c0732100c4
:10086000808f500007003a0001aa80002064210018
:10087000808f50000300320020642100f0a988001e
:10088000030037006054210011c0b3000148780014
:1008900090128000610060000000e000ddff3a007f
:1008a0000080fa004f03be004f02be004f01be00a1
:1008b0004f00be003600f90000400600801f78009f
:1008c0000000fa0090128000620060000000e0006a
:1008d000010032005222a9000a28a9000080fa0073
:1008e0004f007800004006003600f800c028a9003c
:1008f0000000eb00c68e0200000000003600f80089
:10090000ce8e020000000000c048a90010002000a8
:10091000c68e0200000000003600f800c068a90082
:1009200020002000c68e0200000000003600f80003
:10093000c088a90030002000c68e02000000000020
:100940003600f800c0a8a90040002000c68e0200b2
:10095000000000003600f800c608a9007000200062
:10096000c68e0200000000003600f800214680001c
:1009700000022000008060000000e000040032005f
:10098000c4a8a90090002000c68e0200000000004c
:1009900020468000700060000000e000040032008b
:1009a000c488a900a0002000c68e0200000000003c
:1009b000ffff37003600f800809fbe00829fbe0018
:1009c000849fbe00869fbe000000fa0010ca80000f
:1009d0000000e0000200320010ca800000000100a8
:1009e00041ba800030ba8000808f500002003a0087
:1009f0002188a900190037000188a90010003700dc
:100a000040ba8000904078008180fb00211188006e
:100a10000000e80040ba880041ba800060842100ec
:100a2000808f500002003a00b074210040ba880064
:100a300041ba800030ba8000808f5000060032003a
:100a40001111800000202000008060000000e00004
:100a5000ebff320001003700000000000080fa00c8
:100a60004f03be004f02be004f01be004f00be004c
:100a70003600f900004006003600f800809fbe00f6
:100a8000829fbe00849fbe00869fbe000000fa00c9
:100a900020ca80000000e0000200320020ca80006e
:100aa000000001000168a9001f00370010ba800093
:100ab00031118000814078000148780011ba80002f
:100ac00000942100808f50000900320010ba80008d
:100ad0008000e80020ba8000808f500004003200bf
:100ae00010ba80000000e80010ba88000e0037003d
:100af00011ba800000942100808f500007003a0056
:100b000021ba800060842100808f500003003200f1
:100b10006084210010ba880003003700a07421000f
:100b200011c0b3000148780010118000610060001e
:100b30000000e000ddff3a000080fa004f03be0035
:100b40004f02be004f01be004f00be003600f9004c
:100b500000400600801f78000000fa00101180009d
:100b6000620060000000e000010032002222a900c3
:100b70000828a9000080fa004f0078000040060015
:100b80003600f800809fbe00829fbe00849fbe009a
:100b9000869fbe000000fa00b0ff80000000e00069
:100ba00002003200b0ff80000000010090ff210031
:100bb000104078008040e80090ff21000148780054
:100bc00080ff210011c0b3000148780000e8a900af
:100bd0000080fa004f03be004f02be004f01be006e
:100be0004f00be003600f900004006003600f80055
:100bf000809fbe00829fbe00849fbe00869fbe0075
:100c00000000fa0030ff8000000001000080fa00c0
:100c10004f03be004f02be004f01be004f00be009a
:100c20003600f900004006003600f800809fbe0044
:100c3000829fbe00849fbe00869fbe000000fa0017
:100c400040ff8000000001000080fa004f03be005a
:100c50004f02be004f01be004f00be003600f9003b
:100c600000400600809fbe000000fa00e0fe800009
:100c7000f1fe800061004000e0804800e0fe880056
:100c8000f1fe88000068a9000080fa004f00be0055
:100c9000004006000040da000000fe000a00fa00f2
:100ca000200798003107980042079800be00900086
:100cb000110798000000eb00000f78000e003700cd
:100cc000000000003a6d0200000000000004a200d5
:100cd0000004e000fbff3a001e0090001040780086
:100ce0009e0090008100e80011079800fa6c020055
:100cf000000000001e0fe8004e0090009e007800eb
:100d0000808f5000eeff39004e0090000080fa0006
:100d100000000600000005006022b8000602200066
:100d20000000d0008180d2000482d2008582d200ef
:100d30000000a0000202520083825a00030031002a
:100d40000202420083824a000000a1000603e9007b
:100d5000f3ff3a0000000600889fbe008a9fbe0095
:100d600030044200b0844a0030054b0090854b00af
:100d70006000b1000898be000a90be000440e10087
:100d800005c8e10006d0e10007d8e100020031000b
:100d9000680040001008e8004f05be004f04be0088
:100da00000000600889fbe008a9fbe0010047800e5
:100db0009004900020059000b005900004185400a5
:100dc00005985c0006185d0007985d001100200082
:100dd0000440e10005c8e10006d0e10007d8e100c9
:100de000010039008000eb00108810004f05be00a4
:100df0004f04be00000006001200fa00889fbe00eb
:100e00008a9fbe008c9fbe00e0b79f00f1b79f0095
:100e100082bf9f0093bf9f000605be000404be0072
:100e20000000eb00d0b79f00c0b79f00b0b79f0095
:100e3000a0b79f0090b79f000006eb005fb197003e
:100e4000cfb09700820141003fb097000200e00060
:100e500004003d00370007007e805700beff0700fa
:100e600003003700330007007e805700cdff0700e6
:100e7000dfb697000d00e0000c0035006fb2970060
:100e8000ffb297000fbb97009fbb97001000200098
:100e9000010020006011b80000027200818272001f
:100ea00002037300838373001b0007000c06e80035
:100eb00001042000810f5600e0ff3a000d00e00021
:100ec00004003d000802be000a03be007e805700f9
:100ed000a1ff07005fa897000000e00005003a00ae
:100ee0001fb29700afb297003fb39700cfb3970000
:100ef000090007006fb09700ffb097000fb9970087
:100f00009fb997004f06be004f05be004f04be00bc
:100f10000080fa0000000600010007000000060043
:100f2000a4b79f00b5b79f00c6b79f00d7b79f0073
:100f3000000006004f09de0082817100b3b79f00f8
:100f40004f01de008180400082807000a1b79f00c9
:100f50008fb097004f09de000000400002007000d3
:100f600090b79f007fa897004f01de00818040006e
:100f70008280700081b79f000d0007004f3ade00ad
:100f80000000400004007000f0af9f000800070060
:100f90000402420085824a0006034b0087834b000f
:100fa000dfff07000802be000a03be0000000600c3
:100fb0002fb29700bfb297004fb39700dfb39700ef
:100fc00000000600881f780018002000881f7800a5
:100fd00089ff07008f87e9004f04780000000600b2
:100fe000801feb0084ff07008f87e90000000600e8
:100ff000889fbe008a9fbe00e00f5000e08f58001f
:10100000e00f5900e08f59000c003d006044b8002b
:101010006055b8000000540081805c0002015d0052
:1010200083815d00180020001500070008003d00c6
:10103000180007000004eb00050037000004eb0077
:101040000f00070002003d001200070018002000fa
:10105000dcff07000800e000060032006022b80054
:101060006033b8000000520081805a0002015b002a
:1010700083815b004f05be004f04be0000000600e8
:10108000e00f5200e08f5a00e00f5b00e08f5b0042
:10109000000006006044b8006055b8000402540027
:1010a00085825c0006035d0087835d00000006000a
:1010b000889fbe008a9fbe008c1f7800e00f500002
:1010c000e08f5800e00f5900e08f59000d003d00ff
:1010d0006044b8006055b8000000540081805c0096
:1010e00002015d0083815d001c0020000820e100fa
:1010f00009a8e1000ab0e1000bb8e1000d003d00d5
:10110000080037000006eb00e00f5200e08f5a00a5
:10111000e00f5b00e08f5b0006003d006044b8001c
:101120006055b8000402540085825c0006035d002f
:1011300087835d00aaff07000c00e0000600320074
:101140006022b8006033b8000000520081805a006d
:1011500002015b0083815b004f0678004f05be00f3
:101160004f04be0000000600889fbe000202be00c1
:101170008001eb000e003700611cb8000801400040
:101180001243780008844000184178008301e80089
:10119000824f53000400320010002000080031008c
:1011a0000080eb000600370061025200e0825a0026
:1011b000e00f5200e08f5a00efff3a000000eb0012
:1011c0004f04be00000006000202be008001eb00da
:1011d00007003700611bb80006014000068340008d
:1011e0001649780061025200e0825a008301e8004b
:1011f000e00f5200e08f5a00f6ff3a0000000600b0
:101200000202be008001eb00050037000301400030
:101210000149780061025200e0825a008301e8002f
:10122000e00f5200e08f5a00f8ff3a00000006007d
:10123000800078000000eb00008140000000e80022
:101240001204e000fcff3a0001005100cf80de00f4
:10125000000006000002eb0004003700864a780018
:1012600061015100e08159000402e8006123b800e7
:1012700086024000e00f5100e08f590002003a0062
:101280008000eb000a003700068340001643780018
:101290000604e000f1ff3a00f9ff37000182420046
:1012a000004aeb0061015100e08159008100e80033
:1012b000e00f5100e08f5900f8ff3a0000000600ef
:020000040000fa
:1012c0000e630000506300006e630000de630000e8
:1012d000386400008663000084640000206300001e
:1012e0002c63000038630000446300009863000032
:1012f000a4630000b0630000f8620000bc6300005b
:101300000d0a000044480000435000002f50000028
:101310006f770000657200002065000076650000b0
:101320006e740000206f000063630000757200009f
:101330007265000064000000496e000074650000e2
:101340007266000061630000650000000102000099
:1013500003040000050600000f1000000102000059
:1013600003040000050600000f1000002e6c0000b2
:101370006f630000616c0000000000000c000000c2
:08138000f4010000f40100007b
:020000040000fa
:101388000200fa00004f7800600122001040780047
:101398009e4f50002f00320060012200104078005c
:1013a800e24f400013003200600122001040780034
:1013b8000080fb008000eb00fe09b900e002b900e4
:1013c8008401780003014100e30120000300b80014
:1013d800010141008200780042d92100020040004a
:1013e800e20120000300200061e12100e40802007e
:1013f80000000000600122001e4878001e407800ae
:10140800e24f4000150032001e80fb008000eb0018
:10141800fe09b900e002b900840178000301410027
:10142800e30120000300b8000101410082007800b8
:1014380042d9210002004000e20120000300200000
:101448008000780060e12100e4080200000000004c
:101458000300370000000000010037000000000012
:101468000080fa00000006000000fa007001220067
:1014780090407800600122001040780080cf500032
:101488003b0032007001220010407800e24f40001b
:101498002700320026db210070012200104078006e
:1014a8000080fb00cf80de00fe09b900e002b90031
:1014b8008401780003014100e30120000300b80023
:1014c80001014100820078007c004000e080480073
:1014d80042d92100020040009042780070012200a9
:1014e800104078000080fb00cf80de00fe09b900c4
:1014f800e002b9008401780003014100e301200003
:101508000300b800010141008200780042d921009f
:1015180002004000100078008002b1008402200020
:1015280013c0b30006017800854078000211070057
:101538006001220090407800700122000148780084
:1015480020e3210010417800b0f0800081fd2f00d9
:101558008080400020db2100840220008241780046
:101568000101780011c0b300f31007000100370033
:10157800000000000080fa00000006000c00fa00dd
:10158800d04c210010079800c2032000030020005f
:101598008000eb00a0dd210000090200000000002f
:1015a8000040eb00004f78006a0037001e407800ca
:1015b80073ff07001e80fb00cf80de00e609b9003c
:1015c800e002b900840178000301410063002000b3
:1015d8000300b8000101410082007800e29b280066
:1015e8000200400090409000414798001e80fb0098
:1015f800cf80de00e609b900e002b9008401780076
:1016080003014100630020000300b800010141000c
:101618008200780062004000e0804800e29b2800d9
:101628000200400090007800310798001e80fb00ff
:10163800cf80de00e609b900e002b9008401780035
:1016480003014100630020000300b80001014100cc
:101658008200780064004000e0804800e29b280097
:101668000200400090007800410798004e4090002a
:101678000080fb000000e000010032003400370069
:101688001e02900054079800be0090004e00900083
:10169800808040001e00900000804000a002b00042
:1016a800100798009e009000c0ff2100808f500016
:1016b800fcff3e0020e32100ce4090000148780066
:1016c8005e0090008002b000b0f08800b1f08000a9
:1016d8003e009000008040000000e800c0f0880054
:1016e800c1f080004e00900000804000d0f08800db
:1016f800d000200060f1880070f180000030a10067
:1017080070f1880058ff07001e80fb00cf80de00c4
:10171800e609b900e002b90084017800030141003c
:10172800630020000300b800010141008200780036
:10173800e29b2800020040009040780090dd2100e4
:1017480001487800ab0a07001e4fe8000100370087
:10175800ffff37001e4078000004e00093ff3200ce
:101768000080fa00000006000c00fa00100798003c
:10177800210798006247980043079800244f980073
:101788000040eb00004f7800210037001e40780031
:10179800fbfe070060f18000ed0f500018003a00d2
:1017a80031ff070090dd2100904078002e4890001e
:1017b80080cf500014003a0080212000b0ee88004d
:1017c8006e4090000004e0000b003a00ce0090004c
:1017d80011ee880070f180000030a00070f18800e0
:1017e8004000200060f18800ce00900081f1880060
:1017f8001e4078000a003700e0cfb3000800370029
:101808000000000001003700000000001e4fe80043
:101818001e4078000004e000dcff3200e0cfb30097
:101828000080fa00000006000200fa00004f78006d
:101838001e4078000004e0000200320010c0b3002f
:101848000d0037001e407800cdfe070071f18000c2
:1018580000002100008060000000e0000500320068
:1018680070f1800000c0a10070f1880010c0b300c2
:10187800010037000040eb000080fa00000006007d
:101888000200fa00004f78001e4078000004e000d3
:10189800020032000040eb00090037001e407800cb
:1018a800b7fe070060f180006700680000f0a7003d
:1018b8000000ea000000e9004f00de000040780068
:1018c8000080fa00000006000200fa00004f7800cd
:1018d8001e4078000004e00042003a001e407800f4
:1018e800a7fe070000f1800010f1880060f1800079
:1018f800e50f500012003200e50f500006003e00d0
:101908000000e0000e0032000080e900e10f500006
:101918002e003e000a003700eb0f5000190032007d
:10192800eb0f500003003e00e70f500027003e0079
:1019380005003700ee0f5000210032002300370069
:101948002c0a07002800370011c0b30010c1b300eb
:101958008506070020ee80000000e0000500320048
:10196800e1f08000f0ed8000808f5000f6ff3a0033
:1019780001003700000000008000200060f18800ae
:101988001900370011c0b30010c1b3007606070074
:1019980020ee80000000e00005003200e1f0800049
:1019a800f0ed8000808f5000f6ff3a00010037000c
:1019b80000000000c000200060f188000a00370025
:1019c800d000200060f18800070037008040eb005d
:1019d80040c1b30064060700060a070000000000c3
:1019e80001003700000000000080fa000000060037
:1019f8000200fa00004f78001e4078000004e00062
:101a080008003a001e4078005dfe070070f1800073
:101a18000030a10070f188001e407800aaff07007e
:101a280001003700000000000080fa0000000600f6
:101a38000200fa00004f78001e4078000004e00021
:101a4800020032000000eb000c0037001e40780056
:101a58004bfe070084fe0700a200200003002000c0
:101a680081dc210040e32100e408020000000000be
:101a780000ee8000f0f1880040e321000080fa00c9
:101a8800000006000200fa00004f78001e407800af
:101a98000004e0000b003a001e40780038fe070002
:101aa80071fe0700e1f08000f0ed8000808f5000ab
:101ab8000500320011c0b30000c1b3002a060700b8
:101ac80001003700000000000080fa000000060056
:101ad8000400fa00204798002e4090000004e0001f
:101ae800020032000000eb001d0037002e4090007d
:101af80023fe070060f18000004f78001e40780048
:101b0800e74f5000050032001e407800eb4f5000b0
:101b1800020032000000eb0011003700e1f0800005
:101b2800f0f08000808f500009003900c1f080007b
:101b3800b0f0800080805000f2f08000e0f080007b
:101b480000005100008040000000e9000400370058
:101b5800f1f08000e0f08000008050000000e90013
:101b68000080fa00000006000400fa0020479800f0
:101b7800314798002e4090000004e0000200320037
:101b88000040eb00430037002e409000fcfd0700aa
:101b98002e409000ceff0700000f78001e0078004e
:101ba8000000e00002003a000040eb003900370076
:101bb8001e007800e10f500002003a002e4090000d
:101bc800b0ff070071f18000001020000080600065
:101bd8000000e0000b003a00c1f08000b0f0800087
:101be800008050000000d1009e0f50000500390011
:101bf8002e409000a3ff070070f180000080a00035
:101c080070f188006301470020e3210090407800cc
:101c1800e0f080001400200013c0b300460f070056
:101c2800e0f080000000e800e0f08800e1f08000cb
:101c3800c0f08000808f500002003900b0f08000b2
:101c4800e0f088001e007800e10f500003003a0021
:101c58002e4090008bff07000d00370071f18000c7
:101c680000022000008060000000e00008003a0048
:101c780070f180000050a00070f1880050840200cc
:101c880000000000000078007900400040f1880062
:101c980010c0b3000080fa00000006000c00fa0033
:101ca8006047980041079800520798000000eb0031
:101cb800100798006e4090000004e0000200320017
:101cc8000000eb005e0037006e409000acfd07009e
:101cd8006e4090007eff0700200798002e009000bd
:101ce8000000e00004003a006e40900065ff070025
:101cf8000000eb0052003700ae009000010f7800a2
:101d0800ae0090005e009000808f50000200360008
:101d1800de009000010f780071f1800000102000b3
:101d2800008060000000e0000c003a00c1f0800074
:101d3800b0f08000008050008000d1002e0090009c
:101d4800808f5000050039006e4090004dff07005d
:101d580070f180000080a00070f18800e0f0800041
:101d68009e004000c0f08000808f500014003900b1
:101d7800c1f08000e0f0800000805000100798005b
:101d88004e01900020e3210090407800e0f08000b0
:101d98001e02900013c0b300e70e07001e0090005b
:101da8008000eb004e0190000000410040079800c1
:101db8001e0090001e0f1000b0f08000e0f08800b8
:101dc8004e01900020e3210090407800e0f0800070
:101dd8001e02780013c0b300d70e0700e0f08000a1
:101de8001e004000e0f08800ae0090005e00900009
:101df800808f500003003e006e40900021ff0700d6
:101e08000d00370071f180000002200000806000a2
:101e18000000e00008003a0070f180000050a000c7
:101e280070f1880050840200000000000000780073
:101e38007900400040f188001e0090001e0040001c
:101e48000080fa00000006000400fa00004f780045
:101e5800110798001e0090001809020000000000f9
:101e680000007800000178009e0090001e40780075
:101e78008aff07008000eb001e019000000041006f
:101e88000080fa00000006000600fa0040479800ab
:101e98004e4090000004e000020032000000eb0019
:101ea8000b0037004e40900035fd0700c1f0800060
:101eb800b0f0800000805000000fe9004e40900014
:101ec80003ff0700100798001e0090001e00100076
:101ed8000080fa00000006000200fa00004f7800b7
:101ee8001e4078000b0007000000e00007003200e9
:101ef8001e40780022fd070000f1800010f18800e4
:101f080011c0b30000c1b300170507000080fa0034
:101f1800000006000200fa00004f78001e4078001a
:101f28000004e000020032000000eb00120037005d
:101f38001e40780012fd070001f1800010f18000ba
:101f4800808f50000400390001f1800010f18000fa
:101f58000080500008003700d1f0800010f18000a8
:101f68008080500002f18000c0f080000000510025
:101f7800008040000000e8000080fa000000060031
:101f88000600fa0020479800210798002e4090008c
:101f9800e0ff0700000f78001e0078000000e00056
:101fa80002003a000040eb002c0037002e40900061
:101fb800f3fc07002e0090000000e000090032004a
:101fc80020e321001041780011f180002e009000dc
:101fd80014002000824178000101780011c0b3008c
:101fe800550e070010f180000000e80010f188008d
:101ff80011f18000d0f08000808f50000200360080
:10200800c0f0800010f188001e007800e10f500039
:1020180004003a0070f1800000a0a00070f1880070
:102028000d00370071f18000000220000080600080
:102038000000e00008003a0070f180000050a000a5
:1020480070f1880050840200000000000000780051
:102058001008b00040f1880010c0b3000080fa00fa
:10206800000006000a00fa0040479800310798006f
:10207800420798000000eb00000f78004e409000e7
:10208800a4ff0700100798001e0090000000e00061
:1020980002003a000000eb00530037004e40900069
:1020a800b7fc0700ce0090001e009000808f500003
:1020b800020036009e0090004107980011f1800050
:1020c8004e00900080804000d0f08000808f50004b
:1020d8001a003600d1f0800010f180000080500016
:1020e800000fe8003e0090000000e0000e00320003
:1020f80020e321001041780011f180003e0090009b
:102108001e027800824178000101780011c0b300f6
:10211800090e07001e0078008000eb003e019000c9
:1021280000004100300798004e0090001e0050004b
:1021380040079800c0f0800010f188003e00900031
:102148000000e0000900320020e32100104178007f
:1021580011f180003e0090004e029000824178000c
:102168000101780011c0b300f30d070011f18000e0
:102178004e0090000080400010f188004e00900052
:102188001e004000400798009e0090004e009000fe
:10219800808050004e009000808f500004003e0068
:1021a80070f1800000a0a00070f188000d003700d9
:1021b80071f1800000022000008060000000e00053
:1021c80008003a0070f180000050a00070f188000b
:1021d8005084020000000000000078001008b000e1
:1021e80040f188004e0090000080fa0000000600d0
:1021f8000600fa00404798004e4090000004e000b6
:10220800020032000000eb000a0037004e40900048
:102218005bfc0700d1f08000c0f08000008f500008
:102228004e4090003bff0700100798001e009000ea
:102238001e0010000080fa00000006000e00fa00e0
:102248006047980041079800520798006307980074
:102258006e4090000004e00003003a005e00900029
:102268000000e00002003a000000eb0042003700e6
:102278006e40900042fc07006e40900025ff07006a
:1022880010079800ee0090005e00900080804000eb
:102298001e009000808f5000040036009e009000c1
:1022a8006e009000008050005007980011f18000e7
:1022b8006e009000008f4000d0f080009e0f50000c
:1022c80005003100d1f08000c0f08000008050008f
:1022d8000080ea001e0f4000d0f080001e00500071
:1022e8000000e80020079800de0090002e00900013
:1022f800808f500009003e0020e3210090407800c4
:102308004e0090005e029000814178001e01780026
:1023180011c0b300880d07001600370020e3210024
:10232800904078004e0090002e0290008141780085
:102338001e01780011c0b3007f0d0700de00900079
:102348002e0090008081500020e321001041780089
:10235800c1f080004e0290002e0090000000420064
:1023680003027800824178000101780011c0b300af
:10237800710d07005e0090000080fa000000060062
:102388000600fa002047980021079800ae01900047
:10239800120020008e0078002e409000a7ff070052
:1023a8001e4078000080fa00000006003c00fa0099
:1023b80000779800111f9800221f9800331f98007b
:1023c800441f9800257f98000e7090000004e000dc
:1023d800020032000080eb00300137002e18900018
:1023e8000000e00002003a000000eb002b0137007b
:1023f8000e709000e2fb07000e709000c5fe07000b
:10240800be18900001005000100798009e00900030
:102418002e189000808f5000020031000080eb00e1
:102428001e0137004e1890000000e0000600320040
:102438009e0090004e189000808f500002003600d9
:10244800ce1890001107980011f180003e189000f6
:102458000080400030079800d1f080003e009000d6
:10246800808f500007003100d1f08000c0f080005c
:10247800008050000080ea00be009000008040000c
:1024880030079800be009000010f7800d1f080005e
:102498003e009000008050000000e80020079800ef
:1024a800be18900031079800ae1890006107980098
:1024b8009e189000710798001e18900090407800b0
:1024c800114f98001e1890000000e800101f980097
:1024d8000040eb00304f98002e7890000004e00098
:1024e8000c0032009e48900000c6b30080cf500018
:1024f800080036009e489000a0c7b30080cf500067
:1025080004003e009e48900000ceb30000c040008a
:10251800104f980000c2b300204f98002e4890003a
:102528008080fb002e009000808f50000200360053
:102538002e009000204f98002e4890008080fb00cd
:102548001e009000808f5000020036001e00900090
:10255800204f98002e4890000081fb0020e32100c6
:1025680090407800700047000202780081417800ae
:102578001e01780011c0b300ef0c07002e48900030
:102588000080fb001e0f40002e4890000080fb00da
:10259800ae00900000805000200798002e009000a8
:1025a8000000e00004003a00c1f08000010f78004c
:1025b8000080eb00200798002e7890000004e000cf
:1025c8006d0032000040eb00004f980065003700b6
:1025d8000e4890000080fb00cf80de0070004000b5
:1025e800ee40780000c6b30080cf500014003600db
:1025f8000e4890000080fb00cf80de007000400095
:10260800ee407800a0c7b30080cf50000c003e0019
:102618000e4890008081fb000e4890000080fb006f
:10262800cf80de0070004000ee40780000ceb3009e
:1026380000c140006118b9007000400002777800be
:102648000e4890000080fb00cf80de007000400044
:10265800ee4078001e48900080cf500023003a00da
:102668002e1890000000e900201f98002e189000f6
:102678000000e00008003a00be0090006e009000e4
:10268800808050000e4890000080fb0000804000d1
:102698000000e800810037001e1890009040780084
:1026a800114f98001e1890000000e800101f9800b5
:1026b80010c0b300304f98009e48900000c6b30089
:1026c80080cf5000240036009e489000a0c7b30079
:1026d80080cf500020003e009e48900000ceb300fe
:1026e80000c04000104f98001b003700ee0090001b
:1026f800211f98003e4890000004e00016003200b8
:10270800fe009000111f98001e189000904078005d
:10271800114f98001e1890000000e800101f980044
:102728009e48900000c6b30080cf500008003600d5
:102738009e489000a0c7b30080cf500004003e0020
:102748009e48900000ceb30000c04000104f980093
:102758000040eb00304f98000e4890000040e80021
:10276800004f98008e4890002e48900080cf50006f
:1027780097ff3900380037000040eb00004f980001
:10278800310037000e4890000080fb00cf80de004b
:1027980070004000ee4078001e48900080cf500046
:1027a80017003a002e1890000000e900201f98003a
:1027b8002e1890000000e00008003a00be009000cb
:1027c8006e009000808050000e4890000080fb0052
:1027d800008040000000e800300037001e1890001c
:1027e80090407800114f98001e1890000000e800f3
:1027f800101f980010c0b300304f98000f0037002a
:10280800ee009000211f98003e4890000004e00070
:102818000a003200fe009000111f98001e18900058
:1028280090407800114f98001e1890000000e800b2
:10283800101f98000040eb00304f98000e489000a1
:102848000040e800004f98008e4890002e48900005
:1028580080cf5000cbff39002e4890000080fb004d
:102868009e00900000805000100798009e00900085
:102878002e189000808f5000020031000080eb007d
:10288800060037002e4890000080fb00be00900034
:1028980000804000300798001eff37000080fa00d3
:1028a800000006000800fa00004f78001147980061
:1028b8001207980023079800644798000e00e80064
:1028c800ee4290002e0290009e019000120020001f
:1028d800800078001e407800b4fe07000080fa00ef
:1028e800000006000600fa00881f78000040eb0090
:1028f800004f7800e60137001e407800a0fa070074
:102908000040eb00304798000040eb00104798006b
:102918000040eb002047980071f180000020200063
:10292800008060000000e00005003a0071f18000be
:1029380000402000008060000000e0000f0032002e
:10294800802e0200000000000004e0000b003200ae
:1029580000c1b3003047980070f180004a00de00e3
:10296800614060000080fb0000f0a7000000ea0062
:102978000000ea004f00de001047980071f1800067
:1029880000022000008060000000e0000900320022
:1029980048f1800050840200000000000000780028
:1029a800000054000000e00002003c0000c1b30039
:1029b8003047980071f1800000042000008060001a
:1029c8000000e0000900320058f180005084020045
:1029d8000000000000007800000054000000e00043
:1029e80002003c0000c1b3003047980060f180004d
:1029f800eb0f50000b003a0058f1800050840200a1
:102a08000000000000007800000054000000e00012
:102a180004003c0010c1b30030479800c0002000fb
:102a280060f1880060f18000e40f500097003a00e0
:102a38000000eb00200798008f0037002e00900060
:102a48008000eb00f409b900e002b90084017800c5
:102a580003014100430120000300b80001014100c7
:102a68008200780070004000e0804800a2dd21006c
:102a780002004000100078000000e00082003200f0
:102a88002e0090008000eb00f409b900e002b900c4
:102a98008401780003014100430120000300b800cd
:102aa800010141008200780070004000e080480089
:102ab800a2dd2100020040009000780080f1800033
:102ac800808f500069003a0067fa07002e009000d6
:102ad8008000eb00f409b900e002b9008401780035
:102ae80003014100430120000300b8000101410037
:102af80082007800a2dd210002004000a200200030
:102b0800030020008000780080dc2100e408020037
:102b1800000000002e0090008000eb00f409b900ce
:102b2800e002b9008401780003014100430120005c
:102b38000300b80001014100820078006a004000eb
:102b4800e0804800a2dd210002004000100078006b
:102b580000ee88002e0090008000eb00f409b90018
:102b6800e002b9008401780003014100430120001c
:102b78000300b80001014100820078006c004000a9
:102b8800e0804800a2dd2100020040009000900093
:102b98001000780061004000e0804800d0ed880017
:102ba800e1ed880051ee800040ee8000808040001a
:102bb80000ee80008080400010ee800000806800f9
:102bc80080f1880020c1b3003047980060002000e1
:102bd80060f18800ae009000c0fe2f008088b90028
:102be80083022000808141002e0090008000eb00cd
:102bf80061004000e0804800f409b900e002b90033
:102c080004014100440120000400b8000101410012
:102c180082007800a2dd21000200400080027800d6
:102c28002e0090008000eb00f409b900e002b90022
:102c380004014100440120000400b80001014100e2
:102c480082007800a2dd2100020040000302780023
:102c580013c0b3000501780011c0b300360b07009c
:102c68000000eb0090f08800080037002e0090006c
:102c78000000e800200798002e009000e20f5000a6
:102c88006eff360001003700000000003e40900053
:102c98000004e000090032001e4090000004e0003b
:102ca800020032000040eb000100370010c0b30002
:102cb800804078003e409000ab01070070f1800032
:102cc800700060000000e0002d003a0060f1800014
:102cd800e70f5000e6003a001e84020000000000e2
:102ce8000001be0020f1800031f180000000510099
:102cf80081805900e00f5000e08f5800de00350059
:102d080070f1800067006000e60f50000e003a0086
:102d180070f180004300de00614060003047980099
:102d28001e407800e8fa07001e407800e6fa07001f
:102d38003e4090000004e000d1003a00e00020008e
:102d480060f18800d1003700c7f9070021c0b3003f
:102d580000c1b300840107001e84020000000000c7
:102d68000001be00a02424009101200002004000c0
:102d78008380480020f1880031f18800c3003700c3
:102d88001e840200000000000001be0020f1800047
:102d980031f180000000510081805900e00f50009f
:102da800e08f5800b8003500aff9070060f18000e7
:102db800e80f500045003200e80f500007003e00c1
:102dc800e60f50001e003200e60f500031003e00b2
:102dd800e50f50000a0032006c003700ea0f50007f
:102de8004d003200ea0f500046003900eb0f50004a
:102df80028003200ec0f5000550032006300370005
:102e080020c0b3003047980010c0b30010479800a6
:102e180080dd210010407800e34f50005a00360052
:102e280080dd210041c0b3000148780000a12600e0
:102e38008102200090ed8800a1ed88005300370042
:102e480080dd210010407800e14f500005003e0071
:102e580020c1b3003047980010c0b3001047980055
:102e68004a00370070f18000680060000000e00050
:102e78000500320040c1b3003047980010c0b300cd
:102e8800204798004100370020c0b3003047980021
:102e98003e00370080dd210010407800e44f5000ec
:102ea80005003e0000c1b3003047980010c0b300d1
:102eb80010479800350037008000200060f1880036
:102ec80010c1b300304798003000370080dd210082
:102ed80010407800e44f500005003e0010c1b300d8
:102ee8003047980010c0b3001047980027003700fb
:102ef80040c1b3003047980010c0b3002047980085
:102f08002200370040c1b3003047980010c0b3001a
:102f1800204798001d00370080dd21001040780010
:102f2800e44f500005003e0000c1b3003047980050
:102f380010c0b300104798001400370040c1b30018
:102f48003047980010c0b300204798000f003700a2
:102f580080dd210010407800e44f500005003e005d
:102f680010c1b3003047980010c0b3001047980054
:102f78000600370040c1b3003047980010c0b300c6
:102f88002047980001003700000000003e409000f4
:102f98000004e000310032001e4090000004e00010
:102fa8002b00320080dd2100104078008040e800ce
:102fb80080dd21000148780090ed8000a1ed8000bf
:102fc800000040008180480090ed8800a1ed880055
:102fd800f1ed8000f0f0800000805000200798009c
:102fe800f1ed8000f0f08000808f50000600310085
:102ff800c1f08000b0f0800000805000ae0090006a
:103008000080400020079800b2ed8000c3ed8000ea
:103018002e0090008000eb000000510081805900d4
:10302800b0ed8800c1ed880021ee80002e009000f0
:103038000080400020ee8800f0f08000f0ed88006d
:103048008040eb003e409000c700070003003700b7
:1030580011c0b3003e409000c30007002e4090000e
:103068000004e0000900320062040700070037008e
:1030780000000000050037000000000003003700d2
:103088000000000001003700000000001e4fe800ab
:103098001e4078000004e00017fe32000000eb003c
:1030a80020079800510037002e0090008000eb00a8
:1030b800f409b900e002b900840178000301410075
:1030c800430120000300b80001014100820078009c
:1030d80070004000e0804800a2dd210002004000ae
:1030e800100078000000e000440032005084020024
:1030f80000000000800178002e0090008000eb00a6
:10310800f409b900e002b9000401410044012000bb
:103118000400b800010141008200780072004000fc
:10312800e0804800a2dd2100020040001000780085
:103138008080510060bc2400808f50002800360039
:10314800ae009000c0fe2f008088b90083022000e6
:10315800808141002e0090008000eb00610040005b
:10316800e0804800f409b900e002b9000401410018
:10317800440120000400b8000101410082007800e9
:10318800a2dd210002004000800278002e0090009d
:103198008000eb00f409b900e002b9000401410025
:1031a800440120000400b8000101410082007800b9
:1031b800a2dd2100020040000302780013c0b30022
:1031c8000501780011c0b300db0907000000eb001f
:1031d80090f088002e0090000000e9002007980079
:1031e8002e0090000000e800200798002e009000b4
:1031f800e20f5000acff360001003700000000006d
:103208004f0478000080fa00000006002c00fa0045
:103218003017980041179800521798003e119000f7
:103228009281fb00124290000482fb004822dd00dc
:103238008481710003007800a24190008381fb0023
:10324800324190000281fb004811dd0002817100cb
:1032580082007800300f9800410f98004e109000bf
:103268001001780090019000520f9800630f9800a9
:103278000040eb00605f980060c0b300705f98008a
:10328800de119000031798000e10900032530200d0
:10329800000000000017980076004700c1002000d9
:1032a800ac530200000000000080ea0010179800ec
:1032b8005e1090009632020000000000201798006f
:1032c8009e1090002e109000808f50000400320055
:1032d800982e02000000000010c0b3002000370044
:1032e8000000eb00fa7f0200000000000e80e800fa
:1032f8004101200084350200000000000e80e80033
:103308008a0307007e0090004400de006f406000e2
:1033180080407800200020000008dd00744f500035
:103328001e80fb00de1090000080500074005000ea
:10333800501798000e80e800be1090000a0207009f
:103348000004e000030032000e80e800de10900068
:1033580067040700982e02000000000010c0b300a8
:103368000080fa00000006002a00fa00006f9800aa
:10337800116f98003cf807000e6890000080fb0071
:1033880061006000004078000004e00006003200a0
:1033980070f1800000b0a00070f188000e68900005
:1033a8000004a100006f980070f180000050a10097
:1033b80070f1880070f180000060a10070f1880051
:1033c80070f180000070a10070f1880070f1800039
:1033d8000090a10070f1880070f1800000a0a100a9
:1033e80070f1880070f180000080a10070f1880001
:1033f80000000000802e0200000000000004a2006f
:103408000004e000fbff3a000e6890000080fb001b
:10341800660060000000e000030032000000eb00de
:10342800000f78007c003700e1f08000f0ed8000ac
:10343800808f500003003a000000eb00000f780076
:1034480067003700e1f08000f0ed8000808f5000c9
:103458001d003600e1f08000f0ed8000008f500084
:1034680020ee80009e0f50000200310021ee800007
:10347800010f7800b0ee80009e0f5000050031006b
:10348800b2ee8000020f780070f1800000a0a0006a
:1034980070f1880020e3210090407800f0ed800072
:1034a8001e02780081417800000178008040eb001e
:1034b80020f1200020090700f0ed80001e004000e8
:1034c800f0ed880046003700c1f08000f0ed800084
:1034d8000080500030179800be109000e0f0800087
:1034e80080804000b0f08000008f500020ee800007
:1034f8009e0f50000200310023ee8000030f780079
:10350800b0ee80009e0f500005003100b1ee800043
:10351800010f780070f1800000a0a00070f1880011
:103528003e1090009e0f5000020036001e017800e9
:10353800321798003e11900020e321009040780057
:10354800f0ed8000020278008141780000017800e7
:103558008040eb0020f12000f70807003e109000a3
:103568001e001000301798003e1090000000e00088
:103578000e003200be11900020e3210010417800b7
:10358800b1f08000c4f08000f0ed8000000252002d
:1035980020f12000000042000302780082417800f8
:1035a800010178008040eb00e3080700f0ed80009f
:1035b8001e004000f0ed8800f1ed8000c0f08000b2
:1035c800808f500006003900f1ed8000b2f08000d5
:1035d800c0f080000000510000804000f0ed88003d
:1035e80071f1800000802000008060000000e00091
:1035f8000900320020ee80009e0f500006003200c5
:10360800b0ee80009e0f5000030032000e6890005c
:103618000004a000006f98001e0078000000e00081
:1036280005003a000e6890000080fb00630060000f
:103638000000e0002300320020ee80001e00500051
:1036480020ee88001e0078000000e0000300320031
:103658000e6890000034a000006f98001e6890006b
:103668000080fb0061006000004078000004e0007a
:103678000700320080dd21008040eb00014878001f
:10368800106a28002100200090ed8800a1ed880034
:103698001e840200000000000001be0090ed8000c2
:1036a800a1ed8000020040008380480020f18800de
:1036b80031f1880070f180000040a00070f18800ae
:1036c8003a0037001e6890000080fb00620060002e
:1036d8000000e0001400320070f1800067406000d4
:1036e8000040e800674060000080fb006700600061
:1036f80072f1800081ff2f008100610001007000dd
:1037080070f18800b0ed8000c1ed800061005000cc
:10371800e0805800b0ed8800c1ed8800100020005e
:10372800000f78002100370070f180007000600001
:103738000000e0001d0032001e6890000080fb00c1
:10374800610060000000e0000f003a0080dd210009
:10375800104078000004e0000b00320080dd2100fa
:10376800104078008040e90080dd210001487800a1
:1037780090ed8000a1ed80008100d1000080d30091
:1037880090ed8800a1ed88001e8402000000000072
:103798000001be0090ed8000a1ed80000200400015
:1037a8008380480020f1880031f1880010ee800005
:1037b8002007980000ee800030079800b0ed8000e8
:1037c800c1ed80004007980051079800d0ed8000b7
:1037d800e1ed800060079800710798008e0890005e
:1037e800f0ff230000806000000f98008e08900012
:1037f80000ff2f0000806000000f98008e69900085
:10380800135798000000eb00300f9800b2ed8000cd
:10381800c3ed80001e0078008000eb00020040002d
:1038280083804800b0ed8800c1ed88000e689000e4
:103838000080fb00620060000000e0001c00320015
:103848000e6890000080fb00700060000000e0003f
:1038580003003a006000b8006007980071079800fc
:10386800a0ee8000620060000000e0000700320067
:103878004e009000de00900061005000e08058008b
:10388800400798005107980009003700b0ed800004
:10389800c1ed800061004000e0804800b0ed880084
:1038a800c1ed8800a0ee80000010a000a0ee880006
:1038b8000e6890000080fb00610060000040780006
:1038c8000004e00014003200a0ee800061006000f7
:1038d8000000e000070032004e009000de0090007b
:1038e80061005000e0805800400798005107980098
:1038f80009003700b0ed8000c1ed80006100400094
:10390800e0804800b0ed8800c1ed8800a0ee80009e
:103918000000a000a0ee880001f1800010f18000f6
:10392800808f500009003900d1f08000c0f080007d
:103938008080500012f1800000f1800000005100ea
:1039480000804000100f98000500370011f180003a
:1039580000f18000008050000000e900100f98007e
:10396800d82e020000000000100798009e0090006a
:10397800f0032000808f500003003e000000eb00a1
:1039880010079800030037001e0090000004b100e3
:10399800100798009e0890001e009000808f50002d
:1039a800020036001e009000100f980064004700c7
:1039b800de0107009e007800748f40008e0890009a
:1039c800f0f02f00808060000005200001007000ea
:1039d800000f98000e6890000080fb0062006000f5
:1039e8000000e000150032001e017800640f41005d
:1039f80020c0b300005f980040c0b300105f98007b
:103a080020802100500f98000e0890004400de002e
:103a18006f4060000040e8006f4060000080fb00dd
:103a28006f0060004400dd000e099000f1f02f00e7
:103a38008100610001007000000f980062502100b1
:103a48001281fb00735021009381fb00c819dd002f
:103a58000301710002007800825021001281fb00ee
:103a6800935021009381fb00c819dd000301710008
:103a780082007800600f9800710f980042ee800075
:103a880053ee800002179800131798000040eb00cf
:103a98004067980060c0b300506798009e017800a6
:103aa800331798003e1090003253020000000000c7
:103ab800301798007c004700c1002000ac5302007a
:103ac800000000000080ea00200f9800a0ee20000f
:103ad800d2310200000000001e01780061c0b3006e
:103ae80080dc2100587f02000000000064004700cd
:103af8004101200094360200000000000e6890008a
:103b08000080fb00620060000000e000040032005a
:103b180078004700410020009436020000000000b1
:103b2800e0ef200004320200000000001e007800d0
:103b3800963202000000000010079800e0f0200014
:103b4800d2310200000000000e80e80021002000b1
:103b580094360200000000007430020000000000eb
:103b68000080fa00000006000a00fa0030079800fa
:103b7800410798003e009000100090000000e0000f
:103b880002003a000040eb0066013700e0cfb300c6
:103b9800104798004e009000a04090008180fb00e4
:103ba800304090000080fb004800dd00008070007d
:103bb800800078004e0090001081fb0010409000bb
:103bc8000080fb004800dd0000007100808040009c
:103bd8003e00900010007800808040003e00900079
:103be8001000900000806800200798000040eb005b
:103bf800004f78003a0037001e407800e0f50700d3
:103c080060f18000ed0f50002f00320060f180005d
:103c1800e40f500008003a0081f180003e00900057
:103c280010009000808f500029003a009e407800d4
:103c3800114798002900370081f180002e0090007c
:103c4800808f500024003a0007f607003e009000dd
:103c58009000900010ee8000808f50001f003a0006
:103c68003e0090009000780000ee8000808f5000a9
:103c78001a003a004e0190009281fb001242900017
:103c88000482fb004822dd00848171000300780073
:103c9800a24190008381fb00324190000281fb0029
:103ca8004811dd00028171008200780042ee800038
:103cb80053ee8000820f5000838f580007003a00af
:103cc80010c0b300170137000000000003003700e0
:103cd8000000000001003700000000001e4fe8004f
:103ce8001e4078000004e000c3ff32001e40900030
:103cf800e24f4000180032001e409000a0f5070077
:103d0800d9f507001e409000e24f40001200320033
:103d18002e02900084f18800a200200003002000f9
:103d2800ce00900080dc2100e408020000000000c2
:103d38003e0090001000780000ee88003e009000e1
:103d48001000900010ee8800b0f08000f0ed8800c0
:103d580010c0b300f30037003e009000e000900070
:103d680000202000008060000000e00002003a000f
:103d78000040eb00eb00370090f080000000e0000e
:103d8800020032000040eb00e60037000000eb00c4
:103d980010079800710037001e0090008000eb00ab
:103da800f409b900e003b900860178000301410075
:103db800430120000300b80001014100820078009f
:103dc80070004000e0804800a2dd210002004000b1
:103dd800100078000000e000640032001e0090002f
:103de8008000eb00f409b900e002b9008401780012
:103df80003014100430120000300b8000101410014
:103e08008200780070004000e0804800a2dd2100b8
:103e180002004000900078003e00900010009000e2
:103e2800808f500045003a001e0090008000eb0093
:103e3800f409b900e003b9008601780003014100e4
:103e4800430120000300b80001014100820078000e
:103e58006a004000e0804800a2dd21000200400026
:103e6800900078003e00900010007800808f50008d
:103e780034003a001e0090008000eb00f409b900fd
:103e8800e002b900840178000301410043012000e9
:103e98000300b8000101410082007800a2dd210082
:103ea8000200400010027800900290004e0190003d
:103eb8009281fb00124390000683fb004833dd002b
:103ec8008681710003007800a24190008381fb0085
:103ed800324190000281fb004811dd00028171002f
:103ee80082007800800f5200818f5a0017003a0034
:103ef8005084020000000000800178001e0090003d
:103f08008000eb00f409b900e002b90004014100a7
:103f1800440120000400b80001014100820078003b
:103f280072004000e0804800a2dd2100020040004d
:103f3800030878000040eb007a003700000000001a
:103f480003003700000000000100370000000000f7
:103f58001e0090000000e800100798001e00900066
:103f6800e20f50008cff360001003700000000000f
:103f78000040eb00004f7800660037001e407800d4
:103f8800fff4070070f18000680060000000e000a6
:103f98005c00320034f5070011ee80003e0090000e
:103fa80010009000808f500058003a001e009000ca
:103fb8008000eb00f409b900e003b900860178003d
:103fc80003014100430120000300b8000101410042
:103fd80082007800a2dd210002004000a20020003b
:103fe80003002000ce009000e4080200000000005a
:103ff8003e009000900178001e0090008000eb00c9
:10400800f409b900e002b9000401410044012000ac
:104018000400b80001014100820078006a004000f5
:10402800e0804800a2dd210002004000030878007b
:104038003e00900020029000b00290001e00900008
:104048008000eb00f409b900e003b90086017800ac
:1040580003014100430120000300b80001014100b1
:10406800820078006c004000e0804800a2dd21005a
:10407800020040000488be003e00900090019000bd
:104088001e0090008000eb00f409b900e002b900be
:1040980004014100440120000400b800010141006e
:1040a8008200780070004000e0804800a2dd210016
:1040b800020040000308780050840200000000005d
:1040c800800178001e0090008000eb00f409b90020
:1040d800e002b90004014100440120000400b800d6
:1040e800010141008200780072004000e080480031
:1040f800a2dd210002004000030878000040eb0028
:104108000800370000000000010037000000000030
:104118001e4fe8001e4078000004e00097ff3200c0
:104128000040eb000080fa00000006000200fa00e0
:10413800000f78001e00780010007800325302004b
:10414800000000009e007800800878001e007800bb
:104158001000900032530200000000009e0078001a
:10416800900098001e007800b00090002000900099
:104178004c530200000000001e0178002001980046
:10418800310198001e007800d00090004000900097
:104198004c530200000000001e0178004001980006
:1041a800510198001e007800700090003253020000
:1041b800000000009e007800f00098001e007800c3
:1041c8000008900032530200000000009e007800b2
:1041d800800898001e0078001008900032530200f2
:1041e800000000009e007800900898000080fa0007
:1041f800000006000000fa00881f78009af4070003
:1042080010ee800080f18800b0f08000e0f08800b7
:10421800b0f08000f0f08800c0f0800000f1880065
:10422800c0f0800010f1880070f180006800600024
:104238000000e000020032004000200001003700ca
:10424800d000200060f1880071f1800080ff2f000d
:104258000080600070f1880070f180000040a100cb
:1042680070f1880070f180000050a10070f18800a2
:1042780070f180000060a10070f1880070f180008a
:104288000070a10070f1880070f180000080a1002a
:1042980070f1880070f180000090a10070f1880032
:1042a80070f1800000a0a10070f1880070f180001a
:1042b80000b0a10070f1880070f1800000c0a0007b
:1042c80070f18800a0ee80000000a100a0ee880038
:1042d800a0ee80000010a100a0ee8800a0ee8000f3
:1042e8000030a100a0ee8800a0ee80000040a100f0
:1042f800a0ee8800b0f08000f0ed880068db2100b7
:10430800ee4d020000000000000c780068db210080
:10431800ee4d020000000000100498000080eb0041
:1043280090ee88001000200020ee88004f047800ee
:104338000080fa00000006000400fa00881f7800d8
:10434800c0002000fa7f020000000000543502007f
:1043580000000000004f78009e80fb00000f200046
:10436800008060004280de0000407800744f5000fa
:104378001e4078000004e00002003a00802120007e
:1043880058003700710020000000eb00843502005f
:104398000000000041003700543502000000000012
:1043a800104798001e4090000004e00043003200cf
:1043b8001e409000e14f5000370032001e40900030
:1043c800e24f500020003a001e407800e24f5000b3
:1043d8003c0036000000eb0010079800543502003e
:1043e80000000000104798001e409000e44f500065
:1043f80009003a000e80e8000004e8005435020085
:1044080000000000004c78000e84e80054350200db
:1044180000000000004c78009e00900070212000f1
:10442800808f5000290036009e009000405b2000dd
:10443800808f500002003600405b200029003700c2
:104448001e009000270037001e407800e14f500002
:104458002000360054350200000000001047980084
:104468001e4090009e40780080cf50001b0039000d
:104478001e4090000080fb00800078000000eb00e8
:1044880084350200000000009e4078001e40900025
:1044980000cf500001003700000000001e80fb0024
:1044a8000000ea004f00de00004078001e4fe900df
:1044b8000004e000b8ff3a000900370000000000df
:1044c800070037000000000005003700000000006a
:1044d8000300370000000000010037000000000062
:1044e800802120004f0478000080fa0000000600b8
:1044f8002000fa00600f9800710f98006e08900075
:10450800d0489000714f98006e08900040019000cc
:10451800d001900042079800530798006e08900059
:1045280020019000b0019000020f9800130f98002e
:1045380071f1800080ff2f000080600070f188001a
:1045480070f18000700060000000e00009003a008f
:104558001e840200000000000001be00a024240008
:1045680091012000020040008380480020f188006b
:1045780031f1880060f18000e40f50000300320040
:10458800e50f50002b003200780037007e4890007d
:104598000080fb00640060000000e00002003200c0
:1045a80014ff07002d0437007e4890000080fb00b0
:1045b800700060000000e000090032004e01900029
:1045c800de019000b2ed8800c3ed88008040eb006a
:1045d80040c0b30064fb070006ff07001f04370054
:1045e8007e4890000080fb00620060000000e00050
:1045f8000e0032000e0890009e08900061004000f6
:10460800e0804800d0ed8800e1ed88004aff07000f
:10461800b0ee880011c0b30020c1b30052fb070000
:104628006000200060f188000c043700f1fe0700ec
:104638000a0437007e4890000080fb006400600098
:104648000000e000f2033a007e4890000080fb0082
:10465800700060000000e00017003200b2ed80003a
:10466800c3ed80004e009000de009000800f5100e6
:10467800818f590010003200b2ed8000c3ed800038
:10468800020f9800130f98004e019000de01900071
:10469800b2ed8800c3ed880011c0b30040c0b3007c
:1046a80031fb07000e0990009e099000b2ed8800ca
:1046b800c3ed8800e90337007e4890000080fb00c6
:1046c800620060000000e000d30332000e08900092
:1046d8009e08900061004000e0804800d0ed88000e
:1046e800e1ed88006e0890007000900020ee8800d0
:1046f80011ff0700b0ee88007e4890000080fb00a4
:10470800700060000000e0001200320011c0b30029
:1047180000c1b30014fb07007000200060f188009e
:104728001e840200000000000001be00a024240036
:1047380091012000020040008380480020f1880099
:1047480031f1880070f180000040a10070f188000c
:10475800c203370011c0b30020c1b30002fb070039
:104768006000200060f18800bc033700fe0990005b
:10477800630798007e4890000080fb00610060009d
:10478800004078000004e000030032006e00900052
:104798000000e800600798007e4890000080fb0059
:1047a800620060000000e000030032006e0090002c
:1047b8000000e8006007980001f1800010f1800017
:1047c800808f500009003900d1f08000c0f08000cf
:1047d8008080500012f1800000f18000000051003c
:1047e80000804000300798000500370011f1800074
:1047f80000f18000008050000000e90030079800b8
:10480800d0ed8000e1ed80000e0990009e09900037
:104818000000510081805900200f9800310f980046
:10482800ae089000410f98000040eb00604f9800e0
:104838006e0090000000e000350032003e0090005d
:104848000000e000480032002e089000be089000ea
:10485800e00f5000e08f58000a0035003e0090003d
:104868006101b8002e089000be089000800f51002a
:10487800818f59000300360010c0b300604f9800c4
:10488800140037006e0090006101b8002e089000f7
:10489800be0890000200400083804800e00f5000ee
:1048a800e08f58000b003400be0090006e009000ae
:1048b800008050006101b9002e089000be089000e9
:1048c800800f5100818f59000200350010c0b300dd
:1048d800604f98003e0090006101b8002e089000db
:1048e800be089000800f5100818f59001e003400cf
:1048f800ce0890006e009000008040000000e000ac
:104908001900340010c0b300604f9800160037003b
:104918002e089000be089000e00f5000e08f58006d
:1049280003003a0010c0b300604f98000e00370033
:104938002e089000be089000e00f5000e08f58004d
:10494800090035003e0090006101b8002e08900073
:10495800be089000800f5100818f59000200360078
:1049680010c0b300604f98006e4890000004a20089
:104978000004e000090032007e4890000080fb003f
:10498800640060000000e00025033a0011c0b30095
:1049980000c1b30074fa0700300337007e48900066
:1049a8000080fb00660060000000e00002003200aa
:1049b80010fe0700290337007e4890000080fb00a6
:1049c800700060000000e0001703320060f1800012
:1049d800eb0f500005003e00e70f50001f003100ac
:1049e800e60f50000400320075013700ec0f50004c
:1049f8006301320072013700b2ed8000c3ed800020
:104a08004e009000de009000800f5100818f590009
:104a180010003200b2ed8000c3ed8000020f980054
:104a2800130f98004e019000de019000b2ed88004f
:104a3800c3ed880011c0b30040c0b3004afa0700b4
:104a48000e0990009e099000b2ed8800c3ed880021
:104a5800020337007000200060f18800e1f0800058
:104a6800f0ed800000805000200798002e00900094
:104a78000000e00006003d00c1f08000b0f08000ba
:104a880000805000ae009000008040002007980091
:104a9800b2ed8000c3ed80002e0090008000eb0096
:104aa800001f4100019749004e019000de0190006f
:104ab8001e0078009e00900000005100818059007f
:104ac800008fbe001e0078009e009000e00f50008e
:104ad800e08f580015003400a0ee800061006000ef
:104ae8000000e000070032001e0178009e019000df
:104af8001000200001002000800f5100818f590014
:104b0800040032008040eb0000c1b30016fa070031
:104b1800d20237004e009000de0090006100500085
:104b2800e08058004007980051079800b2ed8000d7
:104b3800c3ed8000f1ed8000f0f0800000805000af
:104b4800cf80de00001f510001975900f1ed800071
:104b5800f0f08000808f500006003100c1f0800026
:104b6800b0f08000008050008000eb001e1f100095
:104b78001e9718004e009000de0090001e1f500087
:104b88001e9758001e0078009e009000e00f50000d
:104b9800e08f580056003400c1f08000b0f080006b
:104ba800008050008000eb00be0f5000ae8f580010
:104bb8004f003900a0ee80000030a100a0ee880070
:104bc800a0ee80000040a100a0ee880070f18000f7
:104bd8000080a10070f18800f3f08000230798009e
:104be800f1f080001e00780000804000f0f088009e
:104bf800f1ed80002e009000808f500011003900e8
:104c0800f1ed8000f0f08000808f5000230031002b
:104c1800b2ed8000c3ed8000f1f08000f0ed80007f
:104c2800008050008000eb000200400083804800b4
:104c3800b0ed8800c1ed8800f0f08000f0ed88004c
:104c480016003700f1ed8000c2f08000b0f080005f
:104c5800000051000080400020079800f1f080001b
:104c68002e009000808f50000c003600b2ed8000be
:104c7800c3ed8000f1f080002e009000008050000d
:104c88008000eb000200400083804800b0ed8800ff
:104c9800c1ed8800f0f08000f0ed8800f1f08000b0
:104ca800c0f08000808f500006003900f1f08000cd
:104cb800b2f08000c0f08000000051000080400089
:104cc800f0f08800f1ed8000c0f08000808f500087
:104cd80036003900f1ed8000b2f08000c0f08000ad
:104ce8000000510000804000f0ed88002f003700e0
:104cf800f1f08000f0ed8000808f50002b00320032
:104d0800a0ee8000680060000000e000240032008f
:104d1800a0ee8000700060000000e0001d0032007e
:104d2800b2ed8000c3ed8000f1ed8000f0f080006e
:104d380000805000cf80de000000510081805900c3
:104d4800b0ed8800c1ed8800f1ed8000f0f0800042
:104d5800808f50000a003100b2ed8000c3ed800062
:104d6800c1f08000b0f0800000805000cf80de00ed
:104d78000000510081805900b0ed8800c1ed880025
:104d8800f0f08000f0ed880070f1800000a0a00035
:104d980070f18800a0ee80000040a000a0ee88001e
:104da800a0ee80000030a000a0ee8800f1f08000a6
:104db800e0f08000808f500023003a0071f18000fd
:104dc80000802000008060000000e0000d003a0034
:104dd8001e840200000000000001be00a024240080
:104de80091012000020040008380480020f18800e3
:104df80031f1880070f180000040a10070f1880056
:104e080011003700b2ed8000c3ed80004e00900025
:104e1800de009000800f5100818f59000a003a008f
:104e2800a0ee8000610060000000e0000600320093
:104e380070f180000040a10070f1880070f18000de
:104e480000b0a10070f188006e0890007001900019
:104e5800ce019000b0ed8000c1ed80000000780028
:104e68000080510000004100500f980020ee8000a3
:104e78000000e00006003a005e0890000000e00034
:104e88000300320070f180000090a00070f18800eb
:104e9800de08900021ee880060f18000e80f5000e5
:104ea8001a003a00b2ed8000c3ed80004e00900079
:104eb800de009000800f5100818f590039003a00c0
:104ec800a0ee8000610060000000e00037003200c2
:104ed8001e840200000000000001be0050122a00db
:104ee800c1002000020040008380480020f18800b3
:104ef80031f1880070f180000040a00070f1880056
:104f08009000200060f188002d00370060f18000db
:104f1800e90f50000e003a007e4890000080fb0028
:104f2800610060000000e00022003a004e0190009d
:104f3800de019000b2ed8800c3ed88008040eb00f0
:104f480040c1b30008f90700aafc0700c3013700f5
:104f580060f18000ea0f500018003a00b2ed8000be
:104f6800c3ed80004e009000de009000800f5100dd
:104f7800818f5900ae013a009efc0700b701370047
:104f8800b2ed8000c3ed80004e009000de0090007e
:104f9800800f5100818f5900a7013a0095fc070046
:104fa800ae013700000000000500370000000000d7
:104fb8000300370000000000010037000000000077
:104fc8007e4890008080fb00000220000080600086
:104fd8000000e0009a013a0060f18000eb0f5000f9
:104fe8009901320060f18000ea0f50009801320008
:104ff80060f18000ec0f5000970132007e089000ad
:105008000000e000140132004e0890000000e000ab
:105018007a003c006e089000600090004400de00ba
:105028006f4060000080fb004200dd0080007800d7
:105038004e08900000805000fa7f02000000000037
:10504800fe0890004e08900000804000700f980005
:10505800fe0890003e009000808f5000020036004d
:10506800be019000730f9800d2ed8000e3ed800040
:105078007e0890008000eb0002004000838048001a
:10508800d0ed8800e1ed880001f180007e089000f5
:1050980080804000d0f08000808f50001d003600d6
:1050a800d1f0800000f18000008050000000e8008e
:1050b8002007980020e321009040780000f180004c
:1050c8002e0290008041eb000081eb001a020700dd
:1050d800fe0890002e0090000081500020e321007f
:1050e80090407800c0f08000020278008041eb0018
:1050f8000081eb0010020700c1f080007e099000db
:105108002e009000000051000080400000f188004f
:105118000b00370020e321009040780000f1800068
:105128007e0a90008041eb000081eb00020207003c
:1051380001f180007e0890000080400000f18800a6
:1051480090ee8000e10f4000c300320090ee800036
:10515800800078007e0890000080500090ee880063
:1051680031ee800090ee800000804000200798001b
:105178002e0090000000e00003003d000080eb00de
:1051880090ee8800b400370090ee80000000e00048
:10519800b1003c00d2ed8000e3ed80002e009000cd
:1051a8008000eb000200400083804800d0ed8800ba
:1051b800e1ed880001f180002e00900000804000a1
:1051c80000f1880001f18000d0f08000808f50004d
:1051d8000700360001f18000d2f08000c0f08000a6
:1051e800000051000080ea000080400000f18800c3
:1051f8000080eb0090ee8800970037004e08900082
:105208000000e00094003400fe0890004e08900072
:10521800808040003e009000808f500004003600df
:10522800be0090004e08900000805000700f98005b
:105238006e089000600090004400de006f4060003f
:105248000080fb004200dd00fa7f02000000000041
:1052580001f180004e089000808040007e08900098
:1052680080804000d0f08000808f50002e003600f3
:10527800d1f0800000f18000808050004e0890003e
:105288000000ea00008040000000e80020079800c5
:105298002e0090000000e0001400350020e32100fb
:1052a8009040780002f180004e0890000000410014
:1052b8002e0290008041eb000081eb009e01070068
:1052c800fe0890002e0090000081500020e321008d
:1052d80090407800c0f08000020278008041eb0026
:1052e8000081eb00940107001800370020e321003b
:1052f8009040780002f180004e08900000014100c3
:10530800d3f08000c0f08000008051000080ea00e7
:10531800000041007e0a90008041eb000081eb0014
:10532800850107000900370020e32100904078003c
:1053380002f180004e089000000041007e0a9000b3
:105348008041eb000081eb007b01070090ee8000bc
:10535800e10f400005003a004e08900090ee8800ea
:10536800fe08900031ee88003b00370090ee800088
:10537800800078004e089000808f50001c00360096
:10538800ce0890007e0890008080400090ee80005b
:105398000001780030ee800000004100808f50004e
:1053a80006003e00ce0890007e08900080804000f5
:1053b80090ee8000808f5000030031007e0990003d
:1053c80032ee88000700370090ee800080007800f9
:1053d80030ee8000808040004e0890000080500031
:1053e80030ee88004e08900090ee88001a003700d2
:1053f800ce0890007e0890008080400090ee8000eb
:105408000001780030ee800000004100808f5000dd
:105418001100360090ee80008000780030ee8000a9
:10542800808040004e089000808f50000a003900ac
:1054380031ee80004e0990007e0890000001410086
:1054480090ee80000001510030ee80000000510015
:105458000080400030ee88006e0090000000e00000
:105468001f00320060f18000e70f50000200320098
:1054780000f1800010f1880071f180000008200020
:10548800008060000000e0000500320011c0b30099
:1054980000c1b300b4f70700f3ef070010003700ae
:1054a80070f180000070a00070f1880071f1800038
:1054b80000042000008060000000e00008003a00be
:1054c80070f180000060a00070f188005084020034
:1054d80000000000000078000004b00050f18800cf
:1054e8007e4890000080fb0061006000004078006a
:1054f8000004e00059003200d0ed8000e1ed8000aa
:1055080061014000e08148006e0090006102b8002f
:105518000e0890009e089000040040008580480016
:10552800800f5100818f59004c003a00d0ed800067
:10553800e1ed800061004000e0804800d0ed880087
:10554800e1ed880060f18000e70f500010003200a4
:10555800e70f500003003e00e60f5000060032003f
:1055680027003700e80f500011003200e90f500003
:105578001e00320022003700c000200060f18800c1
:1055880011c0b30010c1b30077f70700330037002c
:10559800b000200060f18800508402000000000084
:1055a800000078001008b00050f18800140037009f
:1055b800b2ed8000c3ed80004e009000de00900048
:1055c800800f5100818f590005003a008040eb00a0
:1055d80000c1b30064f7070006fb07001f0037008f
:1055e800a000200060f18800050037008040eb0033
:1055f80000c1b3005cf70700fefa07001700370088
:1056080011c0b30000c1b30057f7070013003700fb
:105618000000000011003700000000000f003700f4
:10562800000000000d003700000000000b003700ec
:1056380000000000090037000000000007003700e4
:1056480000000000050037000000000003003700dc
:105658000000000001003700000000000080fa0090
:10566800000006000e00fa00604798004107980005
:1056780052079800434f98006e4090000004e000e5
:10568800020032000040eb00a90037006e40900095
:105698003bef07004e0090000000e00002003a00d7
:1056a8001000200040079800d1f08000b0f0800082
:1056b800008050000000e90020079800ce0090000c
:1056c8005e009000808040002e009000808f500087
:1056d800020036000040eb009500370062ef07003b
:1056e8004e4890000080fb00630060000000e0006e
