:020000040000fa
:080000000002040000000000f2
:020000040000fa
:04000800840400006c
:020000040000fa
:04000c009c04000050
:020000040000fa
:04001000ba0400002e
:020000040000fa
:040014008e04000056
:020000040000fa
:04001800a60400003a
:020000040000fa
:04001c00b00400002c
:020000040000fa
:04002000c404000014
:020000040000fa
:040024005a06000078
:020000040000fa
:040028005a06000074
:020000040000fa
:04002c005a06000070
:020000040000fa
:040030005a0600006c
:020000040000fa
:040034004206000080
:020000040000fa
:040038005a06000064
:020000040000fa
:04003c005a06000060
:020000040000fa
:040040005a0600005c
:020000040000fa
:04004400d0050000e3
:020000040000fa
:040048005a06000054
:020000040000fa
:04004c005a06000050
:020000040000fa
:040050005a0600004c
:020000040000fa
:040054004c05000057
:020000040000fa
:04005800ea040000b6
:020000040000fa
:04005c005a06000040
:020000040000fa
:040060005a0600003c
:020000040000fa
:040064005a06000038
:020000040000fa
:040068005a06000034
:020000040000fa
:04006c005a06000030
:020000040000fa
:040070005a0600002c
:020000040000fa
:040074005a06000028
:020000040000fa
:040078005a06000024
:020000040000fa
:04007c005a06000020
:020000040000fa
:040080005a0600001c
:020000040000fa
:040084005a06000018
:020000040000fa
:040088005a06000014
:020000040000fa
:04008c005a06000010
:020000040000fa
:040090005a0600000c
:020000040000fa
:040094005a06000008
:020000040000fa
:040098005a06000004
:020000040000fa
:04009c005a06000000
:020000040000fa
:0400a0005a060000fc
:020000040000fa
:0400a4005a060000f8
:020000040000fa
:0400a8005a060000f4
:020000040000fa
:0400ac005a060000f0
:020000040000fa
:0400b0005a060000ec
:020000040000fa
:0400b4005a060000e8
:020000040000fa
:0400b8005a060000e4
:020000040000fa
:0400bc005a060000e0
:020000040000fa
:0400c0005a060000dc
:020000040000fa
:0400c4005a060000d8
:020000040000fa
:0400c8005a060000d4
:020000040000fa
:0400cc005a060000d0
:020000040000fa
:0400d0005a060000cc
:020000040000fa
:0400d4005a060000c8
:020000040000fa
:0400d8005a060000c4
:020000040000fa
:0400dc005a060000c0
:020000040000fa
:0400e0005a060000bc
:020000040000fa
:0400e4005a060000b8
:020000040000fa
:0400e8005a060000b4
:020000040000fa
:0400ec0024060000e6
:020000040000fa
:0400f0000606000000
:020000040000fa
:0400f4005a060000a8
:020000040000fa
:0400f8005a060000a4
:020000040000fa
:0400fc005a060000a0
:020000040000fa
:040100005a0600009b
:020000040000fa
:040104005a06000097
:020000040000fa
:040108005a06000093
:020000040000fa
:04010c005a0600008f
:020000040000fa
:040110005a0600008b
:020000040000fa
:040114005a06000087
:020000040000fa
:040118005a06000083
:020000040000fa
:04011c005a0600007f
:020000040000fa
:040120005a0600007b
:020000040000fa
:040124005a06000077
:020000040000fa
:040128005a06000073
:020000040000fa
:04012c00ba05000010
:020000040000fa
:040130005a0600006b
:020000040000fa
:040134005a06000067
:020000040000fa
:040138005a06000063
:020000040000fa
:04013c005a0600005f
:020000040000fa
:040140005a0600005b
:020000040000fa
:040144005a06000057
:020000040000fa
:040148005a06000053
:020000040000fa
:04014c005a0600004f
:020000040000fa
:040150005a0600004b
:020000040000fa
:040154005a06000047
:020000040000fa
:040158005a06000043
:020000040000fa
:04015c005a0600003f
:020000040000fa
:040160005a0600003b
:020000040000fa
:040164005a06000037
:020000040000fa
:040168005a06000033
:020000040000fa
:04016c006e0400001d
:020000040000fa
:040170000004000087
:020000040000fa
:040174009e030000e6
:020000040000fa
:040178005a06000023
:020000040000fa
:04017c005a0600001f
:020000040000fa
:040180005a0600001b
:020000040000fa
:040184005a06000017
:020000040000fa
:040188005a06000013
:020000040000fa
:04018c005a0600000f
:020000040000fa
:040190005a0600000b
:020000040000fa
:040194005a06000007
:020000040000fa
:040198005a06000003
:020000040000fa
:04019c005a060000ff
:020000040000fa
:0401a0005a060000fb
:020000040000fa
:0401a4005a060000f7
:020000040000fa
:0401a8005a060000f3
:020000040000fa
:0401ac005a060000ef
:020000040000fa
:0401b0005a060000eb
:020000040000fa
:0401b4005a060000e7
:020000040000fa
:0401b8005a060000e3
:020000040000fa
:0401bc005a060000df
:020000040000fa
:0401c0005a060000db
:020000040000fa
:0401c4005a060000d7
:020000040000fa
:0401c8005a060000d3
:020000040000fa
:0401cc005a060000cf
:020000040000fa
:0401d0005a060000cb
:020000040000fa
:0401d4005a060000c7
:020000040000fa
:0401d8005a060000c3
:020000040000fa
:0401dc005a060000bf
:020000040000fa
:0401e0005a060000bb
:020000040000fa
:0401e4005a060000b7
:020000040000fa
:0401e8005a060000b3
:020000040000fa
:0401ec005a060000af
:020000040000fa
:0401f0005a060000ab
:020000040000fa
:0401f4005a060000a7
:020000040000fa
:0401f8005a060000a3
:020000040000fa
:0401fc005a0600009f
:020000040000fa
:040200005a0600009a
:020000040000fa
:040204005a06000096
:020000040000fa
:040208005a06000092
:020000040000fa
:04020c005a0600008e
:020000040000fa
:040210005a0600008a
:020000040000fa
:040214005a06000086
:020000040000fa
:040218005a06000082
:020000040000fa
:04021c005a0600007e
:020000040000fa
:040220005a0600007a
:020000040000fa
:040224005a06000076
:020000040000fa
:040228005a06000072
:020000040000fa
:04022c005a0600006e
:020000040000fa
:040230005a0600006a
:020000040000fa
:040234005a06000066
:020000040000fa
:040238005a06000062
:020000040000fa
:04023c005a0600005e
:020000040000fa
:040240005a0600005a
:020000040000fa
:040244005a06000056
:020000040000fa
:040248005a06000052
:020000040000fa
:04024c005a0600004e
:020000040000fa
:040250005a0600004a
:020000040000fa
:040254005a06000046
:020000040000fa
:040258005a06000042
:020000040000fa
:04025c005a0600003e
:020000040000fa
:040260005a0600003a
:020000040000fa
:040264005a06000036
:020000040000fa
:100400002f1222000eff27000e01880000000000be
:10041000000020000000e000020032000001200087
:100420002002880014000700750207000000e000a9
:1004300003003a00e0e42800010020000200370039
:100440000000200001002000810f70000100320038
:100450000f000700000020000000e0000200320052
:1004600000000200000000007a9e02000000000070
:100470000040da000000fe00600920000000e000fb
:1004800002003200002020009001880000000600d9
:10049000a1028800800478000000eb001f003700f4
:1004a000e284440054a0b4009905ba00e2844400f8
:1004b00054a0b4009906ba00e284440054a0b400e9
:1004c0000006eb00476fde00fd07b200ae018800ba
:1004d000636ce10003003a000ad801000000eb0061
:1004e0000e003700606ce10008003a00004deb00a0
:1004f0000a05e800020039003420ec000af0a000f0
:100500008b05e900f9ff3e00040037006168e10057
:10051000010032000086eb000b00070019c7ba008b
:100520000e04e0001905ba0003003a000a00e000da
:10053000dbff3a0000000600fe07b200ae028800b2
:100540008a047800f5ff37000cd0a300e20f4d00bd
:100550001c00390089027800354dba000a05e80010
:10056000020039003420ec000af0a0008b05e900fd
:100570000f003200254dba000a05e80002003900dc
:100580003420ec000af0a0008b05e90008003200de
:100590000c00e0000600320015cdba000a05e800a4
:1005a000020039003420ec000af0a0008b05e900bd
:1005b0008984e80054a0b4000b00e000e2ff3a0098
:1005c000000006009902ba00055d78008b05e9007d
:1005d000f7ff3200c82ade00055d78008b05e900d0
:1005e000f3ff32000c00e000f1ff320019ddba0029
:1005f000eeff3700a274040000000000ac74040099
:1006000000000000987404000000000068740400fa
:1006100000000000c4720400000000000673040023
:100620000000000024730400000000009473040024
:1006300000000000ee730400000000003c730400a2
:10064000000000003a74040000000000d6720400ac
:1006500000000000e272040000000000ee720400de
:1006600000000000fa720400000000004e73040055
:10067000000000005a7304000000000066730400cc
:1006800000000000ae72040000000000727304005d
:10069000000000002288040000000000549f0400b5
:1006a00000000000ba880400000000003689040041
:1006b000000000009889040000000000f689040092
:1006c00000000000607c0400000000007e7c04004c
:1006d000000000007a7f040000000000987f040002
:1006e00000000000c69a040000000000da75040053
:1006f000000000001276040000000000f6750400ff
:10070000000000000e770400000000001a780400ca
:1007100000000000d894040000000000d609040086
:10072000000000000a0a0400000000009e150400fa
:100730000000000000000400000000003600f80087
:10074000809fbe00829fbe00849fbe00869fbe0029
:100750000000fa00f0b980000000e0000200320062
:10076000f0b980000000010021aa800010aa8000da
:10077000808f500002003a002a68a9001900370053
:100780000a68a9001000370020aa80009040780075
:100790008180fb00a11288000000e80020aa8800e8
:1007a00021aa800020642100808f500002003a00be
:1007b0007054210020aa880021aa800010aa80007d
:1007c000808f50000600320091128000002020002f
:1007d000008060000000e000ebff32000100370005
:1007e000000000000080fa004f03be004f02be0070
:1007f0004f01be004f00be003600f9000040060069
:100800003600f800809fbe00829fbe00849fbe001d
:10081000869fbe000000fa0000ba80000000e000e1
:100820000200320000ba8000000001000a48a9005e
:100830001f003700f0a98000b112800081407800cd
:1008400001487800f1a98000c0732100808f50001a
:1008500009003200f0a980008000e80000aa8000b2
:10086000808f500004003200f0a980000000e800f2
:10087000f0a988000e003700f1a98000c0732100a4
:10088000808f500007003a0001aa800020642100f8
:10089000808f50000300320020642100f0a98800fe
:1008a000030037006054210011c0b30001487800f4
:1008b00090128000610060000000e000ddff3a005f
:1008c0000080fa004f03be004f02be004f01be0081
:1008d0004f00be003600f90000400600801f78007f
:1008e0000000fa0090128000620060000000e0004a
:1008f000010032005222a9000a28a9000080fa0053
:100900004f007800004006003600f800c028a9001b
:100910000000eb002aa00200000000003600f800f2
:1009200032a0020000000000c048a9001000200012
:100930002aa00200000000003600f800c068a900ec
:10094000200020002aa00200000000003600f8006d
:10095000c088a900300020002aa00200000000008a
:100960003600f800c0a8a900400020002aa002001c
:10097000000000003600f800c608a9007000200042
:100980002aa00200000000003600f8002146800086
:1009900000022000008060000000e000040032003f
:1009a000c4a8a900900020002aa0020000000000b6
:1009b00020468000700060000000e000040032006b
:1009c000c488a900a00020002aa0020000000000a6
:1009d000ffff37003600f800809fbe00829fbe00f8
:1009e000849fbe00869fbe000000fa0010ca8000ef
:1009f0000000e0000200320010ca80000000010088
:100a000041ba800030ba8000808f500002003a0066
:100a10002188a900190037000188a90010003700bb
:100a200040ba8000904078008180fb00211188004e
:100a30000000e80040ba880041ba800060842100cc
:100a4000808f500002003a00b074210040ba880044
:100a500041ba800030ba8000808f5000060032001a
:100a60001111800000202000008060000000e000e4
:100a7000ebff320001003700000000000080fa00a8
:100a80004f03be004f02be004f01be004f00be002c
:100a90003600f900004006003600f800809fbe00d6
:100aa000829fbe00849fbe00869fbe000000fa00a9
:100ab00020ca80000000e0000200320020ca80004e
:100ac000000001000168a9001f00370010ba800073
:100ad00031118000814078000148780011ba80000f
:100ae00000942100808f50000900320010ba80006d
:100af0008000e80020ba8000808f5000040032009f
:100b000010ba80000000e80010ba88000e0037001c
:100b100011ba800000942100808f500007003a0035
:100b200021ba800060842100808f500003003200d1
:100b30006084210010ba880003003700a0742100ef
:100b400011c0b300014878001011800061006000fe
:100b50000000e000ddff3a000080fa004f03be0015
:100b60004f02be004f01be004f00be003600f9002c
:100b700000400600801f78000000fa00101180007d
:100b8000620060000000e000010032002222a900a3
:100b90000828a9000080fa004f00780000400600f5
:100ba0003600f800809fbe00829fbe00849fbe007a
:100bb000869fbe000000fa00600781000000e00090
:100bc000020032006007810000000100f00e2200e8
:100bd000104078008040e800f00e220001487800c4
:100be000e00e220011c0b3000148780000e8a9001f
:100bf0000080fa004f03be004f02be004f01be004e
:100c00004f00be003600f900004006003600f80034
:100c1000809fbe00829fbe00849fbe00869fbe0054
:100c20000000fa00e0068100000001000080fa00e8
:100c30004f03be004f02be004f01be004f00be007a
:100c40003600f900004006003600f800809fbe0024
:100c5000829fbe00849fbe00869fbe000000fa00f7
:100c6000f0068100000001000080fa004f03be0082
:100c70004f02be004f01be004f00be003600f9001b
:100c800000400600809fbe000000fa009006810030
:100c9000a106810061004000e080480090068900c4
:100ca000a10689000068a9000080fa004f00be007c
:100cb000004006000040da000000fe000a00fa00d2
:100cc00011002000b1bf9f00c0bf9f006a80570085
:100cd000a50807004fb897000080fa000000060042
:100ce0000a00fa0051002000b1bf9f00c0bf9f0062
:100cf0006a8057009e0807005fb897000080fa00de
:100d000000000600889fbe00800478000009810072
:100d10000000e00004003a000e0007000084eb0031
:100d20000000e00008003500080981000900e0002b
:100d30000500320009004400060007000000e00042
:100d400001003d000084eb00080078004f04be0065
:100d500000000600800078000100e00003003a0077
:100d60000000200000098900000005000080eb0061
:100d700002002000828f500002003e00010989001d
:100d80000000eb00000006000a00fa0020079800af
:100d90003107980042079800be00900011079800a4
:100da0000000eb00000f78000e003700000000008c
:100db000f07c0200000000000004a2000004e0003b
:100dc000fbff3a001e009000104078009e0090004b
:100dd0008100e80011079800b07c020000000000cc
:100de0001e0fe8004e0090009e007800808f50009b
:100df000eeff39004e0090000080fa00000006006f
:100e0000000005006022b800060220000000d000ab
:100e10008180d2000482d2008582d2000000a0002e
:100e20000202520083825a00030031000202420093
:100e300083824a000000a1000603e900f3ff3a00a4
:100e400000000600889fbe008a9fbe00300442005a
:100e5000b0844a0030054b0090854b006000b10023
:100e60000898be000a90be000440e10005c8e100f9
:100e700006d0e10007d8e100020031006800400020
:100e80001008e8004f05be004f04be000000060039
:100e9000889fbe008a9fbe001004780090049000d6
:100ea00020059000b00590000418540005985c00df
:100eb00006185d0007985d00110020000440e10065
:100ec00005c8e10006d0e10007d8e10001003900c3
:100ed0008000eb00108810004f05be004f04be00dc
:100ee000000006001200fa00889fbe008a9fbe0024
:100ef0008c9fbe00e0b79f00f1b79f0082bf9f00ac
:100f000093bf9f000605be000404be000000eb0076
:100f1000d0b79f00c0b79f00b0b79f00a0b79f0099
:100f200090b79f00000678005fb19700cfb09700a0
:100f3000820141003fb097000200e00004003d0044
:100f4000370007007e805700beff07000300370010
:100f5000330007007e805700cdff0700dfb6970003
:100f60000d00e0000c0035006fb29700ffb2970053
:100f70000fbb97009fbb97001000200001002000ce
:100f80006011b800000272008182720002037300d7
:100f9000838373001b0007000c06e8000104200097
:100fa000810f5600e0ff3a000d00e00004003d0014
:100fb0000802be000a03be007e805700a1ff0700a2
:100fc0005fa897000000e00005003a001fb29700fc
:100fd000afb297003fb39700cfb397000900070067
:100fe0006fb09700ffb097000fb997009fb99700b7
:100ff0004f06be004f05be004f04be000080fa0041
:10100000000006000100070000000600a4b79f00d2
:10101000b5b79f00c6b79f00d7b79f000000060076
:101020004f09de0082817100b3b79f004f01de00df
:101030008180400082807000a1b79f008fb0970030
:101040004f09de00000040000200700090b79f00d2
:101050007fa897004f01de008180400082807000f1
:1010600081b79f000d0007004f3ade0000004000ee
:1010700004007000f0af9f00080007000402420067
:1010800085824a0006034b0087834b00dfff070081
:101090000802be000a03be00000006002fb297003f
:1010a000bfb297004fb39700dfb397000000060070
:1010b000881f780018002000881f780089ff07002b
:1010c0008f87e9004f04780000000600801feb00c6
:1010d00084ff07008f87e90000000600889fbe009c
:1010e0008a9fbe00e00f5000e08f5800e00f5900cb
:1010f000e08f59000c003d006044b8006055b80016
:101100000000540081805c0002015d0083815d006d
:10111000180020001500070008003d001800070017
:101120000004eb00050037000004eb000f0007008f
:1011300002003d001200070018002000dcff07003d
:101140000800e000060032006022b8006033b800fa
:101150000000520081805a0002015b0083815b0025
:101160004f05be004f04be0000000600e00f520015
:10117000e08f5a00e00f5b00e08f5b00000006008c
:101180006044b8006055b8000402540085825c00d9
:1011900006035d0087835d0000000600889fbe0097
:1011a0008a9fbe008c1f7800e00f5000e08f58002f
:1011b000e00f5900e08f59000d003d006044b80079
:1011c0006055b8000000540081805c0002015d00a1
:1011d00083815d001c0020000820e10009a8e100d7
:1011e0000ab0e1000bb8e1000d003d000800370037
:1011f0000006eb00e00f5200e08f5a00e00f5b00aa
:10120000e08f5b0006003d006044b8006055b80008
:101210000402540085825c0006035d0087835d0044
:10122000aaff07000c00e000060032006022b800b0
:101230006033b8000000520081805a0002015b0058
:1012400083815b004f0678004f05be004f04be004f
:1012500000000600889fbe000202be008001eb0075
:101260000e003700611cb8000801400012437800ee
:1012700008844000184178008301e800824f530041
:101280000400320010002000080031000080eb0054
:101290000600370061025200e0825a00e00f52005f
:1012a000e08f5a00efff3a000000eb004f04be0051
:1012b000000006000202be008001eb0007003700bc
:1012c000611bb80006014000068340001649780003
:1012d00061025200e0825a008301e800e00f5200f0
:1012e000e08f5a00f6ff3a00000006000202be003e
:1012f0008001eb0005003700030140000149780040
:1013000061025200e0825a008301e800e00f5200bf
:10131000e08f5a00f8ff3a000000060080007800d5
:101320000000eb00008140000000e8001204e00033
:10133000fcff3a0001005100cf80de0000000600f3
:101340000002eb0004003700864a7800610151007a
:10135000e08159000402e8006123b80086024000e1
:10136000e00f5100e08f590002003a008000eb00ce
:101370000a00370006834000164378000604e000a8
:10138000f1ff3a00f9ff370001824200004aeb000a
:1013900061015100e08159008100e800e00f510037
:1013a000e08f5900f8ff3a0000000600881f78001f
:1013b0008a9fbe0000047800010078000205be008c
:1013c000880078000202be00120020000300200006
:1013d0001d0207008a0f50008b8f58000100320059
:1013e0000004eb00080078004f05be004f047800b1
:1013f000000006000000fa00e88157004fb997008e
:10140000e1f02100609d2000d80007000080fa0074
:1014100000000600881f78008a9fbe000004780044
:101420000200be000405be00880178001200200002
:10143000ef040700cf80de008a0f50008b8f58002a
:10144000010032000004eb00080078004f05be00e8
:101450004f047800000006006800fa00889fbe0074
:101460008a9fbe000005780081047800820578001c
:10147000030478008400780000f92f000f0040007a
:10148000ef010700da8f9f00fb8f9f000000eb0049
:10149000a09f9f00e98f9f001885fb008a04fb0036
:1014a0000a05ea004f55de0050022000808f5400ec
:1014b0000e003200e10f55000c003a00120020002f
:1014c00003002000880078007f8897005f8a9700db
:1014d00004000100f08f9f000000e0009e00320039
:1014e0002f9897000000e800a09f9f000a04440086
:1014f00050022000808f5400040032000900e000f8
:10150000e5ff3a002f989700940037000000eb00a9
:10151000809f9f00f0979f00e0979f00d0979f00cb
:10152000c0979f00b0979f00c09f9f000005780064
:1015300008003700010a2200810050008100d0001d
:1015400042092200828040004f98970011007000ed
:10155000c09f9f008a044400994578008b00fb00df
:10156000000a2200aa0107000a05e8000000e000c6
:10157000f0ff3a00a1c2b30081cf55000e003a003f
:101580008f8897000180e900808f9f00100078000d
:10159000b09f9f000000e00005003d000000ea0051
:1015a000b09f9f004f9897000020a000c09f9f0011
:1015b0000904e80010003700b09f9f008000eb0096
:1015c0000100780006003700f3ff2700830f50006a
:1015d00002003200ea00b900000041008100e8008a
:1015e000018444001801fb000203b100e90f51001f
:1015f000f5ff3600b09f9f00e0c2b300984f100087
:10160000030032000080eb00909f9f002000370015
:1016100008007800a1c2b300d0cf100007003a0044
:101620000f8997008280e900818f9f0091007800e8
:10163000919f9f000004e800150037000000eb00b8
:10164000909f9f008000780006003700f2ff27007f
:10165000820f500002003200ea00b9000000420090
:101660008100e8000801e8008001eb0002814000f1
:10167000e0814900124278000402fb000403b1003b
:10168000e90f5200f1ff3600909f9f00020478009e
:10169000984478008900fb00c00822005c01070024
:1016a0000000e000020032000804e80001003700fa
:1016b0008044eb00a97f9f0080c6b30080cf540018
:1016c00006003a0098cf140010003a00664050001f
:1016d000a07f9f000804e8000c003700c0c6b300dc
:1016e00080cf540009003a0098cf140007003a0058
:1016f00067404000d84f100002003a006e40500092
:101700000100370010c7b300a07f9f001801fb0045
:10171000c3fb2f008f81410001f92f008f80400013
:1017200020f92f000f004000150007000000e00026
:1017300009003a00c1fb2f008f80400020f92f00e4
:101740000f0040004e0307000000e00002003500db
:101750000804e80050ff37000080eb004f05be0092
:101760004f04be000080fa0000000600030278006b
:101770008201780001017800a1a0200036ff370027
:10178000889fbe008a9fbe00e4c6b300844f51000c
:10179000d000320010003c006b425200844f5100d8
:1017a0001800320005003c0054c2b300844f5100c1
:1017b0000801320084c5b3000f00370044c6b300ef
:1017c000844f51001500320065424200844f5100a1
:1017d00003013a001100370004c7b300844f5100e1
:1017e000ef0032005f00350065424200844f510037
:1017f0005c00320063424200844f5100f8003a001e
:10180000580037001181e90082087800a008900094
:101810008181410092497800f7003700006a90000a
:10182000c5c6b300854f520008003a009102780007
:1018300064825200840878009402900014027800b8
:101840004fabde00860378001600370015c7b300e3
:10185000854f520003003a001104780068025400da
:1018600005003700a5c6b300854f520008003a00b6
:1018700091047800688254008408780094029000f3
:1018800024039000b4039000140278000500370090
:101890001182e9008408780014027800cfa2de00eb
:1018a000612bb9000498be000690be0080689000cd
:1018b00088c6b30088cf50000d00320028c6b300a0
:1018c00088cf500004003a000402fb00cfa2de00e3
:1018d000612bb9000800370048c7b30088cf50001b
:1018e000030032006644440088cf500004003a00f0
:1018f000cfa2de00612bb9000498be000690be00a6
:10190000100278009002900020039000b003900035
:10191000a0089000e00f5200e08f5a00e00f5b003b
:10192000e08f5b0003003d0001824100d5c2b3009f
:101930000a003700301290000418a30003003200a0
:1019400001824100b5c2b300040037000408a300bf
:101950005b0032000182410005c2b300054a7800f5
:1019600055003700006a9000c5c6b300854f52008d
:1019700009003a00110578006402550084087800d7
:1019800014047800940490006055b8000802be006a
:101990000a03be001600370015c7b300854f52007a
:1019a00003003a0091047800688254000500370073
:1019b000a5c6b300854f520008003a001105780013
:1019c0006802550084087800940290002403900077
:1019d000b403900014027800050037001182e9007a
:1019e00084087800140278008002eb006033b800ad
:1019f0000498be000690be008068900088c6b300c0
:101a000088cf500003003a008002eb006033b8003a
:101a10000e00370028c6b30088cf500004003a00fb
:101a20000482fb008002eb006033b800070037003f
:101a300048c7b30088cf500003003200664444001a
:101a400088cf500003003a006033b8000498be000d
:101a50000690be00b01090000138a30018003200bc
:101a6000100278009002900020039000b0039000d4
:101a7000e00f5200e08f5a00e00f5b00e08f5b0048
:101a80000f00320081c7b300814f510003003200c4
:101a900081c5b300814f510009003a00a0089000b1
:101aa0000182410005c3b300054a78008100e800c7
:101ab00001824100024a78008100e8002108980074
:101ac000a008900081814100730098008240780056
:101ad0003e00370080699000c4c6b3001181e90060
:101ae00084cf5100220032000a003c0064425200c0
:101af00084cf51002500320004c2e80084cf510099
:101b0000130032006842520084cf51001e003a0098
:101b10000a00370044c7b30084cf51001b003200d5
:101b20006642420084cf51001100320069425200e7
:101b300084cf510014003a00050037008208780075
:101b40009200780020609000804878002c003700d8
:101b5000820878009200780010129000cfa2de0078
:101b6000612bb9008498be008690be002400370027
:101b7000820878009200780010119000cf91de006a
:101b80008288be001e0037001181e90082087800bb
:101b9000920078001010900080087800180037003c
:101ba0001181e9008208780012027800cfa2de00dd
:101bb000612bb9000498be000690be00a0089000fa
:101bc000818141007300980081c7b300e2000700e3
:101bd0000b003700a008900081814100050037000c
:101be000a0089000818141000204e00001003a0059
:101bf00052c2b300824978008100e80021089800b1
:101c00000000eb004f05be004f04be0000000600c0
:101c1000020037000304e0000600320000017800f3
:101c200002007800b041780081cf5100f9ff3a00fe
:101c3000010037000001eb00020078000000060000
:101c40000108780000000600ea874700889fbe0070
:101c50008a9fbe008c9fbe008e1f78000006780011
:101c60000204be000405be00010778000400be00a7
:101c700019050700d0b79f00e1b79f00e00f5000a3
:101c8000e08f580052003200e00f5400e08f5c00fb
:101c900050003200fcb79f000006be00ce0090004e
:101ca0006e009000808f5000040039000e00780014
:101cb000610007000000e000330035000040200014
:101cc0001e0060000c0032000c01be00a1002000cc
:101cd0007fb0970046000700000278000400e00093
:101ce00008003200ffb19700618511000a0542002b
:101cf000cfd5de00040037000c05be000002eb006b
:101d0000010037000c05be004e0090006e019000ef
:101d100000015100cf91de008a0f51008b8f5900d6
:101d2000020031000205be000002eb000a01be0005
:101d3000ffb0970084bf9f005efd07000a065600b3
:101d40008b865e004e0090000a004000400798001d
:101d50000fba97000400e000040032000e00780083
:101d6000810307000000e00007003a00e00f560082
:101d7000e08f5e00040032007fb097000a00400050
:101d8000f0b79f00c5ff3700008020001e006000f4
:101d9000020032000e0078007303070000c020002c
:101da0001e00600002003200ce0090006107980023
:101db0005fb19700efb197000c0051008d80590082
:101dc0000801be000ffc07000005be00010037003f
:101dd0006055b8000a00be004f0778004f06be00ed
:101de0004f05be004f04be00af00b100000006006a
:101df0000202be008001eb00050037008301e8000d
:101e000092cf10000a00320061025200e0825a00b4
:101e10006103b80006834100e0834b0006017800af
:101e2000e00f5200e08f5a00f4ff3a000000050076
:101e30000600780000000600889fbe008a1f780018
:101e400000047800c8009000680190000000eb00da
:101e5000828f50003d0039001800780022002900d0
:101e600002016000e20f5100070032000120200053
:101e70000000e0000100350001202400008c70000b
:101e80000080eb00310037000200260002006000f5
:101e9000820f500009003a0038009000808f5000f7
:101ea00006003900080078002f0307008000780042
:101eb0000080eb000100e00024003a0018057800e3
:101ec00000c020000000650019003a00a80490003e
:101ed0006002200008004000808f540014003a0087
:101ee0000020200001002000dc03070020049800ef
:101ef0000000e00005003a00290498004904980019
:101f00008904e80039049800080037000a60a0003e
:101f10000a0c7800400498000120200080804000d6
:101f200031049800400c9800500c9800b80207004b
:101f30002800900050049800380090006004980039
:101f400000002600180c70000000eb004f05780020
:101f50004f04be0000000600fc874700889fbe00bb
:101f60008a9fbe008c9fbe008e1f780000067800fe
:101f700080c5b30080cf50000a0032007740400097
:101f800080cf50000a0032006940400080cf5000ee
:101f90000b003200b005220080bf9f00ae00200081
:101fa0000a003700a204220082bf9f00060037000b
:101fb000b305220083bf9f008e002000030037007e
:101fc000b405220084bf9f000e0120001c0278008f
:101fd0009c0290002c039000bc0390000605be00fc
:101fe0000404be0040c6b30080cf5000030032009e
:101ff0006540400080cf50000b003a00e00f5200d7
:10200000e08f5a00e00f5b00e08f5b0006003d00b0
:102010006000b8006011b8000404500085845800c6
:102020000605590087855900e80f57000400320063
:1020300040002000f00f570048003a000100370030
:1020400030002000e00f5400e08f5c00e00f5d00e6
:10205000e08f5d0004003a008c1090008d0120009c
:102060000100e0000d0032000e01e900cf91de001a
:102070000802be00820064000382620084027800cd
:10208000010278000401be008fba9700028142006d
:1020900012417800f2ef9f007d012000800078005f
:1020a0008100e900050033008b05d1000a85d300cb
:1020b0008984d3000884d300f9ff3700089ebe004e
:1020c0000a96be00190037008d06e9000e01e900ee
:1020d000cf91de000404be0082006200038464002d
:1020e00088047800010478000801be008fb89700ca
:1020f000028140009240780083fd2f008d814100d5
:1021000081f77900000178000201e9000500330041
:102110008783d1000683d3008582d3000482d30055
:10212000f9ff3700049ebe000696be001c02780030
:102130009c0290002c039000bc039000e00f520022
:10214000e08f5a00e00f5b00e08f5b0093003400eb
:102150000d00e000dcff3c00900037000c689000b0
:1021600081c6b300814f50000b00320006003c00d6
:102170000004e00008003200e6c05000814f50002b
:1021800052003a0004003700c1c6b300814f50002e
:102190004e003a00230037000800e00004003a0037
:1021a0000c1090008d0120000000e00007003200bc
:1021b000110009000e84d8008fb9970001804100fa
:1021c00010407800f0ef9f007d0120001100090011
:1021d0000e84d8000b003700110009000e04d8004f
:1021e0008d06e9008e81b900020454008fb8970073
:1021f000088440009841780082fd2f000d014100c5
:1022000083777900000478000800e00002003200c3
:102210000d00e000f0ff3c00cfc4de00614db900ce
:1022200027003700e00f5400e08f5c0004003a0004
:102230000c1090008d0120000000e000080032002a
:102240006171b9000800be00a00307000fba970033
:102250008000420091407800f1ef9f007d01200056
:102260006171b9000800be00e6fa07000c003700f3
:102270006171b9000800be00850307008d06e90002
:1022800080f1b900020454008fba9700088442001c
:102290009841780082fd2f000d014100837779007d
:1022a0000004be00e00f5000e08f58000200320032
:1022b0000d00e000eeff3c004fcdde008a05780007
:1022c000089ebe000a96be0034003700e00f54009e
:1022d000e08f5c00e00f5d00e08f5d0004003a00dd
:1022e0000c1090008d0120000000e0000a00320078
:1022f0006172b900612bb9000800be000a01be007e
:1023000072fb07000fba97008000420091407800ee
:10231000f1ef9f007d0120006172b900612bb900cf
:102320000800be000a01be0061fb07000e00370076
:102330006172b900612bb9000800be000a01be003d
:1023400066fb07008d06e90080f2b9000404540022
:102350008fba9700088442009842780084fd2f00cd
:102360000d02420085777a00009ebe000296be00f4
:102370001c0478009c0490002c059000bc05900083
:10238000e00f5400e08f5c00e00f5d00e08f5d0027
:10239000020034000d00e000e5ff3c00e80f5700ac
:1023a00010003a003c1090000038a3000d003200ed
:1023b000f78f560006003e0080fd2f000d00400004
:1023c000ef40780000c3b30080cf5000050032001a
:1023d00002c3b30071fd2f008d8040008d06e9001f
:1023e00082f77800f8801600410e98007c0090007b
:1023f0006109b90084fd2f000f0242008d004200e8
:10240000acfb07004c0890008c109000810f50002e
:1024100006003d0000805000300e98003c109000f7
:102420000040a100301698000f0037000100e000c6
:102430000d003d00bc109000f4806000f08f500053
:1024400009003a002c119000ac0890008100510066
:102450003c09900082805000008050004240a9005a
:1024600001003400300e98004f0778004f06be0080
:102470004f05be004f04be00cf01b10000000600b2
:102480000400fa00889fbe008a9fbe008c1f78005f
:102490000004780001067800a81490002808900035
:1024a00080845400380890008084540048089000cc
:1024b000808454005808900080845400680890007c
:1024c0008084540078089000808454000002220028
:1024d00090bf9f0000032300a0bf9f003810900012
:1024e0000028a30015003a000900e00013003400a2
:1024f000090578008a057800e20f550001003600d2
:102500002b0020006159b90048029000ee8057006e
:102510006800900004000100600498000000e000e2
:10252000ac003200181090000b004000101498000e
:102530000b0555004240a900eeff3c002808900022
:102540000000e0000d0034006101b9004802900075
:102550008c0078006800900004000100600498007e
:102560008080eb000000e0009b003200981090009b
:10257000280890000080400010149800380d90004a
:102580000a00e000110034008a057800e20f5500cf
:10259000010036002b0020006159b900480290006c
:1025a000ec8057006800900004000100600498006f
:1025b0000000e00087003200181090000b0040007f
:1025c000101498000b055500edff37008868900047
:1025d000480a900050c6b30080cf500009003a006e
:1025e0000400e00016003400d8009000cfa2de0006
:1025f000080990009809900068009000010001000f
:10260000070037000400e0000d0034006121b9002c
:1026100048029000f800900068009000040001005b
:10262000600498008080eb000000e0006a00320047
:102630009810900048089000008040001014980006
:10264000580d90000a00e000110034008a0578005f
:10265000e20f5500010036002b0020006159b9003f
:1026600048029000ec8057006800900004000100d0
:10267000600498000000e00056003200181090003e
:102680000b004000101498000b055500edff3700bb
:1026900088689000680a900050c6b30080cf500050
:1026a0000d003a000400e0001c00340048089000cf
:1026b00078019000000141006111b800828fd200c2
:1026c0008381d200d8009000cfa2de006800900085
:1026d00001000100090037000400e0000f00340091
:1026e0006121b90048089000f80090008080400007
:1026f0004802900068009000040001006004980007
:102700008080eb000000e000330032009810900061
:10271000680890000080400010149800780d900028
:102720000a00e000110034008a057800e20f55002d
:10273000010036002b0020006159b90048029000ca
:10274000ec805700680090000400010060049800cd
:102750000000e0001f003200181090000b00400045
:10276000101498000b055500edff3700381090004d
:102770008000eb000028a300170032000900e000f1
:102780001500340009057800e28f5400010036007e
:102790002a0020006151b90048029000ee805700e5
:1027a0006800900004000100600498000000e00050
:1027b00008003200181090000a0040001014980021
:1027c0008a8454004240a900eeff3c008000eb00e8
:1027d000010037008080eb00010078004f06780090
:1027e0004f05be004f04be000080fa000000060046
:1027f000ee874700889fbe008a9fbe008c9fbe0068
:102800008e1f78000006be000204be000405be0054
:10281000060778000400be002f020700d0b79f0013
:10282000e1b79f00e00f5000e08f58006e003200cb
:10283000e00f5400e08f5c006c0032000c05be001d
:10284000f0b79f0081bf9f00b8b79f00c9b79f0036
:10285000ce0090006e009000808f50000400390080
:102860000e00780074fd07000000e000480035000d
:10287000004020001e0060000c0032007fb2970074
:102880008fba9700a20020000a00be00e3010700f3
:102890000004be0000807400090032000a065400e3
:1028a0000c06e800cfe6de00070037007fb6970091
:1028b0008fbe9700080020000900200002003700aa
:1028c0007fb697008fbe97004e0190006e0090007b
:1028d00002005000cf80de008c0f50008d8f58001a
:1028e000030031000006be0008002000090020009f
:1028f0006111b800828fd2008381d2000c0278006f
:102900000a00be009c0107007fb197008fb99700b5
:102910000c0151008d815900f2b79f0083bf9f00c9
:102920004e0090000c00400040079800088474009e
:10293000040032000e0078008b0007000000e00069
:1029400013003a007fb297008fba9700e00f520051
:10295000e08f5a000e0032008c8fd2008d86d2009c
:102960000c0678000cf0a1008a02d0000c00d00008
:10297000008542004220a8008d854d004200a9003c
:102980004220ae004200a8000a85d300b0ff370005
:102990003fb49700cfb49700008020001e00600075
:1029a000020032000e0078006f00070000c0200017
:1029b0001e00600002003200ce0090006107980007
:1029c0005fb19700efb197007fb297008fba970081
:1029d00004005100858059000801be0009f9070074
:1029e0000005be00010037006055b8000a00be00b7
:1029f0004f0778004f06be004f05be004f04be00d3
:102a0000ef00b10000000600e059210091003700fe
:102a1000881f7800e81122001804e00003003a0043
:102a2000f9ff070020c0b300004c78004f04780085
:102a300000000600889fbe000004780008007800af
:102a4000490007008004780000042000180060009e
:102a500002003200280090008b0007000000eb000d
:102a600020049800384090000004e0000500350084
:102a70000000fb0091f807000000e00001003200b8
:102a80008084eb00181090000000e0000800320085
:102a900093f807000000e000010032008084eb00a2
:102aa00018109000780007000000eb001014980048
:102ab00000082000180060000f003200c1f521005e
:102ac0000000eb00d10f140005003a0000004000a8
:102ad000e1f52100008040000008eb000300370012
:102ae0000000e800e80f5000f6ff3a000800780008
:102af000650007000e003700000c780000c0eb00f6
:102b00003044980060022000080040002004980033
:102b10004004980050049800400c9800600498000d
:102b2000500c98007004980076004400000c980047
:102b3000090078004f04be0000000600889fbe0018
:102b4000e8f62100f0045400480078000000e0009e
:102b500001003200b7ff0700890f5400faff3a0066
:102b60004f04be0000000600889fbe008a1f780048
:102b7000000478000800e0000d003a00c8f52100cc
:102b8000700544008004eb00580078000000e0006d
:102b900004003200f4ff07000000e00001003d00e7
:102ba0008084eb008a0f5400f7ff3a0025003700bd
:102bb00000002200180060008004eb0021003200b9
:102bc000a80490000f003700090151003840900020
:102bd0000000fb00890078006bf807000000e000af
:102be00007003c0028009000400498006004980012
:102bf000500c98001890a0008084eb001100370062
:102c00008084440048019000828f5400eeff390018
:102c100028009000400498009800780002c020002e
:102c20000281600001003a003800900001e8a30032
:102c3000020032006004980001003700500c980038
:102c40008004eb00090078004f0578004f04be00b7
:102c500000000600010020000100e0000900320031
:102c6000010080000100e000060032008100e90060
:102c70000100880081804000020080008100410046
:102c800080087800000006000000e00036003200f6
:102c9000640050001002780090029000e50f52008e
:102ca000e08f5a00300036000408a3002e003a00de
:102cb000510881000100e00002003200810f500045
:102cc00004003100210098005008890018003700e6
:102cd00082007800210190000200e0000200320032
:102ce000800f5100faff3900110378009103900022
:102cf00086814000830f50001b003900808f5100f7
:102d000004003a008418430085904b0001007800cd
:102d1000070037000200e000030032000402400018
:102d2000840f51001000390022009800a000980084
:102d3000a00090000100e0000b00320010014000f4
:102d4000828f500008003a00821022000009eb0038
:102d50001001780090019000311841002190490045
:102d6000a10090002100980000000600889fbe008e
:102d70008a9fbe000004be00410881000100e000ff
:102d800002003200010078000f0037005108810076
:102d9000a010220005003700b10f5400a18f5c0085
:102da0002b00360064804000a10090000100e0008c
:102db000f9ff3a0012003700b20f5400a28f5c00f6
:102dc0002300360064004100100178000200e0009a
:102dd000f9ff3a001101780051088100a01022008b
:102de00005003700b10f5400a18f5c0018003600b9
:102df00064804000a1009000828f5000f9ff3a00eb
:102e00002a0881003b088100880f5500898f5d00ea
:102e1000010031000805be000a00be0046000700a0
:102e20000000e00006003a00880f5500898f5d0021
:102e3000060032008b05d1000a85d300f2ff37006f
:102e40000a98be0090ff0700cbff37000000eb00a0
:102e50004f05be004f04be0000000600889fbe0064
:102e60000002be0065004000e080480000037800da
:102e70000600a10081017800060178000204be006e
:102e80008000eb00840f5400858f5c002700360023
:102e9000e50f5400e08f5c0002003e006800200057
:102ea000090020000800be00b0ff07008000eb0012
:102eb0000000e0001d00320090007800a4ff2f0009
:102ec000f5ff2f0031014200a1814a00880f510017
:102ed000898f590003003100a10290000508780095
:102ee000080037000881400002087800a101900026
:102ef00023019800100178003119140021911c0061
:102f00008888be00100178000000eb000200e0009d
:102f100004003200a20190000300e0000100320032
:102f20006400410040088900e4804000010078000e
:102f30004f04be00000006000001be008000eb0050
:102f40000200e00006003400020078006df7070080
:102f500080007800e18f400001003a008000eb0023
:102f6000010078000000060000c0da000000060042
:102f700000c0da00000006003400f8003200f8005b
:102f80000203be00820270008502720002f0a600f9
:102f90008301e800a301880000f0a6008100e8009a
:102fa000910188001500b2000c0032001049780031
:102fb0000402e900150032006101410002003900fd
:102fc0003420ec000200280061004000f7ff3900c7
:102fd0003220ec0000002800f4ff370010097800d0
:102fe0000482e90009003200620141000200390058
:102ff0003420ec000200280062004000f7ff390096
:103000003220ec0000002800f4ff37003200f90005
:103010003400f9000601be0000000600e00f520077
:10302000e08f5a00070032009601800001d0fe00b8
:103030009041780006d0fe008301fb00828f510092
:103040001200320061025200e0825a0096018000b4
:1030500001d0fe009041780006d0fe000304e0009d
:1030600008003200800178001000b0008081690003
:103070004260af0000f0a0008381d2000180b00068
:10308000e6ff3700000020000100200000000600dd
:10309000839f68000100e00002003d006000100016
:1030a000e08018000300e00002003d006001110014
:1030b000e081190053f707004f00e00002003b00d9
:1030c00060001000e0801800000006004df70700c7
:1030d0000400be0000000600020ab900001bb9008f
:1030e0000200b80081004200810043000000060099
:020000040000fa
:1030f0000102000003040000050600000f1000009c
:103100000a570000696e00006453000070650000fb
:10311000656400003a200000256400000a000000f9
:10312000576900006e640000446900007265000089
:10313000637400003a200000256400000a000000cb
:10314000497200007261000064690000617400004f
:10315000696f00006e3a000020250000640a00003c
:1031600000000000c4720000067300002473000019
:1031700094730000ee7300003c7300003a7400008a
:10318000d6720000e2720000ee720000fa720000d7
:103190004e7300005a73000066730000ae720000a8
:1031a000727300000d0a0000444800004350000004
:1031b0002f5000006f77000065720000206500004e
:1031c000766500006e740000206f000063630000ed
:1031d000757200007265000064000000496e000016
:1031e0007465000072660000616300006500000005
:1031f0000102000003040000050600000f1000009b
:103200002e6c00006f630000616c00000000000085
:0c3210000c000000f4010000f4010000bc
:020000040000fa
:10321c000200fa00004f7800601122001040780084
:10322c009e4f50002f003200601122001040780099
:10323c00e24f400013003200601122001040780071
:10324c000080fb008000eb00fe09b900e002b90031
:10325c008401780003014100e30120000300b80061
:10326c00010141008200780082d921000200400057
:10327c00e201200003002000a1e121005a09020014
:10328c0000000000601122001e4878001e407800eb
:10329c00e24f4000150032001e80fb008000eb0066
:1032ac00fe09b900e002b900840178000301410075
:1032bc00e30120000300b800010141008200780006
:1032cc0082d9210002004000e2012000030020000e
:1032dc0080007800a0e121005a09020000000000e3
:1032ec000300370000000000010037000000000060
:1032fc000080fa00000006000000fa0070112200a5
:10330c0090407800601122001040780080cf50006f
:10331c003b0032007011220010407800e24f400058
:10332c002700320066db210070112200104078006b
:10333c000080fb00cf80de00fe09b900e002b9007e
:10334c008401780003014100e30120000300b80070
:10335c0001014100820078007c004000e0804800c0
:10336c0082d92100020040009042780070112200a6
:10337c00104078000080fb00cf80de00fe09b90011
:10338c00e002b9008401780003014100e301200050
:10339c000300b800010141008200780082d92100ad
:1033ac0002004000100078008002b100840220006e
:1033bc0013c0b300060178008540780002110700a5
:1033cc0060112200904078007011220001487800b2
:1033dc0060e3210010417800d0f0800081fd2f00c7
:1033ec008080400060db2100840220008241780054
:1033fc000101780011c0b300f31007000100370081
:10340c00000000000080fa00000006000c00fa002a
:10341c00d04c210010079800c203200003002000ac
:10342c008000eb00e0dd21007609020000000000c6
:10343c000040eb00004f78006a0037001e40780017
:10344c0073ff07001e80fb00cf80de00e609b90089
:10345c00e002b90084017800030141006300200000
:10346c000300b8000101410082007800829029001d
:10347c000200400090409000414798001e80fb00e5
:10348c00cf80de00e609b900e002b90084017800c3
:10349c0003014100630020000300b800010141005a
:1034ac008200780062004000e08048008290290091
:1034bc000200400090007800310798001e80fb004d
:1034cc00cf80de00e609b900e002b9008401780083
:1034dc0003014100630020000300b800010141001a
:1034ec008200780064004000e0804800829029004f
:1034fc000200400090007800410798004e40900078
:10350c000080fb000000e0000100320034003700b6
:10351c001e02900054079800be0090004e009000d0
:10352c00808040001e00900000804000a002b0008f
:10353c00100798009e009000c0ff2100808f500063
:10354c00fcff3e0060e32100ce4090000148780073
:10355c005e0090008002b000d0f08800d1f08000b6
:10356c003e009000008040000000e800e0f0880081
:10357c00e1f080004e00900000804000f0f08800e8
:10358c00d000200080f1880090f180000030a10074
:10359c0090f1880058ff07001e80fb00cf80de00f2
:1035ac00e609b900e002b90084017800030141008a
:1035bc00630020000300b800010141008200780084
:1035cc00829029000200400090407800d0dd21005c
:1035dc0001487800ab0a07001e4fe80001003700d5
:1035ec00ffff37001e4078000004e00093ff32001c
:1035fc000080fa00000006000c00fa00100798008a
:10360c00210798006247980043079800244f9800c0
:10361c000040eb00004f7800210037001e4078007e
:10362c00fbfe070080f18000ed0f500018003a00ff
:10363c0031ff0700d0dd2100904078002e4890002b
:10364c0080cf500014003a0080212000d0ee88007a
:10365c006e4090000004e0000b003a00ce00900099
:10366c0031ee880090f180000030a00090f18800cd
:10367c004000200080f18800ce009000a1f188006d
:10368c001e4078000a003700e0cfb3000800370076
:10369c000000000001003700000000001e4fe80091
:1036ac001e4078000004e000dcff3200e0cfb300e5
:1036bc000080fa00000006000200fa00004f7800bb
:1036cc001e4078000004e0000200320010c0b3007d
:1036dc000d0037001e407800cdfe070091f18000f0
:1036ec0000002100008060000000e00005003200b6
:1036fc0090f1800000c0a10090f1880010c0b300d0
:10370c00010037000040eb000080fa0000000600ca
:10371c000200fa00004f78001e4078000004e00020
:10372c00020032000040eb00090037001e40780018
:10373c00b7fe070080f180006700680000f0a7006a
:10374c000000ea000000e9004f00de0000407800b5
:10375c000080fa00000006000200fa00004f78001a
:10376c001e4078000004e00042003a001e40780041
:10377c00a7fe070020f1800030f1880080f1800066
:10378c00e50f500012003200e50f500006003e001d
:10379c000000e0000e0032000080e900e10f500054
:1037ac002e003e000a003700eb0f500019003200cb
:1037bc00eb0f500003003e00e70f500027003e00c7
:1037cc0005003700ee0f50002100320023003700b7
:1037dc002c0a07002800370011c0b30010c1b30039
:1037ec008506070040ee80000000e0000500320076
:1037fc0001f1800010ee8000808f5000f6ff3a003f
:10380c0001003700000000008000200080f18800db
:10381c001900370011c0b30010c1b30076060700c1
:10382c0040ee80000000e0000500320001f1800055
:10383c0010ee8000808f5000f6ff3a000100370038
:10384c0000000000c000200080f188000a00370052
:10385c00d000200080f18800070037008040eb008a
:10386c0040c1b30064060700060a07000000000010
:10387c0001003700000000000080fa000000060084
:10388c000200fa00004f78001e4078000004e000af
:10389c0008003a001e4078005dfe070090f18000a1
:1038ac000030a10090f188001e407800aaff0700ac
:1038bc0001003700000000000080fa000000060044
:1038cc000200fa00004f78001e4078000004e0006f
:1038dc00020032000000eb000c0037001e407800a4
:1038ec004bfe070084fe0700a2002000030020000e
:1038fc00c1dc210080e321005a0902000000000015
:10390c0020ee800010f2880080e321000080fa0095
:10391c00000006000200fa00004f78001e407800fc
:10392c000004e0000b003a001e40780038fe07004f
:10393c0071fe070001f1800010ee8000808f5000b6
:10394c000500320011c0b30000c1b3002a06070005
:10395c0001003700000000000080fa0000000600a3
:10396c000400fa00204798002e4090000004e0006c
:10397c00020032000000eb001d0037002e409000ca
:10398c0023fe070080f18000004f78001e40780075
:10399c00e74f5000050032001e407800eb4f5000fe
:1039ac00020032000000eb001100370001f1800032
:1039bc0010f18000808f500009003900e1f0800088
:1039cc00d0f080008080500012f1800000f1800067
:1039dc0000005100008040000000e90004003700a6
:1039ec0011f1800000f18000008050000000e9001f
:1039fc000080fa00000006000400fa00204798003e
:103a0c00314798002e4090000004e0000200320084
:103a1c000040eb00430037002e409000fcfd0700f7
:103a2c002e409000ceff0700000f78001e0078009b
:103a3c000000e00002003a000040eb0039003700c3
:103a4c001e007800e10f500002003a002e4090005a
:103a5c00b0ff070091f18000001020000080600092
:103a6c000000e0000b003a00e1f08000d0f0800094
:103a7c00008050000000d1009e0f5000050039005e
:103a8c002e409000a3ff070090f180000080a00062
:103a9c0090f188006301470060e3210090407800ba
:103aac0000f180001400200013c0b300460f070083
:103abc0000f180000000e80000f1880001f18000b6
:103acc00e0f08000808f500002003900d0f08000c0
:103adc0000f188001e007800e10f500003003a004e
:103aec002e4090008bff07000d00370091f18000f5
:103afc0000022000008060000000e00008003a0096
:103b0c0090f180000050a00090f18800ac9502006c
:103b1c0000000000000078007900400060f188008f
:103b2c0010c0b3000080fa00000006000c00fa0080
:103b3c006047980041079800520798000000eb007e
:103b4c00100798006e4090000004e0000200320064
:103b5c000000eb005e0037006e409000acfd0700eb
:103b6c006e4090007eff0700200798002e0090000a
:103b7c000000e00004003a006e40900065ff070072
:103b8c000000eb0052003700ae009000010f7800ef
:103b9c00ae0090005e009000808f50000200360056
:103bac00de009000010f780091f1800000102000e1
:103bbc00008060000000e0000c003a00e1f08000a2
:103bcc00d0f08000008050008000d1002e009000ca
:103bdc00808f5000050039006e4090004dff0700ab
:103bec0090f180000080a00090f1880000f180002e
:103bfc009e004000e0f08000808f500014003900df
:103c0c00e1f0800000f18000008050001007980067
:103c1c004e01900060e321009040780000f180009c
:103c2c001e02900013c0b300e70e07001e009000a8
:103c3c008000eb004e01900000004100400798000e
:103c4c001e0090001e0f1000d0f0800000f18800c4
:103c5c004e01900060e321009040780000f180005c
:103c6c001e02780013c0b300d70e070000f18000cd
:103c7c001e00400000f18800ae0090005e00900035
:103c8c00808f500003003e006e40900021ff070023
:103c9c000d00370091f180000002200000806000d0
:103cac000000e00008003a0090f180000050a000f5
:103cbc0090f18800ac950200000000000000780034
:103ccc007900400060f188001e0090001e0040004a
:103cdc000080fa00000006000400fa00004f780093
:103cec00110798001e0090008e09020000000000d1
:103cfc0000007800000178009e0090001e407800c3
:103d0c008aff07008000eb001e01900000004100bc
:103d1c000080fa00000006000600fa0040479800f8
:103d2c004e4090000004e000020032000000eb0066
:103d3c000b0037004e40900035fd0700e1f080008d
:103d4c00d0f0800000805000000fe9004e40900041
:103d5c0003ff0700100798001e0090001e001000c3
:103d6c000080fa00000006000200fa00004f780004
:103d7c001e4078000b0007000000e0000700320036
:103d8c001e40780022fd070020f1800030f18800f1
:103d9c0011c0b30000c1b300170507000080fa0082
:103dac00000006000200fa00004f78001e40780068
:103dbc000004e000020032000000eb0012003700ab
:103dcc001e40780012fd070021f1800030f18000c8
:103ddc00808f50000400390021f1800030f1800008
:103dec000080500008003700f1f0800030f18000b6
:103dfc008080500022f18000e0f080000000510033
:103e0c00008040000000e8000080fa00000006007e
:103e1c000600fa0020479800210798002e409000d9
:103e2c00e0ff0700000f78001e0078000000e000a3
:103e3c0002003a000040eb002c0037002e409000ae
:103e4c00f3fc07002e0090000000e0000900320097
:103e5c0060e321001041780031f180002e009000c9
:103e6c0014002000824178000101780011c0b300d9
:103e7c00550e070030f180000000e80030f188009a
:103e8c0031f18000f0f08000808f5000020036008d
:103e9c00e0f0800030f188001e007800e10f500047
:103eac0004003a0090f1800000a0a00090f188007e
:103ebc000d00370091f180000002200000806000ae
:103ecc000000e00008003a0090f180000050a000d3
:103edc0090f18800ac950200000000000000780012
:103eec001008b00060f1880010c0b3000080fa0028
:103efc00000006000a00fa004047980031079800bd
:103f0c00420798000000eb00000f78004e40900034
:103f1c00a4ff0700100798001e0090000000e000ae
:103f2c0002003a000000eb00530037004e409000b6
:103f3c00b7fc0700ce0090001e009000808f500050
:103f4c00020036009e0090004107980031f180007d
:103f5c004e00900080804000f0f08000808f500078
:103f6c001a003600f1f0800030f180000080500023
:103f7c00000fe8003e0090000000e0000e00320050
:103f8c0060e321001041780031f180003e00900088
:103f9c001e027800824178000101780011c0b30044
:103fac00090e07001e0078008000eb003e01900017
:103fbc0000004100300798004e0090001e00500099
:103fcc0040079800e0f0800030f188003e0090003f
:103fdc000000e0000900320060e32100104178008d
:103fec0031f180003e0090004e029000824178003a
:103ffc000101780011c0b300f30d070031f180000e
:10400c004e0090000080400030f188004e0090007f
:10401c001e004000400798009e0090004e0090004b
:10402c00808050004e009000808f500004003e00b5
:10403c0090f1800000a0a00090f188000d003700e6
:10404c0091f1800000022000008060000000e00080
:10405c0008003a0090f180000050a00090f1880018
:10406c00ac95020000000000000078001008b000c1
:10407c0060f188004e0090000080fa0000000600fd
:10408c000600fa00404798004e4090000004e00003
:10409c00020032000000eb000a0037004e40900096
:1040ac005bfc0700f1f08000e0f08000008f500016
:1040bc004e4090003bff0700100798001e00900038
:1040cc001e0010000080fa00000006000e00fa002e
:1040dc0060479800410798005207980063079800c2
:1040ec006e4090000004e00003003a005e00900077
:1040fc000000e00002003a000000eb004200370034
:10410c006e40900042fc07006e40900025ff0700b7
:10411c0010079800ee0090005e0090008080400038
:10412c001e009000808f5000040036009e0090000e
:10413c006e009000008050005007980031f1800014
:10414c006e009000008f4000f0f080009e0f500039
:10415c0005003100f1f08000e0f08000008050009c
:10416c000080ea001e0f4000f0f080001e0050009e
:10417c000000e80020079800de0090002e00900060
:10418c00808f500009003e0060e3210090407800d1
:10419c004e0090005e029000814178001e01780074
:1041ac0011c0b300880d07001600370060e3210032
:1041bc00904078004e0090002e02900081417800d3
:1041cc001e01780011c0b3007f0d0700de009000c7
:1041dc002e0090008081500060e321001041780097
:1041ec00e1f080004e0290002e0090000000420092
:1041fc0003027800824178000101780011c0b300fd
:10420c00710d07005e0090000080fa0000000600af
:10421c000600fa002047980021079800ae01900094
:10422c00120020008e0078002e409000a7ff07009f
:10423c001e4078000080fa00000006003c00fa00e6
:10424c0000779800111f9800221f9800331f9800c8
:10425c00441f9800257f98000e7090000004e00029
:10426c00020032000080eb00300137002e18900065
:10427c000000e00002003a000000eb002b013700c8
:10428c000e709000e2fb07000e709000c5fe070058
:10429c00be18900001005000100798009e0090007e
:1042ac002e189000808f5000020031000080eb002f
:1042bc001e0137004e1890000000e000060032008e
:1042cc009e0090004e189000808f50000200360027
:1042dc00ce1890001107980031f180003e18900024
:1042ec000080400030079800f1f080003e00900004
:1042fc00808f500007003100f1f08000e0f080006a
:10430c00008050000080ea00be0090000080400059
:10431c0030079800be009000010f7800f1f080008b
:10432c003e009000008050000000e800200798003c
:10433c00be18900031079800ae18900061079800e5
:10434c009e189000710798001e18900090407800fd
:10435c00114f98001e1890000000e800101f9800e4
:10436c000040eb00304f98002e7890000004e000e5
:10437c000c0032009e48900000c6b30080cf500065
:10438c00080036009e489000a0c7b30080cf5000b4
:10439c0004003e009e48900000ceb30000c04000d8
:1043ac00104f980000c2b300204f98002e48900088
:1043bc008080fb002e009000808f500002003600a1
:1043cc002e009000204f98002e4890008080fb001b
:1043dc001e009000808f5000020036001e009000de
:1043ec00204f98002e4890000081fb0060e32100d4
:1043fc0090407800700047000202780081417800fc
:10440c001e01780011c0b300ef0c07002e4890007d
:10441c000080fb001e0f40002e4890000080fb0027
:10442c00ae00900000805000200798002e009000f5
:10443c000000e00004003a00e1f08000010f780079
:10444c000080eb00200798002e7890000004e0001c
:10445c006d0032000040eb00004f98006500370003
:10446c000e4890000080fb00cf80de007000400002
:10447c00ee40780000c6b30080cf50001400360028
:10448c000e4890000080fb00cf80de0070004000e2
:10449c00ee407800a0c7b30080cf50000c003e0067
:1044ac000e4890008081fb000e4890000080fb00bd
:1044bc00cf80de0070004000ee40780000ceb300ec
:1044cc0000c140006118b90070004000027778000c
:1044dc000e4890000080fb00cf80de007000400092
:1044ec00ee4078001e48900080cf500023003a0028
:1044fc002e1890000000e900201f98002e18900044
:10450c000000e00008003a00be0090006e00900031
:10451c00808050000e4890000080fb00008040001e
:10452c000000e800810037001e18900090407800d1
:10453c00114f98001e1890000000e800101f980002
:10454c0010c0b300304f98009e48900000c6b300d6
:10455c0080cf5000240036009e489000a0c7b300c6
:10456c0080cf500020003e009e48900000ceb3004b
:10457c0000c04000104f98001b003700ee00900068
:10458c00211f98003e4890000004e0001600320005
:10459c00fe009000111f98001e18900090407800ab
:1045ac00114f98001e1890000000e800101f980092
:1045bc009e48900000c6b30080cf50000800360023
:1045cc009e489000a0c7b30080cf500004003e006e
:1045dc009e48900000ceb30000c04000104f9800e1
:1045ec000040eb00304f98000e4890000040e8006f
:1045fc00004f98008e4890002e48900080cf5000bd
:10460c0097ff3900380037000040eb00004f98004e
:10461c00310037000e4890000080fb00cf80de0098
:10462c0070004000ee4078001e48900080cf500093
:10463c0017003a002e1890000000e900201f980087
:10464c002e1890000000e00008003a00be00900018
:10465c006e009000808050000e4890000080fb009f
:10466c00008040000000e800300037001e18900069
:10467c0090407800114f98001e1890000000e80040
:10468c00101f980010c0b300304f98000f00370077
:10469c00ee009000211f98003e4890000004e000be
:1046ac000a003200fe009000111f98001e189000a6
:1046bc0090407800114f98001e1890000000e80000
:1046cc00101f98000040eb00304f98000e489000ef
:1046dc000040e800004f98008e4890002e48900053
:1046ec0080cf5000cbff39002e4890000080fb009b
:1046fc009e00900000805000100798009e009000d3
:10470c002e189000808f5000020031000080eb00ca
:10471c00060037002e4890000080fb00be00900081
:10472c0000804000300798001eff37000080fa0020
:10473c00000006000800fa00004f780011479800ae
:10474c001207980023079800644798000e00e800b1
:10475c00ee4290002e0290009e019000120020006c
:10476c00800078001e407800b4fe07000080fa003c
:10477c00000006000600fa00881f78000040eb00dd
:10478c00004f7800e60137001e407800a0fa0700c1
:10479c000040eb00304798000040eb0010479800b9
:1047ac000040eb002047980091f180000020200091
:1047bc00008060000000e00005003a0091f18000ec
:1047cc0000402000008060000000e0000f0032007c
:1047dc00ca3d0200000000000004e0000b003200a3
:1047ec0000c1b3003047980090f180004a00de0011
:1047fc00614060000080fb0000f0a7000000ea00b0
:10480c000000ea004f00de001047980091f1800094
:10481c0000022000008060000000e000090032006f
:10482c0068f18000ac9502000000000000007800e8
:10483c00000054000000e00002003c0000c1b30086
:10484c003047980091f18000000420000080600047
:10485c000000e0000900320078f18000ac95020005
:10486c000000000000007800000054000000e00090
:10487c0002003c0000c1b3003047980080f180007a
:10488c00eb0f50000b003a0078f18000ac95020061
:10489c000000000000007800000054000000e00060
:1048ac0004003c0010c1b30030479800c000200049
:1048bc0080f1880080f18000e40f500097003a00ee
:1048cc000000eb00200798008f0037002e009000ae
:1048dc008000eb00f409b900e002b9008401780013
:1048ec0003014100430120000300b8000101410015
:1048fc008200780070004000e0804800e2dd21007a
:10490c0002004000100078000000e000820032003d
:10491c002e0090008000eb00f409b900e002b90011
:10492c008401780003014100430120000300b8001a
:10493c00010141008200780070004000e0804800d6
:10494c00e2dd21000200400090007800a0f1800020
:10495c00808f500069003a0067fa07002e00900023
:10496c008000eb00f409b900e002b9008401780082
:10497c0003014100430120000300b8000101410084
:10498c0082007800e2dd210002004000a20020003d
:10499c000300200080007800c0dc21005a090200ce
:1049ac00000000002e0090008000eb00f409b9001c
:1049bc00e002b900840178000301410043012000aa
:1049cc000300b80001014100820078006a00400039
:1049dc00e0804800e2dd2100020040001000780079
:1049ec0020ee88002e0090008000eb00f409b90046
:1049fc00e002b9008401780003014100430120006a
:104a0c000300b80001014100820078006c004000f6
:104a1c00e0804800e2dd21000200400090009000a0
:104a2c001000780061004000e0804800f0ed880044
:104a3c0001ee880071ee800060ee80008080400006
:104a4c0020ee80008080400030ee80000080680006
:104a5c00a0f1880020c1b30030479800600020000e
:104a6c0080f18800ae009000c0fe2f008088b90055
:104a7c0083022000808141002e0090008000eb001a
:104a8c0061004000e0804800f409b900e002b90080
:104a9c0004014100440120000400b8000101410060
:104aac0082007800e2dd21000200400080027800e4
:104abc002e0090008000eb00f409b900e002b90070
:104acc0004014100440120000400b8000101410030
:104adc0082007800e2dd2100020040000302780031
:104aec0013c0b3000501780011c0b300360b0700ea
:104afc000000eb00b0f08800080037002e0090009a
:104b0c000000e800200798002e009000e20f5000f3
:104b1c006eff360001003700000000003e409000a0
:104b2c000004e000090032001e4090000004e00088
:104b3c00020032000040eb000100370010c0b3004f
:104b4c00804078003e409000ab01070090f180005f
:104b5c00700060000000e0002d003a0080f1800041
:104b6c00e70f5000e6003a007a95020000000000c2
:104b7c000001be0040f1800051f1800000005100a6
:104b8c0081805900e00f5000e08f5800de003500a6
:104b9c0090f1800067006000e60f50000e003a00b4
:104bac0090f180004300de006140600030479800c7
:104bbc001e407800e8fa07001e407800e6fa07006d
:104bcc003e4090000004e000d1003a00e0002000dc
:104bdc0080f18800d1003700c7f9070021c0b3006d
:104bec0000c1b300840107007a95020000000000a8
:104bfc000001be00a024240091012000020040000e
:104c0c008380480040f1880051f18800c3003700d0
:104c1c007a950200000000000001be0040f1800007
:104c2c0051f180000000510081805900e00f5000cc
:104c3c00e08f5800b8003500aff9070080f1800014
:104c4c00e80f500045003200e80f500007003e000e
:104c5c00e60f50001e003200e60f500031003e00ff
:104c6c00e50f50000a0032006c003700ea0f5000cc
:104c7c004d003200ea0f500046003900eb0f500097
:104c8c0028003200ec0f5000550032006300370052
:104c9c0020c0b3003047980010c0b30010479800f4
:104cac00c0dd210010407800e34f50005a00360060
:104cbc00c0dd210041c0b3000148780000a12600ee
:104ccc0081022000b0ed8800c1ed88005300370050
:104cdc00c0dd210010407800e14f500005003e007f
:104cec0020c1b3003047980010c0b30010479800a3
:104cfc004a00370090f18000680060000000e0007e
:104d0c000500320040c1b3003047980010c0b3001a
:104d1c00204798004100370020c0b300304798006e
:104d2c003e003700c0dd210010407800e44f5000f9
:104d3c0005003e0000c1b3003047980010c0b3001e
:104d4c0010479800350037008000200080f1880063
:104d5c0010c1b3003047980030003700c0dd21008f
:104d6c0010407800e44f500005003e0010c1b30025
:104d7c003047980010c0b300104798002700370048
:104d8c0040c1b3003047980010c0b30020479800d2
:104d9c002200370040c1b3003047980010c0b30068
:104dac00204798001d003700c0dd2100104078001e
:104dbc00e44f500005003e0000c1b300304798009e
:104dcc0010c0b300104798001400370040c1b30066
:104ddc003047980010c0b300204798000f003700f0
:104dec00c0dd210010407800e44f500005003e006b
:104dfc0010c1b3003047980010c0b30010479800a2
:104e0c000600370040c1b3003047980010c0b30013
:104e1c002047980001003700000000003e40900041
:104e2c000004e000310032001e4090000004e0005d
:104e3c002b003200c0dd2100104078008040e800db
:104e4c00c0dd210001487800b0ed8000c1ed80008c
:104e5c000000400081804800b0ed8800c1ed880062
:104e6c0011ee800010f180000080500020079800a7
:104e7c0011ee800010f18000808f50000600310090
:104e8c00e1f08000d0f0800000805000ae00900077
:104e9c000080400020079800d2ed8000e3ed8000f8
:104eac002e0090008000eb00000051008180590022
:104ebc00d0ed8800e1ed880041ee80002e009000de
:104ecc000080400040ee880010f1800010ee880059
:104edc008040eb003e409000c70007000300370005
:104eec0011c0b3003e409000c30007002e4090005c
:104efc000004e000090032006204070007003700dc
:104f0c00000000000500370000000000030037001f
:104f1c000000000001003700000000001e4fe800f8
:104f2c001e4078000004e00017fe32000000eb0089
:104f3c0020079800510037002e0090008000eb00f5
:104f4c00f409b900e002b9008401780003014100c2
:104f5c00430120000300b8000101410082007800e9
:104f6c0070004000e0804800e2dd210002004000bb
:104f7c00100078000000e00044003200ac95020004
:104f8c0000000000800178002e0090008000eb00f3
:104f9c00f409b900e002b900040141004401200009
:104fac000400b8000101410082007800720040004a
:104fbc00e0804800e2dd2100020040001000780093
:104fcc008080510060bc2400808f50002800360087
:104fdc00ae009000c0fe2f008088b9008302200034
:104fec00808141002e0090008000eb0061004000a9
:104ffc00e0804800f409b900e002b9000401410066
:10500c00440120000400b800010141008200780036
:10501c00e2dd210002004000800278002e009000aa
:10502c008000eb00f409b900e002b9000401410072
:10503c00440120000400b800010141008200780006
:10504c00e2dd2100020040000302780013c0b3002f
:10505c000501780011c0b300db0907000000eb006c
:10506c00b0f088002e0090000000e90020079800a6
:10507c002e0090000000e800200798002e00900001
:10508c00e20f5000acff36000100370000000000ba
:10509c004f0478000080fa00000006002c00fa0093
:1050ac003017980041179800521798003e11900045
:1050bc009281fb00124290000482fb004822dd002a
:1050cc008481710003007800a24190008381fb0071
:1050dc00324190000281fb004811dd000281710019
:1050ec0082007800300f9800410f98004e1090000d
:1050fc001001780090019000520f9800630f9800f7
:10510c000040eb00605f980060c0b300705f9800d7
:10511c00de119000031798000e109000ce63020071
:10512c00000000000017980076004700c100200026
:10513c0048640200000000000080ea00101798008c
:10514c005e109000e0410200000000002017980063
:10515c009e1090002e109000808f500004003200a2
:10516c00e23d02000000000010c0b3002000370038
:10517c000000eb0056910200000000000e80e800d9
:10518c0041012000ce440200000000000e80e80027
:10519c008a0307007e0090004400de006f40600030
:1051ac0080407800200020000008dd00744f500083
:1051bc001e80fb00de109000008050007400500038
:1051cc00501798000e80e800be1090000a020700ed
:1051dc000004e000030032000e80e800de109000b6
:1051ec0067040700e23d02000000000010c0b3009d
:1051fc000080fa00000006002a00fa00006f9800f8
:10520c00116f98003cf807000e6890000080fb00be
:10521c0061006000004078000004e00006003200ed
:10522c0090f1800000b0a00090f188000e68900012
:10523c000004a100006f980090f180000050a100c4
:10524c0090f1880090f180000060a10090f188003e
:10525c0090f180000070a10090f1880090f1800026
:10526c000090a10090f1880090f1800000a0a100b6
:10527c0090f1880090f180000080a10090f18800ee
:10528c0000000000ca3d0200000000000004a20063
:10529c000004e000fbff3a000e6890000080fb0069
:1052ac00660060000000e000030032000000eb002c
:1052bc00000f78007c00370001f1800010ee8000b8
:1052cc00808f500003003a000000eb00000f7800c4
:1052dc006700370001f1800010ee8000808f5000d5
:1052ec001d00360001f1800010ee8000008f500090
:1052fc0040ee80009e0f50000200310041ee800015
:10530c00010f7800d0ee80009e0f50000500310098
:10531c00d2ee8000020f780090f1800000a0a00077
:10532c0090f1880060e321009040780010ee80003e
:10533c001e02780081417800000178008040eb006b
:10534c0020f120002009070010ee80001e00400014
:10535c0010ee880046003700e1f0800010ee80006f
:10536c000080500030179800be10900000f18000b3
:10537c0080804000d0f08000008f500040ee800014
:10538c009e0f50000200310043ee8000030f7800a6
:10539c00d0ee80009e0f500005003100d1ee800051
:1053ac00010f780090f1800000a0a00090f188001f
:1053bc003e1090009e0f5000020036001e01780037
:1053cc00321798003e11900060e321009040780065
:1053dc0010ee800002027800814178000001780014
:1053ec008040eb0020f12000f70807003e109000f1
:1053fc001e001000301798003e1090000000e000d6
:10540c000e003200be11900060e3210010417800c4
:10541c00d1f08000e4f0800010ee80000002520019
:10542c0020f1200000004200030278008241780045
:10543c00010178008040eb00e308070010ee8000cb
:10544c001e00400010ee880011ee8000e0f080009d
:10545c00808f50000600390011ee8000d2f08000e1
:10546c00e0f08000000051000080400010ee880049
:10547c0091f1800000802000008060000000e000be
:10548c000900320040ee80009e0f500006003200f2
:10549c00d0ee80009e0f5000030032000e6890008a
:1054ac000004a000006f98001e0078000000e000cf
:1054bc0005003a000e6890000080fb00630060005d
:1054cc000000e0002300320040ee80001e0050007f
:1054dc0040ee88001e0078000000e000030032005f
:1054ec000e6890000034a000006f98001e689000b9
:1054fc000080fb0061006000004078000004e000c8
:10550c0007003200c0dd21008040eb00014878002c
:10551c00106a280021002000b0ed8800c1ed880041
:10552c007a950200000000000001be00b0ed800082
:10553c00c1ed8000020040008380480040f18800eb
:10554c0051f1880090f180000040a00090f188009b
:10555c003a0037001e6890000080fb00620060007b
:10556c000000e0001400320090f180006740600001
:10557c000040e800674060000080fb0067006000ae
:10558c0092f1800081ff2f0081006100010070000a
:10559c0090f18800d0ed8000e1ed800061005000ba
:1055ac00e0805800d0ed8800e1ed8800100020006c
:1055bc00000f78002100370090f18000700060002f
:1055cc000000e0001d0032001e6890000080fb000f
:1055dc00610060000000e0000f003a00c0dd210017
:1055ec00104078000004e0000b003200c0dd210008
:1055fc00104078008040e900c0dd210001487800af
:10560c00b0ed8000c1ed80008100d1000080d3009e
:10561c00b0ed8800c1ed88007a9502000000000012
:10562c000001be00b0ed8000c1ed80000200400022
:10563c008380480040f1880051f1880030ee8000f2
:10564c002007980020ee800030079800d0ed8000f5
:10565c00e1ed80004007980051079800f0ed8000c4
:10566c0001ee800060079800710798008e0890008a
:10567c00f0ff230000806000000f98008e0890005f
:10568c0000ff2f0000806000000f98008e699000d2
:10569c00135798000000eb00300f9800d2ed8000fb
:1056ac00e3ed80001e0078008000eb00020040005b
:1056bc0083804800d0ed8800e1ed88000e689000f2
:1056cc000080fb00620060000000e0001c00320063
:1056dc000e6890000080fb00700060000000e0008d
:1056ec0003003a006000b80060079800710798004a
